{
  "_format": "hh-sol-artifact-1",
  "contractName": "RecordAccess",
  "sourceName": "contracts/RecordAccess.sol",
  "abi": [
    {
      "anonymous": false,
      "inputs": [
        {
          "indexed": true,
          "internalType": "address",
          "name": "patient",
          "type": "address"
        },
        {
          "indexed": true,
          "internalType": "address",
          "name": "doctor",
          "type": "address"
        }
      ],
      "name": "AccessGranted",
      "type": "event"
    },
    {
      "anonymous": false,
      "inputs": [
        {
          "indexed": true,
          "internalType": "address",
          "name": "patient",
          "type": "address"
        },
        {
          "indexed": true,
          "internalType": "address",
          "name": "doctor",
          "type": "address"
        }
      ],
      "name": "AccessRequested",
      "type": "event"
    },
    {
      "anonymous": false,
      "inputs": [
        {
          "indexed": true,
          "internalType": "address",
          "name": "patient",
          "type": "address"
        },
        {
          "indexed": false,
          "internalType": "uint256",
          "name": "patientheight",
          "type": "uint256"
        },
        {
          "indexed": false,
          "internalType": "uint256",
          "name": "patientweight",
          "type": "uint256"
        }
      ],
      "name": "PatientRecordsViewed",
      "type": "event"
    },
    {
      "anonymous": false,
      "inputs": [
        {
          "indexed": false,
          "internalType": "string",
          "name": "patient_Image",
          "type": "string"
        }
      ],
      "name": "patientImageViewed",
      "type": "event"
    },
    {
      "inputs": [
        {
          "internalType": "address",
          "name": "",
          "type": "address"
        },
        {
          "internalType": "address",
          "name": "",
          "type": "address"
        }
      ],
      "name": "authorizedDoctors",
      "outputs": [
        {
          "internalType": "bool",
          "name": "",
          "type": "bool"
        }
      ],
      "stateMutability": "view",
      "type": "function"
    },
    {
      "inputs": [
        {
          "internalType": "address",
          "name": "_doctor",
          "type": "address"
        }
      ],
      "name": "grantAccessToDoctor",
      "outputs": [],
      "stateMutability": "nonpayable",
      "type": "function"
    },
    {
      "inputs": [
        {
          "internalType": "address",
          "name": "_patient",
          "type": "address"
        }
      ],
      "name": "requestAccessToPatientRecords",
      "outputs": [],
      "stateMutability": "nonpayable",
      "type": "function"
    },
    {
      "inputs": [
        {
          "internalType": "address",
          "name": "_patient",
          "type": "address"
        }
      ],
      "name": "viewPatientRecords",
      "outputs": [
        {
          "internalType": "uint256",
          "name": "",
          "type": "uint256"
        },
        {
          "internalType": "uint256",
          "name": "",
          "type": "uint256"
        }
      ],
      "stateMutability": "nonpayable",
      "type": "function"
    },
    {
      "inputs": [
        {
          "internalType": "address",
          "name": "_patient",
          "type": "address"
        }
      ],
      "name": "viewPatientRecordsImage",
      "outputs": [
        {
          "internalType": "string",
          "name": "",
          "type": "string"
        }
      ],
      "stateMutability": "nonpayable",
      "type": "function"
    }
  ],
  "bytecode": "0x6080604052604051610010906100e7565b604051809103906000f08015801561002c573d6000803e3d6000fd5b506000806101000a81548173ffffffffffffffffffffffffffffffffffffffff021916908373ffffffffffffffffffffffffffffffffffffffff160217905550604051610078906100f5565b604051809103906000f080158015610094573d6000803e3d6000fd5b50600160006101000a81548173ffffffffffffffffffffffffffffffffffffffff021916908373ffffffffffffffffffffffffffffffffffffffff1602179055503480156100e157600080fd5b50610103565b61248f806200157883390190565b611b848062003a0783390190565b61146580620001136000396000f3fe608060405234801561001057600080fd5b50600436106100575760003560e01c8063122dbe141461005c5780631c8e251c1461008d5780631cd5c6e9146100a9578063c5249dc6146100d9578063d71ca34114610109575b600080fd5b61007660048036038101906100719190610b05565b610125565b604051610084929190610b4b565b60405180910390f35b6100a760048036038101906100a29190610b05565b610373565b005b6100c360048036038101906100be9190610b74565b6105ce565b6040516100d09190610bcf565b60405180910390f35b6100f360048036038101906100ee9190610b05565b6105fd565b6040516101009190610c7a565b60405180910390f35b610123600480360381019061011e9190610b05565b6107d4565b005b60008082600260008273ffffffffffffffffffffffffffffffffffffffff1673ffffffffffffffffffffffffffffffffffffffff16815260200190815260200160002060003373ffffffffffffffffffffffffffffffffffffffff1673ffffffffffffffffffffffffffffffffffffffff16815260200190815260200160002060009054906101000a900460ff166101f2576040517f08c379a00000000000000000000000000000000000000000000000000000000081526004016101e990610d0e565b60405180910390fd5b6101fa610a72565b60008054906101000a900473ffffffffffffffffffffffffffffffffffffffff1673ffffffffffffffffffffffffffffffffffffffff16632fea1a6f866040518263ffffffff1660e01b81526004016102539190610d3d565b6000604051808303816000875af1158015610272573d6000803e3d6000fd5b505050506040513d6000823e3d601f19601f8201168201806040525081019061029b9190610eaa565b83600001846020018560400183905283815250838152505050508060400151600360008773ffffffffffffffffffffffffffffffffffffffff1673ffffffffffffffffffffffffffffffffffffffff16815260200190815260200160002090816103059190611125565b508473ffffffffffffffffffffffffffffffffffffffff167f7fc7260496dcc17ac6fa61328c1a4893ad089192b8e940b381b1798f77f62d3382600001518360200151604051610356929190610b4b565b60405180910390a280600001518160200151935093505050915091565b60008054906101000a900473ffffffffffffffffffffffffffffffffffffffff1673ffffffffffffffffffffffffffffffffffffffff166391d1485460008054906101000a900473ffffffffffffffffffffffffffffffffffffffff1673ffffffffffffffffffffffffffffffffffffffff1663ac5cb97d6040518163ffffffff1660e01b8152600401602060405180830381865afa15801561041a573d6000803e3d6000fd5b505050506040513d601f19601f8201168201806040525081019061043e919061122d565b336040518363ffffffff1660e01b815260040161045c929190611269565b602060405180830381865afa158015610479573d6000803e3d6000fd5b505050506040513d601f19601f8201168201806040525081019061049d91906112be565b6104dc576040517f08c379a00000000000000000000000000000000000000000000000000000000081526004016104d390611337565b60405180910390fd5b6001600260003373ffffffffffffffffffffffffffffffffffffffff1673ffffffffffffffffffffffffffffffffffffffff16815260200190815260200160002060008373ffffffffffffffffffffffffffffffffffffffff1673ffffffffffffffffffffffffffffffffffffffff16815260200190815260200160002060006101000a81548160ff0219169083151502179055508073ffffffffffffffffffffffffffffffffffffffff163373ffffffffffffffffffffffffffffffffffffffff167f9f520b3bfc56d06f7065d10b4683b3f57ac8895d5026cd176dee95ce1454cb8d60405160405180910390a350565b60026020528160005260406000206020528060005260406000206000915091509054906101000a900460ff1681565b6060600260008373ffffffffffffffffffffffffffffffffffffffff1673ffffffffffffffffffffffffffffffffffffffff16815260200190815260200160002060003373ffffffffffffffffffffffffffffffffffffffff1673ffffffffffffffffffffffffffffffffffffffff16815260200190815260200160002060009054906101000a900460ff166106c8576040517f08c379a00000000000000000000000000000000000000000000000000000000081526004016106bf90610d0e565b60405180910390fd5b6000600360008473ffffffffffffffffffffffffffffffffffffffff1673ffffffffffffffffffffffffffffffffffffffff168152602001908152602001600020805461071490610f48565b80601f016020809104026020016040519081016040528092919081815260200182805461074090610f48565b801561078d5780601f106107625761010080835404028352916020019161078d565b820191906000526020600020905b81548152906001019060200180831161077057829003601f168201915b505050505090507fe5bff86e1380a3db2a71c0c0896d672afc6e8ce5871f85a48f4695e6c3113a98816040516107c39190610c7a565b60405180910390a180915050919050565b600160009054906101000a900473ffffffffffffffffffffffffffffffffffffffff1673ffffffffffffffffffffffffffffffffffffffff166391d14854600160009054906101000a900473ffffffffffffffffffffffffffffffffffffffff1673ffffffffffffffffffffffffffffffffffffffff1663fec331f26040518163ffffffff1660e01b8152600401602060405180830381865afa15801561087f573d6000803e3d6000fd5b505050506040513d601f19601f820116820180604052508101906108a3919061122d565b336040518363ffffffff1660e01b81526004016108c1929190611269565b602060405180830381865afa1580156108de573d6000803e3d6000fd5b505050506040513d601f19601f8201168201806040525081019061090291906112be565b610941576040517f08c379a0000000000000000000000000000000000000000000000000000000008152600401610938906113a3565b60405180910390fd5b6001600260008373ffffffffffffffffffffffffffffffffffffffff1673ffffffffffffffffffffffffffffffffffffffff16815260200190815260200160002060003373ffffffffffffffffffffffffffffffffffffffff1673ffffffffffffffffffffffffffffffffffffffff16815260200190815260200160002060006101000a81548160ff021916908315150217905515610a15576040517f08c379a0000000000000000000000000000000000000000000000000000000008152600401610a0c9061140f565b60405180910390fd5b3373ffffffffffffffffffffffffffffffffffffffff168173ffffffffffffffffffffffffffffffffffffffff167f40c7749b16fdfb0d550f20273a7767875059d647af94f5a9610c63ad73dcc79f60405160405180910390a350565b60405180606001604052806000815260200160008152602001606081525090565b6000604051905090565b600080fd5b600080fd5b600073ffffffffffffffffffffffffffffffffffffffff82169050919050565b6000610ad282610aa7565b9050919050565b610ae281610ac7565b8114610aed57600080fd5b50565b600081359050610aff81610ad9565b92915050565b600060208284031215610b1b57610b1a610a9d565b5b6000610b2984828501610af0565b91505092915050565b6000819050919050565b610b4581610b32565b82525050565b6000604082019050610b606000830185610b3c565b610b6d6020830184610b3c565b9392505050565b60008060408385031215610b8b57610b8a610a9d565b5b6000610b9985828601610af0565b9250506020610baa85828601610af0565b9150509250929050565b60008115159050919050565b610bc981610bb4565b82525050565b6000602082019050610be46000830184610bc0565b92915050565b600081519050919050565b600082825260208201905092915050565b60005b83811015610c24578082015181840152602081019050610c09565b60008484015250505050565b6000601f19601f8301169050919050565b6000610c4c82610bea565b610c568185610bf5565b9350610c66818560208601610c06565b610c6f81610c30565b840191505092915050565b60006020820190508181036000830152610c948184610c41565b905092915050565b7f596f7520617265206e6f7420617574686f72697a656420746f2076696577207460008201527f6869732070617469656e742773207265636f7264730000000000000000000000602082015250565b6000610cf8603583610bf5565b9150610d0382610c9c565b604082019050919050565b60006020820190508181036000830152610d2781610ceb565b9050919050565b610d3781610ac7565b82525050565b6000602082019050610d526000830184610d2e565b92915050565b610d6181610b32565b8114610d6c57600080fd5b50565b600081519050610d7e81610d58565b92915050565b600080fd5b600080fd5b7f4e487b7100000000000000000000000000000000000000000000000000000000600052604160045260246000fd5b610dc682610c30565b810181811067ffffffffffffffff82111715610de557610de4610d8e565b5b80604052505050565b6000610df8610a93565b9050610e048282610dbd565b919050565b600067ffffffffffffffff821115610e2457610e23610d8e565b5b610e2d82610c30565b9050602081019050919050565b6000610e4d610e4884610e09565b610dee565b905082815260208101848484011115610e6957610e68610d89565b5b610e74848285610c06565b509392505050565b600082601f830112610e9157610e90610d84565b5b8151610ea1848260208601610e3a565b91505092915050565b600080600060608486031215610ec357610ec2610a9d565b5b6000610ed186828701610d6f565b9350506020610ee286828701610d6f565b925050604084015167ffffffffffffffff811115610f0357610f02610aa2565b5b610f0f86828701610e7c565b9150509250925092565b7f4e487b7100000000000000000000000000000000000000000000000000000000600052602260045260246000fd5b60006002820490506001821680610f6057607f821691505b602082108103610f7357610f72610f19565b5b50919050565b60008190508160005260206000209050919050565b60006020601f8301049050919050565b600082821b905092915050565b600060088302610fdb7fffffffffffffffffffffffffffffffffffffffffffffffffffffffffffffffff82610f9e565b610fe58683610f9e565b95508019841693508086168417925050509392505050565b6000819050919050565b600061102261101d61101884610b32565b610ffd565b610b32565b9050919050565b6000819050919050565b61103c83611007565b61105061104882611029565b848454610fab565b825550505050565b600090565b611065611058565b611070818484611033565b505050565b5b818110156110945761108960008261105d565b600181019050611076565b5050565b601f8211156110d9576110aa81610f79565b6110b384610f8e565b810160208510156110c2578190505b6110d66110ce85610f8e565b830182611075565b50505b505050565b600082821c905092915050565b60006110fc600019846008026110de565b1980831691505092915050565b600061111583836110eb565b9150826002028217905092915050565b61112e82610bea565b67ffffffffffffffff81111561114757611146610d8e565b5b6111518254610f48565b61115c828285611098565b600060209050601f83116001811461118f576000841561117d578287015190505b6111878582611109565b8655506111ef565b601f19841661119d86610f79565b60005b828110156111c5578489015182556001820191506020850194506020810190506111a0565b868310156111e257848901516111de601f8916826110eb565b8355505b6001600288020188555050505b505050505050565b6000819050919050565b61120a816111f7565b811461121557600080fd5b50565b60008151905061122781611201565b92915050565b60006020828403121561124357611242610a9d565b5b600061125184828501611218565b91505092915050565b611263816111f7565b82525050565b600060408201905061127e600083018561125a565b61128b6020830184610d2e565b9392505050565b61129b81610bb4565b81146112a657600080fd5b50565b6000815190506112b881611292565b92915050565b6000602082840312156112d4576112d3610a9d565b5b60006112e2848285016112a9565b91505092915050565b7f4f6e6c792050617469656e742043616e204772616e7420416363657373000000600082015250565b6000611321601d83610bf5565b915061132c826112eb565b602082019050919050565b6000602082019050818103600083015261135081611314565b9050919050565b7f596f752063616e6e6f7420726571756573740000000000000000000000000000600082015250565b600061138d601283610bf5565b915061139882611357565b602082019050919050565b600060208201905081810360008301526113bc81611380565b9050919050565b7f41636365737320416c7265616479206772616e74656400000000000000000000600082015250565b60006113f9601683610bf5565b9150611404826113c3565b602082019050919050565b60006020820190508181036000830152611428816113ec565b905091905056fea2646970667358221220e45c1c971bc9fe1681682a01a189c72a891b5d514e7ca09a3095194dc70c626364736f6c6343000813003360806040523480156200001157600080fd5b50620000276000801b336200006e60201b60201c565b33600160006101000a81548173ffffffffffffffffffffffffffffffffffffffff021916908373ffffffffffffffffffffffffffffffffffffffff160217905550620001e7565b6200008082826200008460201b60201c565b5050565b6200009682826200017560201b60201c565b6200017157600160008084815260200190815260200160002060000160008373ffffffffffffffffffffffffffffffffffffffff1673ffffffffffffffffffffffffffffffffffffffff16815260200190815260200160002060006101000a81548160ff02191690831515021790555062000116620001df60201b60201c565b73ffffffffffffffffffffffffffffffffffffffff168173ffffffffffffffffffffffffffffffffffffffff16837f2f8788117e7eff1d82e926ec794901d17c78024a50270940304540a733656f0d60405160405180910390a45b5050565b600080600084815260200190815260200160002060000160008373ffffffffffffffffffffffffffffffffffffffff1673ffffffffffffffffffffffffffffffffffffffff16815260200190815260200160002060009054906101000a900460ff16905092915050565b600033905090565b61229880620001f76000396000f3fe608060405234801561001057600080fd5b506004361061010b5760003560e01c80633c1123dc116100a257806391d148541161007157806391d14854146102cf578063a217fddf146102ff578063ac5cb97d1461031d578063cfc117821461033b578063d547741f146103575761010b565b80633c1123dc1461025d5780634a4f94881461027b5780636ef3027b1461029757806380911fa4146102b35761010b565b8063266cf109116100de578063266cf109146101d35780632f2ff15d146101f35780632fea1a6f1461020f57806336568abe146102415761010b565b806301ffc9a7146101105780630869cfbc14610140578063106d617014610171578063248a9ca3146101a3575b600080fd5b61012a6004803603810190610125919061132a565b610373565b6040516101379190611372565b60405180910390f35b61015a600480360381019061015591906113eb565b6103ed565b6040516101689291906114a8565b60405180910390f35b61018b600480360381019061018691906113eb565b610521565b60405161019a939291906114f8565b60405180910390f35b6101bd60048036038101906101b8919061156c565b6105d3565b6040516101ca91906115a8565b60405180910390f35b6101db6105f2565b6040516101ea939291906114f8565b60405180910390f35b61020d600480360381019061020891906115c3565b610692565b005b610229600480360381019061022491906113eb565b6106b3565b604051610238939291906114f8565b60405180910390f35b61025b600480360381019061025691906115c3565b610838565b005b6102656108bb565b6040516102729190611603565b60405180910390f35b61029560048036038101906102909190611651565b610949565b005b6102b160048036038101906102ac91906117c6565b610a4c565b005b6102cd60048036038101906102c8919061180f565b610b19565b005b6102e960048036038101906102e491906115c3565b610bca565b6040516102f69190611372565b60405180910390f35b610307610c34565b60405161031491906115a8565b60405180910390f35b610325610c3b565b60405161033291906115a8565b60405180910390f35b61035560048036038101906103509190611887565b610c5f565b005b610371600480360381019061036c91906115c3565b610d68565b005b60007f7965db0b000000000000000000000000000000000000000000000000000000007bffffffffffffffffffffffffffffffffffffffffffffffffffffffff1916827bffffffffffffffffffffffffffffffffffffffffffffffffffffffff191614806103e657506103e582610d89565b5b9050919050565b600260205280600052604060002060009150905080600001805461041090611909565b80601f016020809104026020016040519081016040528092919081815260200182805461043c90611909565b80156104895780601f1061045e57610100808354040283529160200191610489565b820191906000526020600020905b81548152906001019060200180831161046c57829003601f168201915b50505050509080600101805461049e90611909565b80601f01602080910402602001604051908101604052809291908181526020018280546104ca90611909565b80156105175780601f106104ec57610100808354040283529160200191610517565b820191906000526020600020905b8154815290600101906020018083116104fa57829003601f168201915b5050505050905082565b600760205280600052604060002060009150905080600001549080600101549080600201805461055090611909565b80601f016020809104026020016040519081016040528092919081815260200182805461057c90611909565b80156105c95780601f1061059e576101008083540402835291602001916105c9565b820191906000526020600020905b8154815290600101906020018083116105ac57829003601f168201915b5050505050905083565b6000806000838152602001908152602001600020600101549050919050565b600380600001549080600101549080600201805461060f90611909565b80601f016020809104026020016040519081016040528092919081815260200182805461063b90611909565b80156106885780601f1061065d57610100808354040283529160200191610688565b820191906000526020600020905b81548152906001019060200180831161066b57829003601f168201915b5050505050905083565b61069b826105d3565b6106a481610df3565b6106ae8383610e07565b505050565b60008060606106e27f72606200fac42b7dc86b75901d61ecfab2a4a1a6eded478b97a428094891abed33610bca565b610721576040517f08c379a000000000000000000000000000000000000000000000000000000000815260040161071890611986565b60405180910390fd5b600760008573ffffffffffffffffffffffffffffffffffffffff1673ffffffffffffffffffffffffffffffffffffffff168152602001908152602001600020600360008201548160000155600182015481600101556002820181600201908161078a9190611b68565b5090505060036000015460036001015460036002018080546107ab90611909565b80601f01602080910402602001604051908101604052809291908181526020018280546107d790611909565b80156108245780601f106107f957610100808354040283529160200191610824565b820191906000526020600020905b81548152906001019060200180831161080757829003601f168201915b505050505090509250925092509193909250565b610840610ee7565b73ffffffffffffffffffffffffffffffffffffffff168173ffffffffffffffffffffffffffffffffffffffff16146108ad576040517f08c379a00000000000000000000000000000000000000000000000000000000081526004016108a490611cc2565b60405180910390fd5b6108b78282610eef565b5050565b600680546108c890611909565b80601f01602080910402602001604051908101604052809291908181526020018280546108f490611909565b80156109415780601f1061091657610100808354040283529160200191610941565b820191906000526020600020905b81548152906001019060200180831161092457829003601f168201915b505050505081565b6109737f72606200fac42b7dc86b75901d61ecfab2a4a1a6eded478b97a428094891abed33610bca565b6109b2576040517f08c379a00000000000000000000000000000000000000000000000000000000081526004016109a990611d54565b60405180910390fd5b604051806060016040528083815260200182815260200160405180602001604052806000815250815250600760003373ffffffffffffffffffffffffffffffffffffffff1673ffffffffffffffffffffffffffffffffffffffff16815260200190815260200160002060008201518160000155602082015181600101556040820151816002019081610a449190611d74565b509050505050565b610a767f72606200fac42b7dc86b75901d61ecfab2a4a1a6eded478b97a428094891abed33610bca565b610ab5576040517f08c379a0000000000000000000000000000000000000000000000000000000008152600401610aac90611d54565b60405180910390fd5b8060069081610ac49190611d74565b506006600760003373ffffffffffffffffffffffffffffffffffffffff1673ffffffffffffffffffffffffffffffffffffffff1681526020019081526020016000206002019081610b159190611e71565b5050565b604051806040016040528083815260200182815250600260003373ffffffffffffffffffffffffffffffffffffffff1673ffffffffffffffffffffffffffffffffffffffff1681526020019081526020016000206000820151816000019081610b829190611d74565b506020820151816001019081610b989190611d74565b50905050610bc67f72606200fac42b7dc86b75901d61ecfab2a4a1a6eded478b97a428094891abed33610692565b5050565b600080600084815260200190815260200160002060000160008373ffffffffffffffffffffffffffffffffffffffff1673ffffffffffffffffffffffffffffffffffffffff16815260200190815260200160002060009054906101000a900460ff16905092915050565b6000801b81565b7f72606200fac42b7dc86b75901d61ecfab2a4a1a6eded478b97a428094891abed81565b3373ffffffffffffffffffffffffffffffffffffffff168373ffffffffffffffffffffffffffffffffffffffff1614610ccd576040517f08c379a0000000000000000000000000000000000000000000000000000000008152600401610cc490611fcb565b60405180910390fd5b604051806060016040528083815260200182815260200160405180602001604052806000815250815250600760008573ffffffffffffffffffffffffffffffffffffffff1673ffffffffffffffffffffffffffffffffffffffff16815260200190815260200160002060008201518160000155602082015181600101556040820151816002019081610d5f9190611d74565b50905050505050565b610d71826105d3565b610d7a81610df3565b610d848383610eef565b505050565b60007f01ffc9a7000000000000000000000000000000000000000000000000000000007bffffffffffffffffffffffffffffffffffffffffffffffffffffffff1916827bffffffffffffffffffffffffffffffffffffffffffffffffffffffff1916149050919050565b610e0481610dff610ee7565b610fd0565b50565b610e118282610bca565b610ee357600160008084815260200190815260200160002060000160008373ffffffffffffffffffffffffffffffffffffffff1673ffffffffffffffffffffffffffffffffffffffff16815260200190815260200160002060006101000a81548160ff021916908315150217905550610e88610ee7565b73ffffffffffffffffffffffffffffffffffffffff168173ffffffffffffffffffffffffffffffffffffffff16837f2f8788117e7eff1d82e926ec794901d17c78024a50270940304540a733656f0d60405160405180910390a45b5050565b600033905090565b610ef98282610bca565b15610fcc57600080600084815260200190815260200160002060000160008373ffffffffffffffffffffffffffffffffffffffff1673ffffffffffffffffffffffffffffffffffffffff16815260200190815260200160002060006101000a81548160ff021916908315150217905550610f71610ee7565b73ffffffffffffffffffffffffffffffffffffffff168173ffffffffffffffffffffffffffffffffffffffff16837ff6391f5c32d9c69d2a47ea670b442974b53935d1edc7fd64eb21e047a839171b60405160405180910390a45b5050565b610fda8282610bca565b61105157610fe781611055565b610ff58360001c6020611082565b6040516020016110069291906120bf565b6040516020818303038152906040526040517f08c379a00000000000000000000000000000000000000000000000000000000081526004016110489190611603565b60405180910390fd5b5050565b606061107b8273ffffffffffffffffffffffffffffffffffffffff16601460ff16611082565b9050919050565b6060600060028360026110959190612128565b61109f919061216a565b67ffffffffffffffff8111156110b8576110b761169b565b5b6040519080825280601f01601f1916602001820160405280156110ea5781602001600182028036833780820191505090505b5090507f3000000000000000000000000000000000000000000000000000000000000000816000815181106111225761112161219e565b5b60200101907effffffffffffffffffffffffffffffffffffffffffffffffffffffffffffff1916908160001a9053507f7800000000000000000000000000000000000000000000000000000000000000816001815181106111865761118561219e565b5b60200101907effffffffffffffffffffffffffffffffffffffffffffffffffffffffffffff1916908160001a905350600060018460026111c69190612128565b6111d0919061216a565b90505b6001811115611270577f3031323334353637383961626364656600000000000000000000000000000000600f8616601081106112125761121161219e565b5b1a60f81b8282815181106112295761122861219e565b5b60200101907effffffffffffffffffffffffffffffffffffffffffffffffffffffffffffff1916908160001a905350600485901c945080611269906121cd565b90506111d3565b50600084146112b4576040517f08c379a00000000000000000000000000000000000000000000000000000000081526004016112ab90612242565b60405180910390fd5b8091505092915050565b6000604051905090565b600080fd5b600080fd5b60007fffffffff0000000000000000000000000000000000000000000000000000000082169050919050565b611307816112d2565b811461131257600080fd5b50565b600081359050611324816112fe565b92915050565b6000602082840312156113405761133f6112c8565b5b600061134e84828501611315565b91505092915050565b60008115159050919050565b61136c81611357565b82525050565b60006020820190506113876000830184611363565b92915050565b600073ffffffffffffffffffffffffffffffffffffffff82169050919050565b60006113b88261138d565b9050919050565b6113c8816113ad565b81146113d357600080fd5b50565b6000813590506113e5816113bf565b92915050565b600060208284031215611401576114006112c8565b5b600061140f848285016113d6565b91505092915050565b600081519050919050565b600082825260208201905092915050565b60005b83811015611452578082015181840152602081019050611437565b60008484015250505050565b6000601f19601f8301169050919050565b600061147a82611418565b6114848185611423565b9350611494818560208601611434565b61149d8161145e565b840191505092915050565b600060408201905081810360008301526114c2818561146f565b905081810360208301526114d6818461146f565b90509392505050565b6000819050919050565b6114f2816114df565b82525050565b600060608201905061150d60008301866114e9565b61151a60208301856114e9565b818103604083015261152c818461146f565b9050949350505050565b6000819050919050565b61154981611536565b811461155457600080fd5b50565b60008135905061156681611540565b92915050565b600060208284031215611582576115816112c8565b5b600061159084828501611557565b91505092915050565b6115a281611536565b82525050565b60006020820190506115bd6000830184611599565b92915050565b600080604083850312156115da576115d96112c8565b5b60006115e885828601611557565b92505060206115f9858286016113d6565b9150509250929050565b6000602082019050818103600083015261161d818461146f565b905092915050565b61162e816114df565b811461163957600080fd5b50565b60008135905061164b81611625565b92915050565b60008060408385031215611668576116676112c8565b5b60006116768582860161163c565b92505060206116878582860161163c565b9150509250929050565b600080fd5b600080fd5b7f4e487b7100000000000000000000000000000000000000000000000000000000600052604160045260246000fd5b6116d38261145e565b810181811067ffffffffffffffff821117156116f2576116f161169b565b5b80604052505050565b60006117056112be565b905061171182826116ca565b919050565b600067ffffffffffffffff8211156117315761173061169b565b5b61173a8261145e565b9050602081019050919050565b82818337600083830152505050565b600061176961176484611716565b6116fb565b90508281526020810184848401111561178557611784611696565b5b611790848285611747565b509392505050565b600082601f8301126117ad576117ac611691565b5b81356117bd848260208601611756565b91505092915050565b6000602082840312156117dc576117db6112c8565b5b600082013567ffffffffffffffff8111156117fa576117f96112cd565b5b61180684828501611798565b91505092915050565b60008060408385031215611826576118256112c8565b5b600083013567ffffffffffffffff811115611844576118436112cd565b5b61185085828601611798565b925050602083013567ffffffffffffffff811115611871576118706112cd565b5b61187d85828601611798565b9150509250929050565b6000806000606084860312156118a05761189f6112c8565b5b60006118ae868287016113d6565b93505060206118bf8682870161163c565b92505060406118d08682870161163c565b9150509250925092565b7f4e487b7100000000000000000000000000000000000000000000000000000000600052602260045260246000fd5b6000600282049050600182168061192157607f821691505b602082108103611934576119336118da565b5b50919050565b7f43616e277420616363657373204d65646963616c205265636f72640000000000600082015250565b6000611970601b83611423565b915061197b8261193a565b602082019050919050565b6000602082019050818103600083015261199f81611963565b9050919050565b6000815490506119b581611909565b9050919050565b60008190508160005260206000209050919050565b60006020601f8301049050919050565b600082821b905092915050565b600060088302611a1e7fffffffffffffffffffffffffffffffffffffffffffffffffffffffffffffffff826119e1565b611a2886836119e1565b95508019841693508086168417925050509392505050565b6000819050919050565b6000611a65611a60611a5b846114df565b611a40565b6114df565b9050919050565b6000819050919050565b611a7f83611a4a565b611a93611a8b82611a6c565b8484546119ee565b825550505050565b600090565b611aa8611a9b565b611ab3818484611a76565b505050565b5b81811015611ad757611acc600082611aa0565b600181019050611ab9565b5050565b601f821115611b1c57611aed816119bc565b611af6846119d1565b81016020851015611b05578190505b611b19611b11856119d1565b830182611ab8565b50505b505050565b600082821c905092915050565b6000611b3f60001984600802611b21565b1980831691505092915050565b6000611b588383611b2e565b9150826002028217905092915050565b818103611b76575050611c4e565b611b7f826119a6565b67ffffffffffffffff811115611b9857611b9761169b565b5b611ba28254611909565b611bad828285611adb565b6000601f831160018114611bdc5760008415611bca578287015490505b611bd48582611b4c565b865550611c47565b601f198416611bea876119bc565b9650611bf5866119bc565b60005b82811015611c1d57848901548255600182019150600185019450602081019050611bf8565b86831015611c3a5784890154611c36601f891682611b2e565b8355505b6001600288020188555050505b5050505050505b565b7f416363657373436f6e74726f6c3a2063616e206f6e6c792072656e6f756e636560008201527f20726f6c657320666f722073656c660000000000000000000000000000000000602082015250565b6000611cac602f83611423565b9150611cb782611c50565b604082019050919050565b60006020820190508181036000830152611cdb81611c9f565b9050919050565b7f4f6e6c792050617469656e742043616e204d616b65205265636f72642043686160008201527f6e67650000000000000000000000000000000000000000000000000000000000602082015250565b6000611d3e602383611423565b9150611d4982611ce2565b604082019050919050565b60006020820190508181036000830152611d6d81611d31565b9050919050565b611d7d82611418565b67ffffffffffffffff811115611d9657611d9561169b565b5b611da08254611909565b611dab828285611adb565b600060209050601f831160018114611dde5760008415611dcc578287015190505b611dd68582611b4c565b865550611e3e565b601f198416611dec866119bc565b60005b82811015611e1457848901518255600182019150602085019450602081019050611def565b86831015611e315784890151611e2d601f891682611b2e565b8355505b6001600288020188555050505b505050505050565b600081549050611e5581611909565b9050919050565b60008190508160005260206000209050919050565b818103611e7f575050611f57565b611e8882611e46565b67ffffffffffffffff811115611ea157611ea061169b565b5b611eab8254611909565b611eb6828285611adb565b6000601f831160018114611ee55760008415611ed3578287015490505b611edd8582611b4c565b865550611f50565b601f198416611ef387611e5c565b9650611efe866119bc565b60005b82811015611f2657848901548255600182019150600185019450602081019050611f01565b86831015611f435784890154611f3f601f891682611b2e565b8355505b6001600288020188555050505b5050505050505b565b7f4f6e6c792050617469656e742043616e204d616b652041205265636f7264204360008201527f68616e6765000000000000000000000000000000000000000000000000000000602082015250565b6000611fb5602583611423565b9150611fc082611f59565b604082019050919050565b60006020820190508181036000830152611fe481611fa8565b9050919050565b600081905092915050565b7f416363657373436f6e74726f6c3a206163636f756e7420000000000000000000600082015250565b600061202c601783611feb565b915061203782611ff6565b601782019050919050565b600061204d82611418565b6120578185611feb565b9350612067818560208601611434565b80840191505092915050565b7f206973206d697373696e6720726f6c6520000000000000000000000000000000600082015250565b60006120a9601183611feb565b91506120b482612073565b601182019050919050565b60006120ca8261201f565b91506120d68285612042565b91506120e18261209c565b91506120ed8284612042565b91508190509392505050565b7f4e487b7100000000000000000000000000000000000000000000000000000000600052601160045260246000fd5b6000612133826114df565b915061213e836114df565b925082820261214c816114df565b91508282048414831517612163576121626120f9565b5b5092915050565b6000612175826114df565b9150612180836114df565b9250828201905080821115612198576121976120f9565b5b92915050565b7f4e487b7100000000000000000000000000000000000000000000000000000000600052603260045260246000fd5b60006121d8826114df565b9150600082036121eb576121ea6120f9565b5b600182039050919050565b7f537472696e67733a20686578206c656e67746820696e73756666696369656e74600082015250565b600061222c602083611423565b9150612237826121f6565b602082019050919050565b6000602082019050818103600083015261225b8161221f565b905091905056fea264697066735822122004f074535043ae99836a0f8b8db4cbbef8c899c3056da0e491d0f538a077b1fd64736f6c6343000813003360806040523480156200001157600080fd5b50620000276000801b336200006e60201b60201c565b33600160006101000a81548173ffffffffffffffffffffffffffffffffffffffff021916908373ffffffffffffffffffffffffffffffffffffffff160217905550620001e7565b6200008082826200008460201b60201c565b5050565b6200009682826200017560201b60201c565b6200017157600160008084815260200190815260200160002060000160008373ffffffffffffffffffffffffffffffffffffffff1673ffffffffffffffffffffffffffffffffffffffff16815260200190815260200160002060006101000a81548160ff02191690831515021790555062000116620001df60201b60201c565b73ffffffffffffffffffffffffffffffffffffffff168173ffffffffffffffffffffffffffffffffffffffff16837f2f8788117e7eff1d82e926ec794901d17c78024a50270940304540a733656f0d60405160405180910390a45b5050565b600080600084815260200190815260200160002060000160008373ffffffffffffffffffffffffffffffffffffffff1673ffffffffffffffffffffffffffffffffffffffff16815260200190815260200160002060009054906101000a900460ff16905092915050565b600033905090565b61198d80620001f76000396000f3fe608060405234801561001057600080fd5b50600436106100a95760003560e01c8063833b46bb11610071578063833b46bb1461016457806391d1485414610180578063a217fddf146101b0578063a9583c22146101ce578063d547741f146101ff578063fec331f21461021b576100a9565b806301ffc9a7146100ae578063248a9ca3146100de5780632f2ff15d1461010e57806336568abe1461012a5780633aaa592014610146575b600080fd5b6100c860048036038101906100c39190610da3565b610239565b6040516100d59190610deb565b60405180910390f35b6100f860048036038101906100f39190610e3c565b6102b3565b6040516101059190610e78565b60405180910390f35b61012860048036038101906101239190610ef1565b6102d2565b005b610144600480360381019061013f9190610ef1565b6102f3565b005b61014e610376565b60405161015b91906110c7565b60405180910390f35b61017e6004803603810190610179919061121e565b6104f9565b005b61019a60048036038101906101959190610ef1565b610618565b6040516101a79190610deb565b60405180910390f35b6101b8610682565b6040516101c59190610e78565b60405180910390f35b6101e860048036038101906101e39190611296565b610689565b6040516101f692919061130d565b60405180910390f35b61021960048036038101906102149190610ef1565b6107bd565b005b6102236107de565b6040516102309190610e78565b60405180910390f35b60007f7965db0b000000000000000000000000000000000000000000000000000000007bffffffffffffffffffffffffffffffffffffffffffffffffffffffff1916827bffffffffffffffffffffffffffffffffffffffffffffffffffffffff191614806102ac57506102ab82610802565b5b9050919050565b6000806000838152602001908152602001600020600101549050919050565b6102db826102b3565b6102e48161086c565b6102ee8383610880565b505050565b6102fb610960565b73ffffffffffffffffffffffffffffffffffffffff168173ffffffffffffffffffffffffffffffffffffffff1614610368576040517f08c379a000000000000000000000000000000000000000000000000000000000815260040161035f906113b6565b60405180910390fd5b6103728282610968565b5050565b60606003805480602002602001604051908101604052809291908181526020016000905b828210156104f057838290600052602060002090600202016040518060400160405290816000820180546103cd90611405565b80601f01602080910402602001604051908101604052809291908181526020018280546103f990611405565b80156104465780601f1061041b57610100808354040283529160200191610446565b820191906000526020600020905b81548152906001019060200180831161042957829003601f168201915b5050505050815260200160018201805461045f90611405565b80601f016020809104026020016040519081016040528092919081815260200182805461048b90611405565b80156104d85780601f106104ad576101008083540402835291602001916104d8565b820191906000526020600020905b8154815290600101906020018083116104bb57829003601f168201915b5050505050815250508152602001906001019061039a565b50505050905090565b604051806040016040528083815260200182815250600260003373ffffffffffffffffffffffffffffffffffffffff1673ffffffffffffffffffffffffffffffffffffffff168152602001908152602001600020600082015181600001908161056291906115ec565b50602082015181600101908161057891906115ec565b509050506003604051806040016040528084815260200183815250908060018154018082558091505060019003906000526020600020906002020160009091909190915060008201518160000190816105d191906115ec565b5060208201518160010190816105e791906115ec565b5050506106147f0af1dac7dea2fd7f7738119cec7df099dfad49aa9d2e7d17ba6b60f63ae7411f336102d2565b5050565b600080600084815260200190815260200160002060000160008373ffffffffffffffffffffffffffffffffffffffff1673ffffffffffffffffffffffffffffffffffffffff16815260200190815260200160002060009054906101000a900460ff16905092915050565b6000801b81565b60026020528060005260406000206000915090508060000180546106ac90611405565b80601f01602080910402602001604051908101604052809291908181526020018280546106d890611405565b80156107255780601f106106fa57610100808354040283529160200191610725565b820191906000526020600020905b81548152906001019060200180831161070857829003601f168201915b50505050509080600101805461073a90611405565b80601f016020809104026020016040519081016040528092919081815260200182805461076690611405565b80156107b35780601f10610788576101008083540402835291602001916107b3565b820191906000526020600020905b81548152906001019060200180831161079657829003601f168201915b5050505050905082565b6107c6826102b3565b6107cf8161086c565b6107d98383610968565b505050565b7f0af1dac7dea2fd7f7738119cec7df099dfad49aa9d2e7d17ba6b60f63ae7411f81565b60007f01ffc9a7000000000000000000000000000000000000000000000000000000007bffffffffffffffffffffffffffffffffffffffffffffffffffffffff1916827bffffffffffffffffffffffffffffffffffffffffffffffffffffffff1916149050919050565b61087d81610878610960565b610a49565b50565b61088a8282610618565b61095c57600160008084815260200190815260200160002060000160008373ffffffffffffffffffffffffffffffffffffffff1673ffffffffffffffffffffffffffffffffffffffff16815260200190815260200160002060006101000a81548160ff021916908315150217905550610901610960565b73ffffffffffffffffffffffffffffffffffffffff168173ffffffffffffffffffffffffffffffffffffffff16837f2f8788117e7eff1d82e926ec794901d17c78024a50270940304540a733656f0d60405160405180910390a45b5050565b600033905090565b6109728282610618565b15610a4557600080600084815260200190815260200160002060000160008373ffffffffffffffffffffffffffffffffffffffff1673ffffffffffffffffffffffffffffffffffffffff16815260200190815260200160002060006101000a81548160ff0219169083151502179055506109ea610960565b73ffffffffffffffffffffffffffffffffffffffff168173ffffffffffffffffffffffffffffffffffffffff16837ff6391f5c32d9c69d2a47ea670b442974b53935d1edc7fd64eb21e047a839171b60405160405180910390a45b5050565b610a538282610618565b610aca57610a6081610ace565b610a6e8360001c6020610afb565b604051602001610a7f929190611792565b6040516020818303038152906040526040517f08c379a0000000000000000000000000000000000000000000000000000000008152600401610ac191906117cc565b60405180910390fd5b5050565b6060610af48273ffffffffffffffffffffffffffffffffffffffff16601460ff16610afb565b9050919050565b606060006002836002610b0e919061181d565b610b18919061185f565b67ffffffffffffffff811115610b3157610b306110f3565b5b6040519080825280601f01601f191660200182016040528015610b635781602001600182028036833780820191505090505b5090507f300000000000000000000000000000000000000000000000000000000000000081600081518110610b9b57610b9a611893565b5b60200101907effffffffffffffffffffffffffffffffffffffffffffffffffffffffffffff1916908160001a9053507f780000000000000000000000000000000000000000000000000000000000000081600181518110610bff57610bfe611893565b5b60200101907effffffffffffffffffffffffffffffffffffffffffffffffffffffffffffff1916908160001a90535060006001846002610c3f919061181d565b610c49919061185f565b90505b6001811115610ce9577f3031323334353637383961626364656600000000000000000000000000000000600f861660108110610c8b57610c8a611893565b5b1a60f81b828281518110610ca257610ca1611893565b5b60200101907effffffffffffffffffffffffffffffffffffffffffffffffffffffffffffff1916908160001a905350600485901c945080610ce2906118c2565b9050610c4c565b5060008414610d2d576040517f08c379a0000000000000000000000000000000000000000000000000000000008152600401610d2490611937565b60405180910390fd5b8091505092915050565b6000604051905090565b600080fd5b600080fd5b60007fffffffff0000000000000000000000000000000000000000000000000000000082169050919050565b610d8081610d4b565b8114610d8b57600080fd5b50565b600081359050610d9d81610d77565b92915050565b600060208284031215610db957610db8610d41565b5b6000610dc784828501610d8e565b91505092915050565b60008115159050919050565b610de581610dd0565b82525050565b6000602082019050610e006000830184610ddc565b92915050565b6000819050919050565b610e1981610e06565b8114610e2457600080fd5b50565b600081359050610e3681610e10565b92915050565b600060208284031215610e5257610e51610d41565b5b6000610e6084828501610e27565b91505092915050565b610e7281610e06565b82525050565b6000602082019050610e8d6000830184610e69565b92915050565b600073ffffffffffffffffffffffffffffffffffffffff82169050919050565b6000610ebe82610e93565b9050919050565b610ece81610eb3565b8114610ed957600080fd5b50565b600081359050610eeb81610ec5565b92915050565b60008060408385031215610f0857610f07610d41565b5b6000610f1685828601610e27565b9250506020610f2785828601610edc565b9150509250929050565b600081519050919050565b600082825260208201905092915050565b6000819050602082019050919050565b600081519050919050565b600082825260208201905092915050565b60005b83811015610f97578082015181840152602081019050610f7c565b60008484015250505050565b6000601f19601f8301169050919050565b6000610fbf82610f5d565b610fc98185610f68565b9350610fd9818560208601610f79565b610fe281610fa3565b840191505092915050565b6000604083016000830151848203600086015261100a8282610fb4565b915050602083015184820360208601526110248282610fb4565b9150508091505092915050565b600061103d8383610fed565b905092915050565b6000602082019050919050565b600061105d82610f31565b6110678185610f3c565b93508360208202850161107985610f4d565b8060005b858110156110b557848403895281516110968582611031565b94506110a183611045565b925060208a0199505060018101905061107d565b50829750879550505050505092915050565b600060208201905081810360008301526110e18184611052565b905092915050565b600080fd5b600080fd5b7f4e487b7100000000000000000000000000000000000000000000000000000000600052604160045260246000fd5b61112b82610fa3565b810181811067ffffffffffffffff8211171561114a576111496110f3565b5b80604052505050565b600061115d610d37565b90506111698282611122565b919050565b600067ffffffffffffffff821115611189576111886110f3565b5b61119282610fa3565b9050602081019050919050565b82818337600083830152505050565b60006111c16111bc8461116e565b611153565b9050828152602081018484840111156111dd576111dc6110ee565b5b6111e884828561119f565b509392505050565b600082601f830112611205576112046110e9565b5b81356112158482602086016111ae565b91505092915050565b6000806040838503121561123557611234610d41565b5b600083013567ffffffffffffffff81111561125357611252610d46565b5b61125f858286016111f0565b925050602083013567ffffffffffffffff8111156112805761127f610d46565b5b61128c858286016111f0565b9150509250929050565b6000602082840312156112ac576112ab610d41565b5b60006112ba84828501610edc565b91505092915050565b600082825260208201905092915050565b60006112df82610f5d565b6112e981856112c3565b93506112f9818560208601610f79565b61130281610fa3565b840191505092915050565b6000604082019050818103600083015261132781856112d4565b9050818103602083015261133b81846112d4565b90509392505050565b7f416363657373436f6e74726f6c3a2063616e206f6e6c792072656e6f756e636560008201527f20726f6c657320666f722073656c660000000000000000000000000000000000602082015250565b60006113a0602f836112c3565b91506113ab82611344565b604082019050919050565b600060208201905081810360008301526113cf81611393565b9050919050565b7f4e487b7100000000000000000000000000000000000000000000000000000000600052602260045260246000fd5b6000600282049050600182168061141d57607f821691505b6020821081036114305761142f6113d6565b5b50919050565b60008190508160005260206000209050919050565b60006020601f8301049050919050565b600082821b905092915050565b6000600883026114987fffffffffffffffffffffffffffffffffffffffffffffffffffffffffffffffff8261145b565b6114a2868361145b565b95508019841693508086168417925050509392505050565b6000819050919050565b6000819050919050565b60006114e96114e46114df846114ba565b6114c4565b6114ba565b9050919050565b6000819050919050565b611503836114ce565b61151761150f826114f0565b848454611468565b825550505050565b600090565b61152c61151f565b6115378184846114fa565b505050565b5b8181101561155b57611550600082611524565b60018101905061153d565b5050565b601f8211156115a05761157181611436565b61157a8461144b565b81016020851015611589578190505b61159d6115958561144b565b83018261153c565b50505b505050565b600082821c905092915050565b60006115c3600019846008026115a5565b1980831691505092915050565b60006115dc83836115b2565b9150826002028217905092915050565b6115f582610f5d565b67ffffffffffffffff81111561160e5761160d6110f3565b5b6116188254611405565b61162382828561155f565b600060209050601f8311600181146116565760008415611644578287015190505b61164e85826115d0565b8655506116b6565b601f19841661166486611436565b60005b8281101561168c57848901518255600182019150602085019450602081019050611667565b868310156116a957848901516116a5601f8916826115b2565b8355505b6001600288020188555050505b505050505050565b600081905092915050565b7f416363657373436f6e74726f6c3a206163636f756e7420000000000000000000600082015250565b60006116ff6017836116be565b915061170a826116c9565b601782019050919050565b600061172082610f5d565b61172a81856116be565b935061173a818560208601610f79565b80840191505092915050565b7f206973206d697373696e6720726f6c6520000000000000000000000000000000600082015250565b600061177c6011836116be565b915061178782611746565b601182019050919050565b600061179d826116f2565b91506117a98285611715565b91506117b48261176f565b91506117c08284611715565b91508190509392505050565b600060208201905081810360008301526117e681846112d4565b905092915050565b7f4e487b7100000000000000000000000000000000000000000000000000000000600052601160045260246000fd5b6000611828826114ba565b9150611833836114ba565b9250828202611841816114ba565b91508282048414831517611858576118576117ee565b5b5092915050565b600061186a826114ba565b9150611875836114ba565b925082820190508082111561188d5761188c6117ee565b5b92915050565b7f4e487b7100000000000000000000000000000000000000000000000000000000600052603260045260246000fd5b60006118cd826114ba565b9150600082036118e0576118df6117ee565b5b600182039050919050565b7f537472696e67733a20686578206c656e67746820696e73756666696369656e74600082015250565b60006119216020836112c3565b915061192c826118eb565b602082019050919050565b6000602082019050818103600083015261195081611914565b905091905056fea2646970667358221220a76dbda994aa5ebf272c1634054a24318e6e77787bf7b15311dc6a4b3b277f7664736f6c63430008130033",
  "linkReferences": {},
  "deployedLinkReferences": {}
}