{
  "_format": "hh-sol-artifact-1",
  "contractName": "PatientManagement",
  "sourceName": "contracts/PatientManagement.sol",
  "abi": [
    {
      "inputs": [],
      "stateMutability": "nonpayable",
      "type": "constructor"
    },
    {
      "anonymous": false,
      "inputs": [
        {
          "indexed": true,
          "internalType": "bytes32",
          "name": "role",
          "type": "bytes32"
        },
        {
          "indexed": true,
          "internalType": "bytes32",
          "name": "previousAdminRole",
          "type": "bytes32"
        },
        {
          "indexed": true,
          "internalType": "bytes32",
          "name": "newAdminRole",
          "type": "bytes32"
        }
      ],
      "name": "RoleAdminChanged",
      "type": "event"
    },
    {
      "anonymous": false,
      "inputs": [
        {
          "indexed": true,
          "internalType": "bytes32",
          "name": "role",
          "type": "bytes32"
        },
        {
          "indexed": true,
          "internalType": "address",
          "name": "account",
          "type": "address"
        },
        {
          "indexed": true,
          "internalType": "address",
          "name": "sender",
          "type": "address"
        }
      ],
      "name": "RoleGranted",
      "type": "event"
    },
    {
      "anonymous": false,
      "inputs": [
        {
          "indexed": true,
          "internalType": "bytes32",
          "name": "role",
          "type": "bytes32"
        },
        {
          "indexed": true,
          "internalType": "address",
          "name": "account",
          "type": "address"
        },
        {
          "indexed": true,
          "internalType": "address",
          "name": "sender",
          "type": "address"
        }
      ],
      "name": "RoleRevoked",
      "type": "event"
    },
    {
      "inputs": [],
      "name": "DEFAULT_ADMIN_ROLE",
      "outputs": [
        {
          "internalType": "bytes32",
          "name": "",
          "type": "bytes32"
        }
      ],
      "stateMutability": "view",
      "type": "function"
    },
    {
      "inputs": [],
      "name": "PATIENT_ROLE",
      "outputs": [
        {
          "internalType": "bytes32",
          "name": "",
          "type": "bytes32"
        }
      ],
      "stateMutability": "view",
      "type": "function"
    },
    {
      "inputs": [
        {
          "internalType": "string",
          "name": "_imageHash",
          "type": "string"
        }
      ],
      "name": "addImageHash",
      "outputs": [],
      "stateMutability": "nonpayable",
      "type": "function"
    },
    {
      "inputs": [
        {
          "internalType": "uint256",
          "name": "_height",
          "type": "uint256"
        },
        {
          "internalType": "uint256",
          "name": "_weight",
          "type": "uint256"
        }
      ],
      "name": "createMedicalRecord",
      "outputs": [],
      "stateMutability": "nonpayable",
      "type": "function"
    },
    {
      "inputs": [
        {
          "internalType": "address",
          "name": "_patientAddress",
          "type": "address"
        }
      ],
      "name": "getMedicalRecord",
      "outputs": [
        {
          "internalType": "uint256",
          "name": "",
          "type": "uint256"
        },
        {
          "internalType": "uint256",
          "name": "",
          "type": "uint256"
        },
        {
          "internalType": "string",
          "name": "",
          "type": "string"
        }
      ],
      "stateMutability": "nonpayable",
      "type": "function"
    },
    {
      "inputs": [
        {
          "internalType": "bytes32",
          "name": "role",
          "type": "bytes32"
        }
      ],
      "name": "getRoleAdmin",
      "outputs": [
        {
          "internalType": "bytes32",
          "name": "",
          "type": "bytes32"
        }
      ],
      "stateMutability": "view",
      "type": "function"
    },
    {
      "inputs": [
        {
          "internalType": "bytes32",
          "name": "role",
          "type": "bytes32"
        },
        {
          "internalType": "address",
          "name": "account",
          "type": "address"
        }
      ],
      "name": "grantRole",
      "outputs": [],
      "stateMutability": "nonpayable",
      "type": "function"
    },
    {
      "inputs": [
        {
          "internalType": "bytes32",
          "name": "role",
          "type": "bytes32"
        },
        {
          "internalType": "address",
          "name": "account",
          "type": "address"
        }
      ],
      "name": "hasRole",
      "outputs": [
        {
          "internalType": "bool",
          "name": "",
          "type": "bool"
        }
      ],
      "stateMutability": "view",
      "type": "function"
    },
    {
      "inputs": [
        {
          "internalType": "address",
          "name": "",
          "type": "address"
        }
      ],
      "name": "medicalRecords",
      "outputs": [
        {
          "internalType": "uint256",
          "name": "height",
          "type": "uint256"
        },
        {
          "internalType": "uint256",
          "name": "weight",
          "type": "uint256"
        },
        {
          "internalType": "string",
          "name": "imageHash",
          "type": "string"
        }
      ],
      "stateMutability": "view",
      "type": "function"
    },
    {
      "inputs": [
        {
          "internalType": "address",
          "name": "",
          "type": "address"
        }
      ],
      "name": "patients",
      "outputs": [
        {
          "internalType": "string",
          "name": "patientName",
          "type": "string"
        },
        {
          "internalType": "string",
          "name": "contactInfo",
          "type": "string"
        }
      ],
      "stateMutability": "view",
      "type": "function"
    },
    {
      "inputs": [],
      "name": "record",
      "outputs": [
        {
          "internalType": "uint256",
          "name": "height",
          "type": "uint256"
        },
        {
          "internalType": "uint256",
          "name": "weight",
          "type": "uint256"
        },
        {
          "internalType": "string",
          "name": "imageHash",
          "type": "string"
        }
      ],
      "stateMutability": "view",
      "type": "function"
    },
    {
      "inputs": [
        {
          "internalType": "string",
          "name": "_patientName",
          "type": "string"
        },
        {
          "internalType": "string",
          "name": "_contactInfo",
          "type": "string"
        }
      ],
      "name": "registerPatient",
      "outputs": [],
      "stateMutability": "nonpayable",
      "type": "function"
    },
    {
      "inputs": [
        {
          "internalType": "bytes32",
          "name": "role",
          "type": "bytes32"
        },
        {
          "internalType": "address",
          "name": "account",
          "type": "address"
        }
      ],
      "name": "renounceRole",
      "outputs": [],
      "stateMutability": "nonpayable",
      "type": "function"
    },
    {
      "inputs": [
        {
          "internalType": "bytes32",
          "name": "role",
          "type": "bytes32"
        },
        {
          "internalType": "address",
          "name": "account",
          "type": "address"
        }
      ],
      "name": "revokeRole",
      "outputs": [],
      "stateMutability": "nonpayable",
      "type": "function"
    },
    {
      "inputs": [
        {
          "internalType": "bytes4",
          "name": "interfaceId",
          "type": "bytes4"
        }
      ],
      "name": "supportsInterface",
      "outputs": [
        {
          "internalType": "bool",
          "name": "",
          "type": "bool"
        }
      ],
      "stateMutability": "view",
      "type": "function"
    },
    {
      "inputs": [
        {
          "internalType": "address",
          "name": "_patientaddress",
          "type": "address"
        },
        {
          "internalType": "uint256",
          "name": "_height",
          "type": "uint256"
        },
        {
          "internalType": "uint256",
          "name": "_weight",
          "type": "uint256"
        }
      ],
      "name": "updateMedicalRecord",
      "outputs": [],
      "stateMutability": "nonpayable",
      "type": "function"
    },
    {
      "inputs": [],
      "name": "x_imageHash",
      "outputs": [
        {
          "internalType": "string",
          "name": "",
          "type": "string"
        }
      ],
      "stateMutability": "view",
      "type": "function"
    }
  ],
  "bytecode": "0x60806040523480156200001157600080fd5b50620000276000801b336200006e60201b60201c565b33600160006101000a81548173ffffffffffffffffffffffffffffffffffffffff021916908373ffffffffffffffffffffffffffffffffffffffff160217905550620001e7565b6200008082826200008460201b60201c565b5050565b6200009682826200017560201b60201c565b6200017157600160008084815260200190815260200160002060000160008373ffffffffffffffffffffffffffffffffffffffff1673ffffffffffffffffffffffffffffffffffffffff16815260200190815260200160002060006101000a81548160ff02191690831515021790555062000116620001df60201b60201c565b73ffffffffffffffffffffffffffffffffffffffff168173ffffffffffffffffffffffffffffffffffffffff16837f2f8788117e7eff1d82e926ec794901d17c78024a50270940304540a733656f0d60405160405180910390a45b5050565b600080600084815260200190815260200160002060000160008373ffffffffffffffffffffffffffffffffffffffff1673ffffffffffffffffffffffffffffffffffffffff16815260200190815260200160002060009054906101000a900460ff16905092915050565b600033905090565b61229880620001f76000396000f3fe608060405234801561001057600080fd5b506004361061010b5760003560e01c80633c1123dc116100a257806391d148541161007157806391d14854146102cf578063a217fddf146102ff578063ac5cb97d1461031d578063cfc117821461033b578063d547741f146103575761010b565b80633c1123dc1461025d5780634a4f94881461027b5780636ef3027b1461029757806380911fa4146102b35761010b565b8063266cf109116100de578063266cf109146101d35780632f2ff15d146101f35780632fea1a6f1461020f57806336568abe146102415761010b565b806301ffc9a7146101105780630869cfbc14610140578063106d617014610171578063248a9ca3146101a3575b600080fd5b61012a6004803603810190610125919061132a565b610373565b6040516101379190611372565b60405180910390f35b61015a600480360381019061015591906113eb565b6103ed565b6040516101689291906114a8565b60405180910390f35b61018b600480360381019061018691906113eb565b610521565b60405161019a939291906114f8565b60405180910390f35b6101bd60048036038101906101b8919061156c565b6105d3565b6040516101ca91906115a8565b60405180910390f35b6101db6105f2565b6040516101ea939291906114f8565b60405180910390f35b61020d600480360381019061020891906115c3565b610692565b005b610229600480360381019061022491906113eb565b6106b3565b604051610238939291906114f8565b60405180910390f35b61025b600480360381019061025691906115c3565b610838565b005b6102656108bb565b6040516102729190611603565b60405180910390f35b61029560048036038101906102909190611651565b610949565b005b6102b160048036038101906102ac91906117c6565b610a4c565b005b6102cd60048036038101906102c8919061180f565b610b19565b005b6102e960048036038101906102e491906115c3565b610bca565b6040516102f69190611372565b60405180910390f35b610307610c34565b60405161031491906115a8565b60405180910390f35b610325610c3b565b60405161033291906115a8565b60405180910390f35b61035560048036038101906103509190611887565b610c5f565b005b610371600480360381019061036c91906115c3565b610d68565b005b60007f7965db0b000000000000000000000000000000000000000000000000000000007bffffffffffffffffffffffffffffffffffffffffffffffffffffffff1916827bffffffffffffffffffffffffffffffffffffffffffffffffffffffff191614806103e657506103e582610d89565b5b9050919050565b600260205280600052604060002060009150905080600001805461041090611909565b80601f016020809104026020016040519081016040528092919081815260200182805461043c90611909565b80156104895780601f1061045e57610100808354040283529160200191610489565b820191906000526020600020905b81548152906001019060200180831161046c57829003601f168201915b50505050509080600101805461049e90611909565b80601f01602080910402602001604051908101604052809291908181526020018280546104ca90611909565b80156105175780601f106104ec57610100808354040283529160200191610517565b820191906000526020600020905b8154815290600101906020018083116104fa57829003601f168201915b5050505050905082565b600760205280600052604060002060009150905080600001549080600101549080600201805461055090611909565b80601f016020809104026020016040519081016040528092919081815260200182805461057c90611909565b80156105c95780601f1061059e576101008083540402835291602001916105c9565b820191906000526020600020905b8154815290600101906020018083116105ac57829003601f168201915b5050505050905083565b6000806000838152602001908152602001600020600101549050919050565b600380600001549080600101549080600201805461060f90611909565b80601f016020809104026020016040519081016040528092919081815260200182805461063b90611909565b80156106885780601f1061065d57610100808354040283529160200191610688565b820191906000526020600020905b81548152906001019060200180831161066b57829003601f168201915b5050505050905083565b61069b826105d3565b6106a481610df3565b6106ae8383610e07565b505050565b60008060606106e27f72606200fac42b7dc86b75901d61ecfab2a4a1a6eded478b97a428094891abed33610bca565b610721576040517f08c379a000000000000000000000000000000000000000000000000000000000815260040161071890611986565b60405180910390fd5b600760008573ffffffffffffffffffffffffffffffffffffffff1673ffffffffffffffffffffffffffffffffffffffff168152602001908152602001600020600360008201548160000155600182015481600101556002820181600201908161078a9190611b68565b5090505060036000015460036001015460036002018080546107ab90611909565b80601f01602080910402602001604051908101604052809291908181526020018280546107d790611909565b80156108245780601f106107f957610100808354040283529160200191610824565b820191906000526020600020905b81548152906001019060200180831161080757829003601f168201915b505050505090509250925092509193909250565b610840610ee7565b73ffffffffffffffffffffffffffffffffffffffff168173ffffffffffffffffffffffffffffffffffffffff16146108ad576040517f08c379a00000000000000000000000000000000000000000000000000000000081526004016108a490611cc2565b60405180910390fd5b6108b78282610eef565b5050565b600680546108c890611909565b80601f01602080910402602001604051908101604052809291908181526020018280546108f490611909565b80156109415780601f1061091657610100808354040283529160200191610941565b820191906000526020600020905b81548152906001019060200180831161092457829003601f168201915b505050505081565b6109737f72606200fac42b7dc86b75901d61ecfab2a4a1a6eded478b97a428094891abed33610bca565b6109b2576040517f08c379a00000000000000000000000000000000000000000000000000000000081526004016109a990611d54565b60405180910390fd5b604051806060016040528083815260200182815260200160405180602001604052806000815250815250600760003373ffffffffffffffffffffffffffffffffffffffff1673ffffffffffffffffffffffffffffffffffffffff16815260200190815260200160002060008201518160000155602082015181600101556040820151816002019081610a449190611d74565b509050505050565b610a767f72606200fac42b7dc86b75901d61ecfab2a4a1a6eded478b97a428094891abed33610bca565b610ab5576040517f08c379a0000000000000000000000000000000000000000000000000000000008152600401610aac90611d54565b60405180910390fd5b8060069081610ac49190611d74565b506006600760003373ffffffffffffffffffffffffffffffffffffffff1673ffffffffffffffffffffffffffffffffffffffff1681526020019081526020016000206002019081610b159190611e71565b5050565b604051806040016040528083815260200182815250600260003373ffffffffffffffffffffffffffffffffffffffff1673ffffffffffffffffffffffffffffffffffffffff1681526020019081526020016000206000820151816000019081610b829190611d74565b506020820151816001019081610b989190611d74565b50905050610bc67f72606200fac42b7dc86b75901d61ecfab2a4a1a6eded478b97a428094891abed33610692565b5050565b600080600084815260200190815260200160002060000160008373ffffffffffffffffffffffffffffffffffffffff1673ffffffffffffffffffffffffffffffffffffffff16815260200190815260200160002060009054906101000a900460ff16905092915050565b6000801b81565b7f72606200fac42b7dc86b75901d61ecfab2a4a1a6eded478b97a428094891abed81565b3373ffffffffffffffffffffffffffffffffffffffff168373ffffffffffffffffffffffffffffffffffffffff1614610ccd576040517f08c379a0000000000000000000000000000000000000000000000000000000008152600401610cc490611fcb565b60405180910390fd5b604051806060016040528083815260200182815260200160405180602001604052806000815250815250600760008573ffffffffffffffffffffffffffffffffffffffff1673ffffffffffffffffffffffffffffffffffffffff16815260200190815260200160002060008201518160000155602082015181600101556040820151816002019081610d5f9190611d74565b50905050505050565b610d71826105d3565b610d7a81610df3565b610d848383610eef565b505050565b60007f01ffc9a7000000000000000000000000000000000000000000000000000000007bffffffffffffffffffffffffffffffffffffffffffffffffffffffff1916827bffffffffffffffffffffffffffffffffffffffffffffffffffffffff1916149050919050565b610e0481610dff610ee7565b610fd0565b50565b610e118282610bca565b610ee357600160008084815260200190815260200160002060000160008373ffffffffffffffffffffffffffffffffffffffff1673ffffffffffffffffffffffffffffffffffffffff16815260200190815260200160002060006101000a81548160ff021916908315150217905550610e88610ee7565b73ffffffffffffffffffffffffffffffffffffffff168173ffffffffffffffffffffffffffffffffffffffff16837f2f8788117e7eff1d82e926ec794901d17c78024a50270940304540a733656f0d60405160405180910390a45b5050565b600033905090565b610ef98282610bca565b15610fcc57600080600084815260200190815260200160002060000160008373ffffffffffffffffffffffffffffffffffffffff1673ffffffffffffffffffffffffffffffffffffffff16815260200190815260200160002060006101000a81548160ff021916908315150217905550610f71610ee7565b73ffffffffffffffffffffffffffffffffffffffff168173ffffffffffffffffffffffffffffffffffffffff16837ff6391f5c32d9c69d2a47ea670b442974b53935d1edc7fd64eb21e047a839171b60405160405180910390a45b5050565b610fda8282610bca565b61105157610fe781611055565b610ff58360001c6020611082565b6040516020016110069291906120bf565b6040516020818303038152906040526040517f08c379a00000000000000000000000000000000000000000000000000000000081526004016110489190611603565b60405180910390fd5b5050565b606061107b8273ffffffffffffffffffffffffffffffffffffffff16601460ff16611082565b9050919050565b6060600060028360026110959190612128565b61109f919061216a565b67ffffffffffffffff8111156110b8576110b761169b565b5b6040519080825280601f01601f1916602001820160405280156110ea5781602001600182028036833780820191505090505b5090507f3000000000000000000000000000000000000000000000000000000000000000816000815181106111225761112161219e565b5b60200101907effffffffffffffffffffffffffffffffffffffffffffffffffffffffffffff1916908160001a9053507f7800000000000000000000000000000000000000000000000000000000000000816001815181106111865761118561219e565b5b60200101907effffffffffffffffffffffffffffffffffffffffffffffffffffffffffffff1916908160001a905350600060018460026111c69190612128565b6111d0919061216a565b90505b6001811115611270577f3031323334353637383961626364656600000000000000000000000000000000600f8616601081106112125761121161219e565b5b1a60f81b8282815181106112295761122861219e565b5b60200101907effffffffffffffffffffffffffffffffffffffffffffffffffffffffffffff1916908160001a905350600485901c945080611269906121cd565b90506111d3565b50600084146112b4576040517f08c379a00000000000000000000000000000000000000000000000000000000081526004016112ab90612242565b60405180910390fd5b8091505092915050565b6000604051905090565b600080fd5b600080fd5b60007fffffffff0000000000000000000000000000000000000000000000000000000082169050919050565b611307816112d2565b811461131257600080fd5b50565b600081359050611324816112fe565b92915050565b6000602082840312156113405761133f6112c8565b5b600061134e84828501611315565b91505092915050565b60008115159050919050565b61136c81611357565b82525050565b60006020820190506113876000830184611363565b92915050565b600073ffffffffffffffffffffffffffffffffffffffff82169050919050565b60006113b88261138d565b9050919050565b6113c8816113ad565b81146113d357600080fd5b50565b6000813590506113e5816113bf565b92915050565b600060208284031215611401576114006112c8565b5b600061140f848285016113d6565b91505092915050565b600081519050919050565b600082825260208201905092915050565b60005b83811015611452578082015181840152602081019050611437565b60008484015250505050565b6000601f19601f8301169050919050565b600061147a82611418565b6114848185611423565b9350611494818560208601611434565b61149d8161145e565b840191505092915050565b600060408201905081810360008301526114c2818561146f565b905081810360208301526114d6818461146f565b90509392505050565b6000819050919050565b6114f2816114df565b82525050565b600060608201905061150d60008301866114e9565b61151a60208301856114e9565b818103604083015261152c818461146f565b9050949350505050565b6000819050919050565b61154981611536565b811461155457600080fd5b50565b60008135905061156681611540565b92915050565b600060208284031215611582576115816112c8565b5b600061159084828501611557565b91505092915050565b6115a281611536565b82525050565b60006020820190506115bd6000830184611599565b92915050565b600080604083850312156115da576115d96112c8565b5b60006115e885828601611557565b92505060206115f9858286016113d6565b9150509250929050565b6000602082019050818103600083015261161d818461146f565b905092915050565b61162e816114df565b811461163957600080fd5b50565b60008135905061164b81611625565b92915050565b60008060408385031215611668576116676112c8565b5b60006116768582860161163c565b92505060206116878582860161163c565b9150509250929050565b600080fd5b600080fd5b7f4e487b7100000000000000000000000000000000000000000000000000000000600052604160045260246000fd5b6116d38261145e565b810181811067ffffffffffffffff821117156116f2576116f161169b565b5b80604052505050565b60006117056112be565b905061171182826116ca565b919050565b600067ffffffffffffffff8211156117315761173061169b565b5b61173a8261145e565b9050602081019050919050565b82818337600083830152505050565b600061176961176484611716565b6116fb565b90508281526020810184848401111561178557611784611696565b5b611790848285611747565b509392505050565b600082601f8301126117ad576117ac611691565b5b81356117bd848260208601611756565b91505092915050565b6000602082840312156117dc576117db6112c8565b5b600082013567ffffffffffffffff8111156117fa576117f96112cd565b5b61180684828501611798565b91505092915050565b60008060408385031215611826576118256112c8565b5b600083013567ffffffffffffffff811115611844576118436112cd565b5b61185085828601611798565b925050602083013567ffffffffffffffff811115611871576118706112cd565b5b61187d85828601611798565b9150509250929050565b6000806000606084860312156118a05761189f6112c8565b5b60006118ae868287016113d6565b93505060206118bf8682870161163c565b92505060406118d08682870161163c565b9150509250925092565b7f4e487b7100000000000000000000000000000000000000000000000000000000600052602260045260246000fd5b6000600282049050600182168061192157607f821691505b602082108103611934576119336118da565b5b50919050565b7f43616e277420616363657373204d65646963616c205265636f72640000000000600082015250565b6000611970601b83611423565b915061197b8261193a565b602082019050919050565b6000602082019050818103600083015261199f81611963565b9050919050565b6000815490506119b581611909565b9050919050565b60008190508160005260206000209050919050565b60006020601f8301049050919050565b600082821b905092915050565b600060088302611a1e7fffffffffffffffffffffffffffffffffffffffffffffffffffffffffffffffff826119e1565b611a2886836119e1565b95508019841693508086168417925050509392505050565b6000819050919050565b6000611a65611a60611a5b846114df565b611a40565b6114df565b9050919050565b6000819050919050565b611a7f83611a4a565b611a93611a8b82611a6c565b8484546119ee565b825550505050565b600090565b611aa8611a9b565b611ab3818484611a76565b505050565b5b81811015611ad757611acc600082611aa0565b600181019050611ab9565b5050565b601f821115611b1c57611aed816119bc565b611af6846119d1565b81016020851015611b05578190505b611b19611b11856119d1565b830182611ab8565b50505b505050565b600082821c905092915050565b6000611b3f60001984600802611b21565b1980831691505092915050565b6000611b588383611b2e565b9150826002028217905092915050565b818103611b76575050611c4e565b611b7f826119a6565b67ffffffffffffffff811115611b9857611b9761169b565b5b611ba28254611909565b611bad828285611adb565b6000601f831160018114611bdc5760008415611bca578287015490505b611bd48582611b4c565b865550611c47565b601f198416611bea876119bc565b9650611bf5866119bc565b60005b82811015611c1d57848901548255600182019150600185019450602081019050611bf8565b86831015611c3a5784890154611c36601f891682611b2e565b8355505b6001600288020188555050505b5050505050505b565b7f416363657373436f6e74726f6c3a2063616e206f6e6c792072656e6f756e636560008201527f20726f6c657320666f722073656c660000000000000000000000000000000000602082015250565b6000611cac602f83611423565b9150611cb782611c50565b604082019050919050565b60006020820190508181036000830152611cdb81611c9f565b9050919050565b7f4f6e6c792050617469656e742043616e204d616b65205265636f72642043686160008201527f6e67650000000000000000000000000000000000000000000000000000000000602082015250565b6000611d3e602383611423565b9150611d4982611ce2565b604082019050919050565b60006020820190508181036000830152611d6d81611d31565b9050919050565b611d7d82611418565b67ffffffffffffffff811115611d9657611d9561169b565b5b611da08254611909565b611dab828285611adb565b600060209050601f831160018114611dde5760008415611dcc578287015190505b611dd68582611b4c565b865550611e3e565b601f198416611dec866119bc565b60005b82811015611e1457848901518255600182019150602085019450602081019050611def565b86831015611e315784890151611e2d601f891682611b2e565b8355505b6001600288020188555050505b505050505050565b600081549050611e5581611909565b9050919050565b60008190508160005260206000209050919050565b818103611e7f575050611f57565b611e8882611e46565b67ffffffffffffffff811115611ea157611ea061169b565b5b611eab8254611909565b611eb6828285611adb565b6000601f831160018114611ee55760008415611ed3578287015490505b611edd8582611b4c565b865550611f50565b601f198416611ef387611e5c565b9650611efe866119bc565b60005b82811015611f2657848901548255600182019150600185019450602081019050611f01565b86831015611f435784890154611f3f601f891682611b2e565b8355505b6001600288020188555050505b5050505050505b565b7f4f6e6c792050617469656e742043616e204d616b652041205265636f7264204360008201527f68616e6765000000000000000000000000000000000000000000000000000000602082015250565b6000611fb5602583611423565b9150611fc082611f59565b604082019050919050565b60006020820190508181036000830152611fe481611fa8565b9050919050565b600081905092915050565b7f416363657373436f6e74726f6c3a206163636f756e7420000000000000000000600082015250565b600061202c601783611feb565b915061203782611ff6565b601782019050919050565b600061204d82611418565b6120578185611feb565b9350612067818560208601611434565b80840191505092915050565b7f206973206d697373696e6720726f6c6520000000000000000000000000000000600082015250565b60006120a9601183611feb565b91506120b482612073565b601182019050919050565b60006120ca8261201f565b91506120d68285612042565b91506120e18261209c565b91506120ed8284612042565b91508190509392505050565b7f4e487b7100000000000000000000000000000000000000000000000000000000600052601160045260246000fd5b6000612133826114df565b915061213e836114df565b925082820261214c816114df565b91508282048414831517612163576121626120f9565b5b5092915050565b6000612175826114df565b9150612180836114df565b9250828201905080821115612198576121976120f9565b5b92915050565b7f4e487b7100000000000000000000000000000000000000000000000000000000600052603260045260246000fd5b60006121d8826114df565b9150600082036121eb576121ea6120f9565b5b600182039050919050565b7f537472696e67733a20686578206c656e67746820696e73756666696369656e74600082015250565b600061222c602083611423565b9150612237826121f6565b602082019050919050565b6000602082019050818103600083015261225b8161221f565b905091905056fea264697066735822122004f074535043ae99836a0f8b8db4cbbef8c899c3056da0e491d0f538a077b1fd64736f6c63430008130033",
  "linkReferences": {},
  "deployedLinkReferences": {}
}