{
  "abi": [
    {
      "inputs": [],
      "stateMutability": "nonpayable",
      "type": "constructor"
    },
    {
      "anonymous": false,
      "inputs": [
        {
          "indexed": true,
          "internalType": "bytes32",
          "name": "role",
          "type": "bytes32"
        },
        {
          "indexed": true,
          "internalType": "bytes32",
          "name": "previousAdminRole",
          "type": "bytes32"
        },
        {
          "indexed": true,
          "internalType": "bytes32",
          "name": "newAdminRole",
          "type": "bytes32"
        }
      ],
      "name": "RoleAdminChanged",
      "type": "event"
    },
    {
      "anonymous": false,
      "inputs": [
        {
          "indexed": true,
          "internalType": "bytes32",
          "name": "role",
          "type": "bytes32"
        },
        {
          "indexed": true,
          "internalType": "address",
          "name": "account",
          "type": "address"
        },
        {
          "indexed": true,
          "internalType": "address",
          "name": "sender",
          "type": "address"
        }
      ],
      "name": "RoleGranted",
      "type": "event"
    },
    {
      "anonymous": false,
      "inputs": [
        {
          "indexed": true,
          "internalType": "bytes32",
          "name": "role",
          "type": "bytes32"
        },
        {
          "indexed": true,
          "internalType": "address",
          "name": "account",
          "type": "address"
        },
        {
          "indexed": true,
          "internalType": "address",
          "name": "sender",
          "type": "address"
        }
      ],
      "name": "RoleRevoked",
      "type": "event"
    },
    {
      "inputs": [],
      "name": "DEFAULT_ADMIN_ROLE",
      "outputs": [
        {
          "internalType": "bytes32",
          "name": "",
          "type": "bytes32"
        }
      ],
      "stateMutability": "view",
      "type": "function"
    },
    {
      "inputs": [],
      "name": "PATIENT_ROLE",
      "outputs": [
        {
          "internalType": "bytes32",
          "name": "",
          "type": "bytes32"
        }
      ],
      "stateMutability": "view",
      "type": "function"
    },
    {
      "inputs": [
        {
          "internalType": "bytes32",
          "name": "role",
          "type": "bytes32"
        }
      ],
      "name": "getRoleAdmin",
      "outputs": [
        {
          "internalType": "bytes32",
          "name": "",
          "type": "bytes32"
        }
      ],
      "stateMutability": "view",
      "type": "function"
    },
    {
      "inputs": [],
      "name": "grantAccess",
      "outputs": [],
      "stateMutability": "nonpayable",
      "type": "function"
    },
    {
      "inputs": [
        {
          "internalType": "bytes32",
          "name": "role",
          "type": "bytes32"
        },
        {
          "internalType": "address",
          "name": "account",
          "type": "address"
        }
      ],
      "name": "grantRole",
      "outputs": [],
      "stateMutability": "nonpayable",
      "type": "function"
    },
    {
      "inputs": [
        {
          "internalType": "bytes32",
          "name": "role",
          "type": "bytes32"
        },
        {
          "internalType": "address",
          "name": "account",
          "type": "address"
        }
      ],
      "name": "hasRole",
      "outputs": [
        {
          "internalType": "bool",
          "name": "",
          "type": "bool"
        }
      ],
      "stateMutability": "view",
      "type": "function"
    },
    {
      "inputs": [
        {
          "internalType": "address",
          "name": "",
          "type": "address"
        }
      ],
      "name": "patients",
      "outputs": [
        {
          "internalType": "string",
          "name": "patientName",
          "type": "string"
        },
        {
          "internalType": "string",
          "name": "contactInfo",
          "type": "string"
        }
      ],
      "stateMutability": "view",
      "type": "function"
    },
    {
      "inputs": [
        {
          "internalType": "string",
          "name": "_patientName",
          "type": "string"
        },
        {
          "internalType": "string",
          "name": "_contactInfo",
          "type": "string"
        }
      ],
      "name": "registerPatient",
      "outputs": [],
      "stateMutability": "nonpayable",
      "type": "function"
    },
    {
      "inputs": [
        {
          "internalType": "bytes32",
          "name": "role",
          "type": "bytes32"
        },
        {
          "internalType": "address",
          "name": "account",
          "type": "address"
        }
      ],
      "name": "renounceRole",
      "outputs": [],
      "stateMutability": "nonpayable",
      "type": "function"
    },
    {
      "inputs": [
        {
          "internalType": "bytes32",
          "name": "role",
          "type": "bytes32"
        },
        {
          "internalType": "address",
          "name": "account",
          "type": "address"
        }
      ],
      "name": "revokeRole",
      "outputs": [],
      "stateMutability": "nonpayable",
      "type": "function"
    },
    {
      "inputs": [
        {
          "internalType": "bytes4",
          "name": "interfaceId",
          "type": "bytes4"
        }
      ],
      "name": "supportsInterface",
      "outputs": [
        {
          "internalType": "bool",
          "name": "",
          "type": "bool"
        }
      ],
      "stateMutability": "view",
      "type": "function"
    }
  ],
  "bytecode": {
    "object": "0x608060405234801561001057600080fd5b5060018054336001600160a01b03199182168117909255600280549091168217905561003e90600090610043565b6100ef565b61004d8282610051565b5050565b6000828152602081815260408083206001600160a01b038516845290915290205460ff1661004d576000828152602081815260408083206001600160a01b03851684529091529020805460ff191660011790556100ab3390565b6001600160a01b0316816001600160a01b0316837f2f8788117e7eff1d82e926ec794901d17c78024a50270940304540a733656f0d60405160405180910390a45050565b610cd4806100fe6000396000f3fe608060405234801561001057600080fd5b50600436106100a95760003560e01c806380911fa41161007157806380911fa41461015057806391d1485414610163578063a217fddf14610176578063ac5cb97d1461017e578063d547741f146101a5578063da4836e9146101b857600080fd5b806301ffc9a7146100ae5780630869cfbc146100d6578063248a9ca3146100f75780632f2ff15d1461012857806336568abe1461013d575b600080fd5b6100c16100bc366004610836565b6101c0565b60405190151581526020015b60405180910390f35b6100e96100e436600461087c565b6101f7565b6040516100cd9291906108e7565b61011a610105366004610915565b60009081526020819052604090206001015490565b6040519081526020016100cd565b61013b61013636600461092e565b610323565b005b61013b61014b36600461092e565b61034d565b61013b61015e3660046109fd565b6103d0565b6100c161017136600461092e565b610428565b61011a600081565b61011a7f72606200fac42b7dc86b75901d61ecfab2a4a1a6eded478b97a428094891abed81565b61013b6101b336600461092e565b610451565b61013b610476565b60006001600160e01b03198216637965db0b60e01b14806101f157506301ffc9a760e01b6001600160e01b03198316145b92915050565b60036020526000908152604090208054819061021290610a61565b80601f016020809104026020016040519081016040528092919081815260200182805461023e90610a61565b801561028b5780601f106102605761010080835404028352916020019161028b565b820191906000526020600020905b81548152906001019060200180831161026e57829003601f168201915b5050505050908060010180546102a090610a61565b80601f01602080910402602001604051908101604052809291908181526020018280546102cc90610a61565b80156103195780601f106102ee57610100808354040283529160200191610319565b820191906000526020600020905b8154815290600101906020018083116102fc57829003601f168201915b5050505050905082565b60008281526020819052604090206001015461033e81610532565b610348838361053f565b505050565b6001600160a01b03811633146103c25760405162461bcd60e51b815260206004820152602f60248201527f416363657373436f6e74726f6c3a2063616e206f6e6c792072656e6f756e636560448201526e103937b632b9903337b91039b2b63360891b60648201526084015b60405180910390fd5b6103cc82826105c3565b5050565b60408051808201825283815260208082018490526001546001600160a01b031660009081526003909152919091208151819061040c9082610ae9565b50602082015160018201906104219082610ae9565b5050505050565b6000918252602082815260408084206001600160a01b0393909316845291905290205460ff1690565b60008281526020819052604090206001015461046c81610532565b61034883836105c3565b6001546104ad907f72606200fac42b7dc86b75901d61ecfab2a4a1a6eded478b97a428094891abed906001600160a01b0316610428565b6104f95760405162461bcd60e51b815260206004820152601760248201527f43616c6c6572206973206e6f7420612070617469656e7400000000000000000060448201526064016103b9565b600154610530907f72606200fac42b7dc86b75901d61ecfab2a4a1a6eded478b97a428094891abed906001600160a01b0316610323565b565b61053c8133610628565b50565b6105498282610428565b6103cc576000828152602081815260408083206001600160a01b03851684529091529020805460ff1916600117905561057f3390565b6001600160a01b0316816001600160a01b0316837f2f8788117e7eff1d82e926ec794901d17c78024a50270940304540a733656f0d60405160405180910390a45050565b6105cd8282610428565b156103cc576000828152602081815260408083206001600160a01b0385168085529252808320805460ff1916905551339285917ff6391f5c32d9c69d2a47ea670b442974b53935d1edc7fd64eb21e047a839171b9190a45050565b6106328282610428565b6103cc5761063f81610681565b61064a836020610693565b60405160200161065b929190610ba9565b60408051601f198184030181529082905262461bcd60e51b82526103b991600401610c1e565b60606101f16001600160a01b03831660145b606060006106a2836002610c47565b6106ad906002610c5e565b67ffffffffffffffff8111156106c5576106c561095a565b6040519080825280601f01601f1916602001820160405280156106ef576020820181803683370190505b509050600360fc1b8160008151811061070a5761070a610c71565b60200101906001600160f81b031916908160001a905350600f60fb1b8160018151811061073957610739610c71565b60200101906001600160f81b031916908160001a905350600061075d846002610c47565b610768906001610c5e565b90505b60018111156107e0576f181899199a1a9b1b9c1cb0b131b232b360811b85600f166010811061079c5761079c610c71565b1a60f81b8282815181106107b2576107b2610c71565b60200101906001600160f81b031916908160001a90535060049490941c936107d981610c87565b905061076b565b50831561082f5760405162461bcd60e51b815260206004820181905260248201527f537472696e67733a20686578206c656e67746820696e73756666696369656e7460448201526064016103b9565b9392505050565b60006020828403121561084857600080fd5b81356001600160e01b03198116811461082f57600080fd5b80356001600160a01b038116811461087757600080fd5b919050565b60006020828403121561088e57600080fd5b61082f82610860565b60005b838110156108b257818101518382015260200161089a565b50506000910152565b600081518084526108d3816020860160208601610897565b601f01601f19169290920160200192915050565b6040815260006108fa60408301856108bb565b828103602084015261090c81856108bb565b95945050505050565b60006020828403121561092757600080fd5b5035919050565b6000806040838503121561094157600080fd5b8235915061095160208401610860565b90509250929050565b634e487b7160e01b600052604160045260246000fd5b600082601f83011261098157600080fd5b813567ffffffffffffffff8082111561099c5761099c61095a565b604051601f8301601f19908116603f011681019082821181831017156109c4576109c461095a565b816040528381528660208588010111156109dd57600080fd5b836020870160208301376000602085830101528094505050505092915050565b60008060408385031215610a1057600080fd5b823567ffffffffffffffff80821115610a2857600080fd5b610a3486838701610970565b93506020850135915080821115610a4a57600080fd5b50610a5785828601610970565b9150509250929050565b600181811c90821680610a7557607f821691505b602082108103610a9557634e487b7160e01b600052602260045260246000fd5b50919050565b601f82111561034857600081815260208120601f850160051c81016020861015610ac25750805b601f850160051c820191505b81811015610ae157828155600101610ace565b505050505050565b815167ffffffffffffffff811115610b0357610b0361095a565b610b1781610b118454610a61565b84610a9b565b602080601f831160018114610b4c5760008415610b345750858301515b600019600386901b1c1916600185901b178555610ae1565b600085815260208120601f198616915b82811015610b7b57888601518255948401946001909101908401610b5c565b5085821015610b995787850151600019600388901b60f8161c191681555b5050505050600190811b01905550565b7f416363657373436f6e74726f6c3a206163636f756e7420000000000000000000815260008351610be1816017850160208801610897565b7001034b99036b4b9b9b4b733903937b6329607d1b6017918401918201528351610c12816028840160208801610897565b01602801949350505050565b60208152600061082f60208301846108bb565b634e487b7160e01b600052601160045260246000fd5b80820281158282048414176101f1576101f1610c31565b808201808211156101f1576101f1610c31565b634e487b7160e01b600052603260045260246000fd5b600081610c9657610c96610c31565b50600019019056fea2646970667358221220f9874ca843be54d39b26e1719771a5f446a55b831937af8e10ed87c7c2e23ab364736f6c63430008130033",
    "linkReferences": {}
  },
  "methodIdentifiers": {
    "DEFAULT_ADMIN_ROLE()": "a217fddf",
    "PATIENT_ROLE()": "ac5cb97d",
    "getRoleAdmin(bytes32)": "248a9ca3",
    "grantAccess()": "da4836e9",
    "grantRole(bytes32,address)": "2f2ff15d",
    "hasRole(bytes32,address)": "91d14854",
    "patients(address)": "0869cfbc",
    "registerPatient(string,string)": "80911fa4",
    "renounceRole(bytes32,address)": "36568abe",
    "revokeRole(bytes32,address)": "d547741f",
    "supportsInterface(bytes4)": "01ffc9a7"
  },
  "id": 1
}