{
  "_format": "hh-sol-artifact-1",
  "contractName": "PatientManagement",
  "sourceName": "src/contracts/PatientManagement.sol",
  "abi": [
    {
      "inputs": [],
      "stateMutability": "nonpayable",
      "type": "constructor"
    },
    {
      "anonymous": false,
      "inputs": [
        {
          "indexed": true,
          "internalType": "bytes32",
          "name": "role",
          "type": "bytes32"
        },
        {
          "indexed": true,
          "internalType": "bytes32",
          "name": "previousAdminRole",
          "type": "bytes32"
        },
        {
          "indexed": true,
          "internalType": "bytes32",
          "name": "newAdminRole",
          "type": "bytes32"
        }
      ],
      "name": "RoleAdminChanged",
      "type": "event"
    },
    {
      "anonymous": false,
      "inputs": [
        {
          "indexed": true,
          "internalType": "bytes32",
          "name": "role",
          "type": "bytes32"
        },
        {
          "indexed": true,
          "internalType": "address",
          "name": "account",
          "type": "address"
        },
        {
          "indexed": true,
          "internalType": "address",
          "name": "sender",
          "type": "address"
        }
      ],
      "name": "RoleGranted",
      "type": "event"
    },
    {
      "anonymous": false,
      "inputs": [
        {
          "indexed": true,
          "internalType": "bytes32",
          "name": "role",
          "type": "bytes32"
        },
        {
          "indexed": true,
          "internalType": "address",
          "name": "account",
          "type": "address"
        },
        {
          "indexed": true,
          "internalType": "address",
          "name": "sender",
          "type": "address"
        }
      ],
      "name": "RoleRevoked",
      "type": "event"
    },
    {
      "inputs": [],
      "name": "DEFAULT_ADMIN_ROLE",
      "outputs": [
        {
          "internalType": "bytes32",
          "name": "",
          "type": "bytes32"
        }
      ],
      "stateMutability": "view",
      "type": "function"
    },
    {
      "inputs": [],
      "name": "PATIENT_ROLE",
      "outputs": [
        {
          "internalType": "bytes32",
          "name": "",
          "type": "bytes32"
        }
      ],
      "stateMutability": "view",
      "type": "function"
    },
    {
      "inputs": [
        {
          "internalType": "string",
          "name": "_imageHash",
          "type": "string"
        }
      ],
      "name": "addImageHash",
      "outputs": [],
      "stateMutability": "nonpayable",
      "type": "function"
    },
    {
      "inputs": [
        {
          "internalType": "uint256",
          "name": "_height",
          "type": "uint256"
        },
        {
          "internalType": "uint256",
          "name": "_weight",
          "type": "uint256"
        }
      ],
      "name": "createMedicalRecord",
      "outputs": [],
      "stateMutability": "nonpayable",
      "type": "function"
    },
    {
      "inputs": [
        {
          "internalType": "address",
          "name": "_patientAddress",
          "type": "address"
        }
      ],
      "name": "getMedicalRecord",
      "outputs": [
        {
          "internalType": "uint256",
          "name": "",
          "type": "uint256"
        },
        {
          "internalType": "uint256",
          "name": "",
          "type": "uint256"
        },
        {
          "internalType": "string",
          "name": "",
          "type": "string"
        }
      ],
      "stateMutability": "nonpayable",
      "type": "function"
    },
    {
      "inputs": [
        {
          "internalType": "bytes32",
          "name": "role",
          "type": "bytes32"
        }
      ],
      "name": "getRoleAdmin",
      "outputs": [
        {
          "internalType": "bytes32",
          "name": "",
          "type": "bytes32"
        }
      ],
      "stateMutability": "view",
      "type": "function"
    },
    {
      "inputs": [
        {
          "internalType": "bytes32",
          "name": "role",
          "type": "bytes32"
        },
        {
          "internalType": "address",
          "name": "account",
          "type": "address"
        }
      ],
      "name": "grantRole",
      "outputs": [],
      "stateMutability": "nonpayable",
      "type": "function"
    },
    {
      "inputs": [
        {
          "internalType": "bytes32",
          "name": "role",
          "type": "bytes32"
        },
        {
          "internalType": "address",
          "name": "account",
          "type": "address"
        }
      ],
      "name": "hasRole",
      "outputs": [
        {
          "internalType": "bool",
          "name": "",
          "type": "bool"
        }
      ],
      "stateMutability": "view",
      "type": "function"
    },
    {
      "inputs": [
        {
          "internalType": "address",
          "name": "",
          "type": "address"
        }
      ],
      "name": "medicalRecords",
      "outputs": [
        {
          "internalType": "uint256",
          "name": "height",
          "type": "uint256"
        },
        {
          "internalType": "uint256",
          "name": "weight",
          "type": "uint256"
        },
        {
          "internalType": "string",
          "name": "imageHash",
          "type": "string"
        }
      ],
      "stateMutability": "view",
      "type": "function"
    },
    {
      "inputs": [
        {
          "internalType": "address",
          "name": "",
          "type": "address"
        }
      ],
      "name": "patients",
      "outputs": [
        {
          "internalType": "string",
          "name": "patientName",
          "type": "string"
        },
        {
          "internalType": "string",
          "name": "contactInfo",
          "type": "string"
        }
      ],
      "stateMutability": "view",
      "type": "function"
    },
    {
      "inputs": [],
      "name": "record",
      "outputs": [
        {
          "internalType": "uint256",
          "name": "height",
          "type": "uint256"
        },
        {
          "internalType": "uint256",
          "name": "weight",
          "type": "uint256"
        },
        {
          "internalType": "string",
          "name": "imageHash",
          "type": "string"
        }
      ],
      "stateMutability": "view",
      "type": "function"
    },
    {
      "inputs": [
        {
          "internalType": "string",
          "name": "_patientName",
          "type": "string"
        },
        {
          "internalType": "string",
          "name": "_contactInfo",
          "type": "string"
        }
      ],
      "name": "registerPatient",
      "outputs": [],
      "stateMutability": "nonpayable",
      "type": "function"
    },
    {
      "inputs": [
        {
          "internalType": "bytes32",
          "name": "role",
          "type": "bytes32"
        },
        {
          "internalType": "address",
          "name": "account",
          "type": "address"
        }
      ],
      "name": "renounceRole",
      "outputs": [],
      "stateMutability": "nonpayable",
      "type": "function"
    },
    {
      "inputs": [
        {
          "internalType": "bytes32",
          "name": "role",
          "type": "bytes32"
        },
        {
          "internalType": "address",
          "name": "account",
          "type": "address"
        }
      ],
      "name": "revokeRole",
      "outputs": [],
      "stateMutability": "nonpayable",
      "type": "function"
    },
    {
      "inputs": [
        {
          "internalType": "bytes4",
          "name": "interfaceId",
          "type": "bytes4"
        }
      ],
      "name": "supportsInterface",
      "outputs": [
        {
          "internalType": "bool",
          "name": "",
          "type": "bool"
        }
      ],
      "stateMutability": "view",
      "type": "function"
    },
    {
      "inputs": [
        {
          "internalType": "address",
          "name": "_patientaddress",
          "type": "address"
        },
        {
          "internalType": "uint256",
          "name": "_height",
          "type": "uint256"
        },
        {
          "internalType": "uint256",
          "name": "_weight",
          "type": "uint256"
        }
      ],
      "name": "updateMedicalRecord",
      "outputs": [],
      "stateMutability": "nonpayable",
      "type": "function"
    },
    {
      "inputs": [],
      "name": "x_imageHash",
      "outputs": [
        {
          "internalType": "string",
          "name": "",
          "type": "string"
        }
      ],
      "stateMutability": "view",
      "type": "function"
    }
  ],
  "bytecode": "0x608060405234801561001057600080fd5b5061001c600033610033565b600180546001600160a01b031916331790556100df565b61003d8282610041565b5050565b6000828152602081815260408083206001600160a01b038516845290915290205460ff1661003d576000828152602081815260408083206001600160a01b03851684529091529020805460ff1916600117905561009b3390565b6001600160a01b0316816001600160a01b0316837f2f8788117e7eff1d82e926ec794901d17c78024a50270940304540a733656f0d60405160405180910390a45050565b611323806100ee6000396000f3fe608060405234801561001057600080fd5b506004361061010b5760003560e01c80633c1123dc116100a257806391d148541161007157806391d148541461023d578063a217fddf14610250578063ac5cb97d14610258578063cfc117821461026d578063d547741f1461028057600080fd5b80633c1123dc146101ef5780634a4f9488146102045780636ef3027b1461021757806380911fa41461022a57600080fd5b8063266cf109116100de578063266cf109146101ac5780632f2ff15d146101b45780632fea1a6f146101c957806336568abe146101dc57600080fd5b806301ffc9a7146101105780630869cfbc14610138578063106d617014610159578063248a9ca31461017b575b600080fd5b61012361011e366004610ca4565b610293565b60405190151581526020015b60405180910390f35b61014b610146366004610cea565b6102ca565b60405161012f929190610d55565b61016c610167366004610cea565b6103f6565b60405161012f93929190610d83565b61019e610189366004610da2565b60009081526020819052604090206001015490565b60405190815260200161012f565b61016c6104a1565b6101c76101c2366004610dbb565b6104b9565b005b61016c6101d7366004610cea565b6104e3565b6101c76101ea366004610dbb565b610630565b6101f76106ae565b60405161012f9190610de7565b6101c7610212366004610dfa565b61073c565b6101c7610225366004610ebf565b6107c9565b6101c7610238366004610efc565b610827565b61012361024b366004610dbb565b610889565b61019e600081565b61019e6000805160206112ce83398151915281565b6101c761027b366004610f60565b6108b2565b6101c761028e366004610dbb565b61097b565b60006001600160e01b03198216637965db0b60e01b14806102c457506301ffc9a760e01b6001600160e01b03198316145b92915050565b6002602052600090815260409020805481906102e590610f93565b80601f016020809104026020016040519081016040528092919081815260200182805461031190610f93565b801561035e5780601f106103335761010080835404028352916020019161035e565b820191906000526020600020905b81548152906001019060200180831161034157829003601f168201915b50505050509080600101805461037390610f93565b80601f016020809104026020016040519081016040528092919081815260200182805461039f90610f93565b80156103ec5780601f106103c1576101008083540402835291602001916103ec565b820191906000526020600020905b8154815290600101906020018083116103cf57829003601f168201915b5050505050905082565b6007602052600090815260409020805460018201546002830180549293919261041e90610f93565b80601f016020809104026020016040519081016040528092919081815260200182805461044a90610f93565b80156104975780601f1061046c57610100808354040283529160200191610497565b820191906000526020600020905b81548152906001019060200180831161047a57829003601f168201915b5050505050905083565b60038054600454600580549293919261041e90610f93565b6000828152602081905260409020600101546104d4816109a0565b6104de83836109ad565b505050565b60008060606105006000805160206112ce83398151915233610889565b6105515760405162461bcd60e51b815260206004820152601b60248201527f43616e277420616363657373204d65646963616c205265636f7264000000000060448201526064015b60405180910390fd5b6001600160a01b038416600090815260076020526040902080546003908155600182015460045560056105876002840182611013565b505060035460045460058054929350909181906105a390610f93565b80601f01602080910402602001604051908101604052809291908181526020018280546105cf90610f93565b801561061c5780601f106105f15761010080835404028352916020019161061c565b820191906000526020600020905b8154815290600101906020018083116105ff57829003601f168201915b505050505090509250925092509193909250565b6001600160a01b03811633146106a05760405162461bcd60e51b815260206004820152602f60248201527f416363657373436f6e74726f6c3a2063616e206f6e6c792072656e6f756e636560448201526e103937b632b9903337b91039b2b63360891b6064820152608401610548565b6106aa8282610a31565b5050565b600680546106bb90610f93565b80601f01602080910402602001604051908101604052809291908181526020018280546106e790610f93565b80156107345780601f1061070957610100808354040283529160200191610734565b820191906000526020600020905b81548152906001019060200180831161071757829003601f168201915b505050505081565b6107546000805160206112ce83398151915233610889565b6107705760405162461bcd60e51b8152600401610548906110f0565b6040805160608101825283815260208082018481528351808301855260008082528486019182523381526007909352939091208251815590516001820155915190919060028201906107c29082611133565b5050505050565b6107e16000805160206112ce83398151915233610889565b6107fd5760405162461bcd60e51b8152600401610548906110f0565b60066108098282611133565b503360009081526007602052604090206002016106aa600682611013565b6040805180820182528381526020808201849052336000908152600290915291909120815181906108589082611133565b506020820151600182019061086d9082611133565b509050506106aa6000805160206112ce833981519152336104b9565b6000918252602082815260408084206001600160a01b0393909316845291905290205460ff1690565b6001600160a01b03831633146109185760405162461bcd60e51b815260206004820152602560248201527f4f6e6c792050617469656e742043616e204d616b652041205265636f7264204360448201526468616e676560d81b6064820152608401610548565b6040805160608101825283815260208082018481528351808301855260008082528486019182526001600160a01b03891681526007909352939091208251815590516001820155915190919060028201906109739082611133565b505050505050565b600082815260208190526040902060010154610996816109a0565b6104de8383610a31565b6109aa8133610a96565b50565b6109b78282610889565b6106aa576000828152602081815260408083206001600160a01b03851684529091529020805460ff191660011790556109ed3390565b6001600160a01b0316816001600160a01b0316837f2f8788117e7eff1d82e926ec794901d17c78024a50270940304540a733656f0d60405160405180910390a45050565b610a3b8282610889565b156106aa576000828152602081815260408083206001600160a01b0385168085529252808320805460ff1916905551339285917ff6391f5c32d9c69d2a47ea670b442974b53935d1edc7fd64eb21e047a839171b9190a45050565b610aa08282610889565b6106aa57610aad81610aef565b610ab8836020610b01565b604051602001610ac99291906111eb565b60408051601f198184030181529082905262461bcd60e51b825261054891600401610de7565b60606102c46001600160a01b03831660145b60606000610b10836002611276565b610b1b90600261128d565b67ffffffffffffffff811115610b3357610b33610e1c565b6040519080825280601f01601f191660200182016040528015610b5d576020820181803683370190505b509050600360fc1b81600081518110610b7857610b786112a0565b60200101906001600160f81b031916908160001a905350600f60fb1b81600181518110610ba757610ba76112a0565b60200101906001600160f81b031916908160001a9053506000610bcb846002611276565b610bd690600161128d565b90505b6001811115610c4e576f181899199a1a9b1b9c1cb0b131b232b360811b85600f1660108110610c0a57610c0a6112a0565b1a60f81b828281518110610c2057610c206112a0565b60200101906001600160f81b031916908160001a90535060049490941c93610c47816112b6565b9050610bd9565b508315610c9d5760405162461bcd60e51b815260206004820181905260248201527f537472696e67733a20686578206c656e67746820696e73756666696369656e746044820152606401610548565b9392505050565b600060208284031215610cb657600080fd5b81356001600160e01b031981168114610c9d57600080fd5b80356001600160a01b0381168114610ce557600080fd5b919050565b600060208284031215610cfc57600080fd5b610c9d82610cce565b60005b83811015610d20578181015183820152602001610d08565b50506000910152565b60008151808452610d41816020860160208601610d05565b601f01601f19169290920160200192915050565b604081526000610d686040830185610d29565b8281036020840152610d7a8185610d29565b95945050505050565b838152826020820152606060408201526000610d7a6060830184610d29565b600060208284031215610db457600080fd5b5035919050565b60008060408385031215610dce57600080fd5b82359150610dde60208401610cce565b90509250929050565b602081526000610c9d6020830184610d29565b60008060408385031215610e0d57600080fd5b50508035926020909101359150565b634e487b7160e01b600052604160045260246000fd5b600082601f830112610e4357600080fd5b813567ffffffffffffffff80821115610e5e57610e5e610e1c565b604051601f8301601f19908116603f01168101908282118183101715610e8657610e86610e1c565b81604052838152866020858801011115610e9f57600080fd5b836020870160208301376000602085830101528094505050505092915050565b600060208284031215610ed157600080fd5b813567ffffffffffffffff811115610ee857600080fd5b610ef484828501610e32565b949350505050565b60008060408385031215610f0f57600080fd5b823567ffffffffffffffff80821115610f2757600080fd5b610f3386838701610e32565b93506020850135915080821115610f4957600080fd5b50610f5685828601610e32565b9150509250929050565b600080600060608486031215610f7557600080fd5b610f7e84610cce565b95602085013595506040909401359392505050565b600181811c90821680610fa757607f821691505b602082108103610fc757634e487b7160e01b600052602260045260246000fd5b50919050565b601f8211156104de57600081815260208120601f850160051c81016020861015610ff45750805b601f850160051c820191505b8181101561097357828155600101611000565b81810361101e575050565b6110288254610f93565b67ffffffffffffffff81111561104057611040610e1c565b6110548161104e8454610f93565b84610fcd565b6000601f82116001811461108857600083156110705750848201545b600019600385901b1c1916600184901b1784556107c2565b600085815260209020601f19841690600086815260209020845b838110156110c257828601548255600195860195909101906020016110a2565b50858310156110e05781850154600019600388901b60f8161c191681555b5050505050600190811b01905550565b60208082526023908201527f4f6e6c792050617469656e742043616e204d616b65205265636f7264204368616040820152626e676560e81b606082015260800190565b815167ffffffffffffffff81111561114d5761114d610e1c565b61115b8161104e8454610f93565b602080601f83116001811461119057600084156111785750858301515b600019600386901b1c1916600185901b178555610973565b600085815260208120601f198616915b828110156111bf578886015182559484019460019091019084016111a0565b50858210156110e057939096015160001960f8600387901b161c19169092555050600190811b01905550565b7f416363657373436f6e74726f6c3a206163636f756e7420000000000000000000815260008351611223816017850160208801610d05565b7001034b99036b4b9b9b4b733903937b6329607d1b6017918401918201528351611254816028840160208801610d05565b01602801949350505050565b634e487b7160e01b600052601160045260246000fd5b80820281158282048414176102c4576102c4611260565b808201808211156102c4576102c4611260565b634e487b7160e01b600052603260045260246000fd5b6000816112c5576112c5611260565b50600019019056fe72606200fac42b7dc86b75901d61ecfab2a4a1a6eded478b97a428094891abeda264697066735822122072f44d9ca79cfcd0ceaa352a7cef964e24f7598e1e08704f3251cf5d12e9d29c64736f6c63430008110033",
  "linkReferences": {},
  "deployedLinkReferences": {}
}