{
  "_format": "hh-sol-artifact-1",
  "contractName": "AppointmentManagement",
  "sourceName": "contracts/AppointmentManagement.sol",
  "abi": [
    {
      "anonymous": false,
      "inputs": [
        {
          "indexed": false,
          "internalType": "uint256",
          "name": "appointmentId",
          "type": "uint256"
        },
        {
          "indexed": true,
          "internalType": "address",
          "name": "patient",
          "type": "address"
        },
        {
          "indexed": true,
          "internalType": "address",
          "name": "doctor",
          "type": "address"
        },
        {
          "indexed": false,
          "internalType": "uint256",
          "name": "timestamp",
          "type": "uint256"
        }
      ],
      "name": "AppointmentApproved",
      "type": "event"
    },
    {
      "anonymous": false,
      "inputs": [
        {
          "indexed": false,
          "internalType": "uint256",
          "name": "appointmentId",
          "type": "uint256"
        },
        {
          "indexed": true,
          "internalType": "address",
          "name": "patient",
          "type": "address"
        },
        {
          "indexed": true,
          "internalType": "address",
          "name": "doctor",
          "type": "address"
        },
        {
          "indexed": false,
          "internalType": "uint256",
          "name": "timestamp",
          "type": "uint256"
        }
      ],
      "name": "AppointmentCanceled",
      "type": "event"
    },
    {
      "anonymous": false,
      "inputs": [
        {
          "indexed": false,
          "internalType": "uint256",
          "name": "appointmentId",
          "type": "uint256"
        },
        {
          "indexed": true,
          "internalType": "address",
          "name": "patient",
          "type": "address"
        },
        {
          "indexed": true,
          "internalType": "address",
          "name": "doctor",
          "type": "address"
        },
        {
          "indexed": false,
          "internalType": "uint256",
          "name": "timestamp",
          "type": "uint256"
        }
      ],
      "name": "AppointmentRequested",
      "type": "event"
    },
    {
      "inputs": [
        {
          "internalType": "uint256",
          "name": "",
          "type": "uint256"
        }
      ],
      "name": "appointments",
      "outputs": [
        {
          "internalType": "uint256",
          "name": "id",
          "type": "uint256"
        },
        {
          "internalType": "address",
          "name": "patient",
          "type": "address"
        },
        {
          "internalType": "address",
          "name": "doctor",
          "type": "address"
        },
        {
          "internalType": "uint256",
          "name": "timestamp",
          "type": "uint256"
        },
        {
          "internalType": "enum AppointmentManagement.AppointmentStatus",
          "name": "status",
          "type": "uint8"
        }
      ],
      "stateMutability": "view",
      "type": "function"
    },
    {
      "inputs": [
        {
          "internalType": "uint256",
          "name": "_appointmentId",
          "type": "uint256"
        }
      ],
      "name": "approveAppointment",
      "outputs": [],
      "stateMutability": "nonpayable",
      "type": "function"
    },
    {
      "inputs": [
        {
          "internalType": "uint256",
          "name": "_appointmentId",
          "type": "uint256"
        }
      ],
      "name": "cancelAppointment",
      "outputs": [],
      "stateMutability": "nonpayable",
      "type": "function"
    },
    {
      "inputs": [],
      "name": "nextAppointmentId",
      "outputs": [
        {
          "internalType": "uint256",
          "name": "",
          "type": "uint256"
        }
      ],
      "stateMutability": "view",
      "type": "function"
    },
    {
      "inputs": [
        {
          "internalType": "address",
          "name": "_doctor",
          "type": "address"
        },
        {
          "internalType": "uint256",
          "name": "_timestamp",
          "type": "uint256"
        }
      ],
      "name": "requestAppointment",
      "outputs": [],
      "stateMutability": "nonpayable",
      "type": "function"
    }
  ],
  "bytecode": "0x60806040526040516100109061007e565b604051809103906000f08015801561002c573d6000803e3d6000fd5b506000806101000a81548173ffffffffffffffffffffffffffffffffffffffff021916908373ffffffffffffffffffffffffffffffffffffffff16021790555034801561007857600080fd5b5061008b565b611b8480610fe183390190565b610f478061009a6000396000f3fe608060405234801561001057600080fd5b50600436106100575760003560e01c8063064eac8a1461005c57806312dc90131461007857806389dcc4a2146100ac578063a7e64405146100ca578063cda8fd6c146100e6575b600080fd5b610076600480360381019061007191906108be565b610102565b005b610092600480360381019061008d91906108be565b6103de565b6040516100a39594939291906109b2565b60405180910390f35b6100b4610461565b6040516100c19190610a05565b60405180910390f35b6100e460048036038101906100df91906108be565b610467565b005b61010060048036038101906100fb9190610a4c565b61066c565b005b60008054906101000a900473ffffffffffffffffffffffffffffffffffffffff1673ffffffffffffffffffffffffffffffffffffffff166391d1485460008054906101000a900473ffffffffffffffffffffffffffffffffffffffff1673ffffffffffffffffffffffffffffffffffffffff1663fec331f26040518163ffffffff1660e01b8152600401602060405180830381865afa1580156101a9573d6000803e3d6000fd5b505050506040513d601f19601f820116820180604052508101906101cd9190610ac2565b336040518363ffffffff1660e01b81526004016101eb929190610afe565b602060405180830381865afa158015610208573d6000803e3d6000fd5b505050506040513d601f19601f8201168201806040525081019061022c9190610b5f565b61026b576040517f08c379a000000000000000000000000000000000000000000000000000000000815260040161026290610be9565b60405180910390fd5b6000600260008381526020019081526020016000209050600060028111156102965761029561093b565b5b8160040160009054906101000a900460ff1660028111156102ba576102b961093b565b5b146102fa576040517f08c379a00000000000000000000000000000000000000000000000000000000081526004016102f190610c55565b60405180910390fd5b60018160040160006101000a81548160ff021916908360028111156103225761032161093b565b5b02179055508060020160009054906101000a900473ffffffffffffffffffffffffffffffffffffffff1673ffffffffffffffffffffffffffffffffffffffff168160010160009054906101000a900473ffffffffffffffffffffffffffffffffffffffff1673ffffffffffffffffffffffffffffffffffffffff167f3accefe36e6020989d21542ec3e865dfa7210ec1ae5bd29136cc80a3563d53898484600301546040516103d2929190610c75565b60405180910390a35050565b60026020528060005260406000206000915090508060000154908060010160009054906101000a900473ffffffffffffffffffffffffffffffffffffffff16908060020160009054906101000a900473ffffffffffffffffffffffffffffffffffffffff16908060030154908060040160009054906101000a900460ff16905085565b60015481565b60006002600083815260200190815260200160002090503373ffffffffffffffffffffffffffffffffffffffff168160010160009054906101000a900473ffffffffffffffffffffffffffffffffffffffff1673ffffffffffffffffffffffffffffffffffffffff1614610510576040517f08c379a000000000000000000000000000000000000000000000000000000000815260040161050790610d10565b60405180910390fd5b600060028111156105245761052361093b565b5b8160040160009054906101000a900460ff1660028111156105485761054761093b565b5b14610588576040517f08c379a000000000000000000000000000000000000000000000000000000000815260040161057f90610d7c565b60405180910390fd5b60028160040160006101000a81548160ff021916908360028111156105b0576105af61093b565b5b02179055508060020160009054906101000a900473ffffffffffffffffffffffffffffffffffffffff1673ffffffffffffffffffffffffffffffffffffffff168160010160009054906101000a900473ffffffffffffffffffffffffffffffffffffffff1673ffffffffffffffffffffffffffffffffffffffff167f262c2797bd467183b2bff0c588400bf678d5c73f47b6f082cf8d2aa09db0c571848460030154604051610660929190610c75565b60405180910390a35050565b600073ffffffffffffffffffffffffffffffffffffffff168273ffffffffffffffffffffffffffffffffffffffff16036106db576040517f08c379a00000000000000000000000000000000000000000000000000000000081526004016106d290610de8565b60405180910390fd5b42811161071d576040517f08c379a000000000000000000000000000000000000000000000000000000000815260040161071490610e7a565b60405180910390fd5b600060026000600154815260200190815260200160002090506001548160000181905550338160010160006101000a81548173ffffffffffffffffffffffffffffffffffffffff021916908373ffffffffffffffffffffffffffffffffffffffff160217905550828160020160006101000a81548173ffffffffffffffffffffffffffffffffffffffff021916908373ffffffffffffffffffffffffffffffffffffffff16021790555081816003018190555060008160040160006101000a81548160ff021916908360028111156107f8576107f761093b565b5b02179055508273ffffffffffffffffffffffffffffffffffffffff163373ffffffffffffffffffffffffffffffffffffffff167f2d3b79f0206d52208ed3fd7bcefd665b5800acfbed130897d8da64d27f3244826001548560405161085e929190610c75565b60405180910390a36001600081548092919061087990610ec9565b9190505550505050565b600080fd5b6000819050919050565b61089b81610888565b81146108a657600080fd5b50565b6000813590506108b881610892565b92915050565b6000602082840312156108d4576108d3610883565b5b60006108e2848285016108a9565b91505092915050565b6108f481610888565b82525050565b600073ffffffffffffffffffffffffffffffffffffffff82169050919050565b6000610925826108fa565b9050919050565b6109358161091a565b82525050565b7f4e487b7100000000000000000000000000000000000000000000000000000000600052602160045260246000fd5b6003811061097b5761097a61093b565b5b50565b600081905061098c8261096a565b919050565b600061099c8261097e565b9050919050565b6109ac81610991565b82525050565b600060a0820190506109c760008301886108eb565b6109d4602083018761092c565b6109e1604083018661092c565b6109ee60608301856108eb565b6109fb60808301846109a3565b9695505050505050565b6000602082019050610a1a60008301846108eb565b92915050565b610a298161091a565b8114610a3457600080fd5b50565b600081359050610a4681610a20565b92915050565b60008060408385031215610a6357610a62610883565b5b6000610a7185828601610a37565b9250506020610a82858286016108a9565b9150509250929050565b6000819050919050565b610a9f81610a8c565b8114610aaa57600080fd5b50565b600081519050610abc81610a96565b92915050565b600060208284031215610ad857610ad7610883565b5b6000610ae684828501610aad565b91505092915050565b610af881610a8c565b82525050565b6000604082019050610b136000830185610aef565b610b20602083018461092c565b9392505050565b60008115159050919050565b610b3c81610b27565b8114610b4757600080fd5b50565b600081519050610b5981610b33565b92915050565b600060208284031215610b7557610b74610883565b5b6000610b8384828501610b4a565b91505092915050565b600082825260208201905092915050565b7f43616c6c6572206973206e6f74206120646f63746f7200000000000000000000600082015250565b6000610bd3601683610b8c565b9150610bde82610b9d565b602082019050919050565b60006020820190508181036000830152610c0281610bc6565b9050919050565b7f4170706f696e746d656e742063616e6e6f7420626520617070726f7665640000600082015250565b6000610c3f601e83610b8c565b9150610c4a82610c09565b602082019050919050565b60006020820190508181036000830152610c6e81610c32565b9050919050565b6000604082019050610c8a60008301856108eb565b610c9760208301846108eb565b9392505050565b7f4f6e6c79207468652070617469656e742063616e2063616e63656c207468652060008201527f6170706f696e746d656e74000000000000000000000000000000000000000000602082015250565b6000610cfa602b83610b8c565b9150610d0582610c9e565b604082019050919050565b60006020820190508181036000830152610d2981610ced565b9050919050565b7f4170706f696e746d656e742063616e6e6f742062652063616e63656c65640000600082015250565b6000610d66601e83610b8c565b9150610d7182610d30565b602082019050919050565b60006020820190508181036000830152610d9581610d59565b9050919050565b7f446f63746f7220616464726573732063616e6e6f74206265207a65726f000000600082015250565b6000610dd2601d83610b8c565b9150610ddd82610d9c565b602082019050919050565b60006020820190508181036000830152610e0181610dc5565b9050919050565b7f4170706f696e746d656e7473206d757374206265207363686564756c6564206960008201527f6e20746865206675747572650000000000000000000000000000000000000000602082015250565b6000610e64602c83610b8c565b9150610e6f82610e08565b604082019050919050565b60006020820190508181036000830152610e9381610e57565b9050919050565b7f4e487b7100000000000000000000000000000000000000000000000000000000600052601160045260246000fd5b6000610ed482610888565b91507fffffffffffffffffffffffffffffffffffffffffffffffffffffffffffffffff8203610f0657610f05610e9a565b5b60018201905091905056fea2646970667358221220fc8e5c883ce6d71435a6363f7d76edb4d4e2c939051e7c6fca6aee19494cd56664736f6c6343000813003360806040523480156200001157600080fd5b50620000276000801b336200006e60201b60201c565b33600160006101000a81548173ffffffffffffffffffffffffffffffffffffffff021916908373ffffffffffffffffffffffffffffffffffffffff160217905550620001e7565b6200008082826200008460201b60201c565b5050565b6200009682826200017560201b60201c565b6200017157600160008084815260200190815260200160002060000160008373ffffffffffffffffffffffffffffffffffffffff1673ffffffffffffffffffffffffffffffffffffffff16815260200190815260200160002060006101000a81548160ff02191690831515021790555062000116620001df60201b60201c565b73ffffffffffffffffffffffffffffffffffffffff168173ffffffffffffffffffffffffffffffffffffffff16837f2f8788117e7eff1d82e926ec794901d17c78024a50270940304540a733656f0d60405160405180910390a45b5050565b600080600084815260200190815260200160002060000160008373ffffffffffffffffffffffffffffffffffffffff1673ffffffffffffffffffffffffffffffffffffffff16815260200190815260200160002060009054906101000a900460ff16905092915050565b600033905090565b61198d80620001f76000396000f3fe608060405234801561001057600080fd5b50600436106100a95760003560e01c8063833b46bb11610071578063833b46bb1461016457806391d1485414610180578063a217fddf146101b0578063a9583c22146101ce578063d547741f146101ff578063fec331f21461021b576100a9565b806301ffc9a7146100ae578063248a9ca3146100de5780632f2ff15d1461010e57806336568abe1461012a5780633aaa592014610146575b600080fd5b6100c860048036038101906100c39190610da3565b610239565b6040516100d59190610deb565b60405180910390f35b6100f860048036038101906100f39190610e3c565b6102b3565b6040516101059190610e78565b60405180910390f35b61012860048036038101906101239190610ef1565b6102d2565b005b610144600480360381019061013f9190610ef1565b6102f3565b005b61014e610376565b60405161015b91906110c7565b60405180910390f35b61017e6004803603810190610179919061121e565b6104f9565b005b61019a60048036038101906101959190610ef1565b610618565b6040516101a79190610deb565b60405180910390f35b6101b8610682565b6040516101c59190610e78565b60405180910390f35b6101e860048036038101906101e39190611296565b610689565b6040516101f692919061130d565b60405180910390f35b61021960048036038101906102149190610ef1565b6107bd565b005b6102236107de565b6040516102309190610e78565b60405180910390f35b60007f7965db0b000000000000000000000000000000000000000000000000000000007bffffffffffffffffffffffffffffffffffffffffffffffffffffffff1916827bffffffffffffffffffffffffffffffffffffffffffffffffffffffff191614806102ac57506102ab82610802565b5b9050919050565b6000806000838152602001908152602001600020600101549050919050565b6102db826102b3565b6102e48161086c565b6102ee8383610880565b505050565b6102fb610960565b73ffffffffffffffffffffffffffffffffffffffff168173ffffffffffffffffffffffffffffffffffffffff1614610368576040517f08c379a000000000000000000000000000000000000000000000000000000000815260040161035f906113b6565b60405180910390fd5b6103728282610968565b5050565b60606003805480602002602001604051908101604052809291908181526020016000905b828210156104f057838290600052602060002090600202016040518060400160405290816000820180546103cd90611405565b80601f01602080910402602001604051908101604052809291908181526020018280546103f990611405565b80156104465780601f1061041b57610100808354040283529160200191610446565b820191906000526020600020905b81548152906001019060200180831161042957829003601f168201915b5050505050815260200160018201805461045f90611405565b80601f016020809104026020016040519081016040528092919081815260200182805461048b90611405565b80156104d85780601f106104ad576101008083540402835291602001916104d8565b820191906000526020600020905b8154815290600101906020018083116104bb57829003601f168201915b5050505050815250508152602001906001019061039a565b50505050905090565b604051806040016040528083815260200182815250600260003373ffffffffffffffffffffffffffffffffffffffff1673ffffffffffffffffffffffffffffffffffffffff168152602001908152602001600020600082015181600001908161056291906115ec565b50602082015181600101908161057891906115ec565b509050506003604051806040016040528084815260200183815250908060018154018082558091505060019003906000526020600020906002020160009091909190915060008201518160000190816105d191906115ec565b5060208201518160010190816105e791906115ec565b5050506106147f0af1dac7dea2fd7f7738119cec7df099dfad49aa9d2e7d17ba6b60f63ae7411f336102d2565b5050565b600080600084815260200190815260200160002060000160008373ffffffffffffffffffffffffffffffffffffffff1673ffffffffffffffffffffffffffffffffffffffff16815260200190815260200160002060009054906101000a900460ff16905092915050565b6000801b81565b60026020528060005260406000206000915090508060000180546106ac90611405565b80601f01602080910402602001604051908101604052809291908181526020018280546106d890611405565b80156107255780601f106106fa57610100808354040283529160200191610725565b820191906000526020600020905b81548152906001019060200180831161070857829003601f168201915b50505050509080600101805461073a90611405565b80601f016020809104026020016040519081016040528092919081815260200182805461076690611405565b80156107b35780601f10610788576101008083540402835291602001916107b3565b820191906000526020600020905b81548152906001019060200180831161079657829003601f168201915b5050505050905082565b6107c6826102b3565b6107cf8161086c565b6107d98383610968565b505050565b7f0af1dac7dea2fd7f7738119cec7df099dfad49aa9d2e7d17ba6b60f63ae7411f81565b60007f01ffc9a7000000000000000000000000000000000000000000000000000000007bffffffffffffffffffffffffffffffffffffffffffffffffffffffff1916827bffffffffffffffffffffffffffffffffffffffffffffffffffffffff1916149050919050565b61087d81610878610960565b610a49565b50565b61088a8282610618565b61095c57600160008084815260200190815260200160002060000160008373ffffffffffffffffffffffffffffffffffffffff1673ffffffffffffffffffffffffffffffffffffffff16815260200190815260200160002060006101000a81548160ff021916908315150217905550610901610960565b73ffffffffffffffffffffffffffffffffffffffff168173ffffffffffffffffffffffffffffffffffffffff16837f2f8788117e7eff1d82e926ec794901d17c78024a50270940304540a733656f0d60405160405180910390a45b5050565b600033905090565b6109728282610618565b15610a4557600080600084815260200190815260200160002060000160008373ffffffffffffffffffffffffffffffffffffffff1673ffffffffffffffffffffffffffffffffffffffff16815260200190815260200160002060006101000a81548160ff0219169083151502179055506109ea610960565b73ffffffffffffffffffffffffffffffffffffffff168173ffffffffffffffffffffffffffffffffffffffff16837ff6391f5c32d9c69d2a47ea670b442974b53935d1edc7fd64eb21e047a839171b60405160405180910390a45b5050565b610a538282610618565b610aca57610a6081610ace565b610a6e8360001c6020610afb565b604051602001610a7f929190611792565b6040516020818303038152906040526040517f08c379a0000000000000000000000000000000000000000000000000000000008152600401610ac191906117cc565b60405180910390fd5b5050565b6060610af48273ffffffffffffffffffffffffffffffffffffffff16601460ff16610afb565b9050919050565b606060006002836002610b0e919061181d565b610b18919061185f565b67ffffffffffffffff811115610b3157610b306110f3565b5b6040519080825280601f01601f191660200182016040528015610b635781602001600182028036833780820191505090505b5090507f300000000000000000000000000000000000000000000000000000000000000081600081518110610b9b57610b9a611893565b5b60200101907effffffffffffffffffffffffffffffffffffffffffffffffffffffffffffff1916908160001a9053507f780000000000000000000000000000000000000000000000000000000000000081600181518110610bff57610bfe611893565b5b60200101907effffffffffffffffffffffffffffffffffffffffffffffffffffffffffffff1916908160001a90535060006001846002610c3f919061181d565b610c49919061185f565b90505b6001811115610ce9577f3031323334353637383961626364656600000000000000000000000000000000600f861660108110610c8b57610c8a611893565b5b1a60f81b828281518110610ca257610ca1611893565b5b60200101907effffffffffffffffffffffffffffffffffffffffffffffffffffffffffffff1916908160001a905350600485901c945080610ce2906118c2565b9050610c4c565b5060008414610d2d576040517f08c379a0000000000000000000000000000000000000000000000000000000008152600401610d2490611937565b60405180910390fd5b8091505092915050565b6000604051905090565b600080fd5b600080fd5b60007fffffffff0000000000000000000000000000000000000000000000000000000082169050919050565b610d8081610d4b565b8114610d8b57600080fd5b50565b600081359050610d9d81610d77565b92915050565b600060208284031215610db957610db8610d41565b5b6000610dc784828501610d8e565b91505092915050565b60008115159050919050565b610de581610dd0565b82525050565b6000602082019050610e006000830184610ddc565b92915050565b6000819050919050565b610e1981610e06565b8114610e2457600080fd5b50565b600081359050610e3681610e10565b92915050565b600060208284031215610e5257610e51610d41565b5b6000610e6084828501610e27565b91505092915050565b610e7281610e06565b82525050565b6000602082019050610e8d6000830184610e69565b92915050565b600073ffffffffffffffffffffffffffffffffffffffff82169050919050565b6000610ebe82610e93565b9050919050565b610ece81610eb3565b8114610ed957600080fd5b50565b600081359050610eeb81610ec5565b92915050565b60008060408385031215610f0857610f07610d41565b5b6000610f1685828601610e27565b9250506020610f2785828601610edc565b9150509250929050565b600081519050919050565b600082825260208201905092915050565b6000819050602082019050919050565b600081519050919050565b600082825260208201905092915050565b60005b83811015610f97578082015181840152602081019050610f7c565b60008484015250505050565b6000601f19601f8301169050919050565b6000610fbf82610f5d565b610fc98185610f68565b9350610fd9818560208601610f79565b610fe281610fa3565b840191505092915050565b6000604083016000830151848203600086015261100a8282610fb4565b915050602083015184820360208601526110248282610fb4565b9150508091505092915050565b600061103d8383610fed565b905092915050565b6000602082019050919050565b600061105d82610f31565b6110678185610f3c565b93508360208202850161107985610f4d565b8060005b858110156110b557848403895281516110968582611031565b94506110a183611045565b925060208a0199505060018101905061107d565b50829750879550505050505092915050565b600060208201905081810360008301526110e18184611052565b905092915050565b600080fd5b600080fd5b7f4e487b7100000000000000000000000000000000000000000000000000000000600052604160045260246000fd5b61112b82610fa3565b810181811067ffffffffffffffff8211171561114a576111496110f3565b5b80604052505050565b600061115d610d37565b90506111698282611122565b919050565b600067ffffffffffffffff821115611189576111886110f3565b5b61119282610fa3565b9050602081019050919050565b82818337600083830152505050565b60006111c16111bc8461116e565b611153565b9050828152602081018484840111156111dd576111dc6110ee565b5b6111e884828561119f565b509392505050565b600082601f830112611205576112046110e9565b5b81356112158482602086016111ae565b91505092915050565b6000806040838503121561123557611234610d41565b5b600083013567ffffffffffffffff81111561125357611252610d46565b5b61125f858286016111f0565b925050602083013567ffffffffffffffff8111156112805761127f610d46565b5b61128c858286016111f0565b9150509250929050565b6000602082840312156112ac576112ab610d41565b5b60006112ba84828501610edc565b91505092915050565b600082825260208201905092915050565b60006112df82610f5d565b6112e981856112c3565b93506112f9818560208601610f79565b61130281610fa3565b840191505092915050565b6000604082019050818103600083015261132781856112d4565b9050818103602083015261133b81846112d4565b90509392505050565b7f416363657373436f6e74726f6c3a2063616e206f6e6c792072656e6f756e636560008201527f20726f6c657320666f722073656c660000000000000000000000000000000000602082015250565b60006113a0602f836112c3565b91506113ab82611344565b604082019050919050565b600060208201905081810360008301526113cf81611393565b9050919050565b7f4e487b7100000000000000000000000000000000000000000000000000000000600052602260045260246000fd5b6000600282049050600182168061141d57607f821691505b6020821081036114305761142f6113d6565b5b50919050565b60008190508160005260206000209050919050565b60006020601f8301049050919050565b600082821b905092915050565b6000600883026114987fffffffffffffffffffffffffffffffffffffffffffffffffffffffffffffffff8261145b565b6114a2868361145b565b95508019841693508086168417925050509392505050565b6000819050919050565b6000819050919050565b60006114e96114e46114df846114ba565b6114c4565b6114ba565b9050919050565b6000819050919050565b611503836114ce565b61151761150f826114f0565b848454611468565b825550505050565b600090565b61152c61151f565b6115378184846114fa565b505050565b5b8181101561155b57611550600082611524565b60018101905061153d565b5050565b601f8211156115a05761157181611436565b61157a8461144b565b81016020851015611589578190505b61159d6115958561144b565b83018261153c565b50505b505050565b600082821c905092915050565b60006115c3600019846008026115a5565b1980831691505092915050565b60006115dc83836115b2565b9150826002028217905092915050565b6115f582610f5d565b67ffffffffffffffff81111561160e5761160d6110f3565b5b6116188254611405565b61162382828561155f565b600060209050601f8311600181146116565760008415611644578287015190505b61164e85826115d0565b8655506116b6565b601f19841661166486611436565b60005b8281101561168c57848901518255600182019150602085019450602081019050611667565b868310156116a957848901516116a5601f8916826115b2565b8355505b6001600288020188555050505b505050505050565b600081905092915050565b7f416363657373436f6e74726f6c3a206163636f756e7420000000000000000000600082015250565b60006116ff6017836116be565b915061170a826116c9565b601782019050919050565b600061172082610f5d565b61172a81856116be565b935061173a818560208601610f79565b80840191505092915050565b7f206973206d697373696e6720726f6c6520000000000000000000000000000000600082015250565b600061177c6011836116be565b915061178782611746565b601182019050919050565b600061179d826116f2565b91506117a98285611715565b91506117b48261176f565b91506117c08284611715565b91508190509392505050565b600060208201905081810360008301526117e681846112d4565b905092915050565b7f4e487b7100000000000000000000000000000000000000000000000000000000600052601160045260246000fd5b6000611828826114ba565b9150611833836114ba565b9250828202611841816114ba565b91508282048414831517611858576118576117ee565b5b5092915050565b600061186a826114ba565b9150611875836114ba565b925082820190508082111561188d5761188c6117ee565b5b92915050565b7f4e487b7100000000000000000000000000000000000000000000000000000000600052603260045260246000fd5b60006118cd826114ba565b9150600082036118e0576118df6117ee565b5b600182039050919050565b7f537472696e67733a20686578206c656e67746820696e73756666696369656e74600082015250565b60006119216020836112c3565b915061192c826118eb565b602082019050919050565b6000602082019050818103600083015261195081611914565b905091905056fea26469706673582212205286a339f1ca8fd2644e4cf93bef570d083df1e9ed595d9f46559c61c5847e6864736f6c63430008130033",
  "linkReferences": {},
  "deployedLinkReferences": {}
}