{
	"contracts/Afyapp.sol": {
		"Upload": {
			"abi": [
				{
					"inputs": [
						{
							"internalType": "address",
							"name": "_user",
							"type": "address"
						},
						{
							"internalType": "string",
							"name": "url",
							"type": "string"
						}
					],
					"name": "add",
					"outputs": [],
					"stateMutability": "nonpayable",
					"type": "function"
				},
				{
					"inputs": [
						{
							"internalType": "address",
							"name": "user",
							"type": "address"
						}
					],
					"name": "allow",
					"outputs": [],
					"stateMutability": "nonpayable",
					"type": "function"
				},
				{
					"inputs": [
						{
							"internalType": "address",
							"name": "user",
							"type": "address"
						}
					],
					"name": "disallow",
					"outputs": [],
					"stateMutability": "nonpayable",
					"type": "function"
				},
				{
					"inputs": [
						{
							"internalType": "address",
							"name": "_user",
							"type": "address"
						}
					],
					"name": "display",
					"outputs": [
						{
							"internalType": "string[]",
							"name": "",
							"type": "string[]"
						}
					],
					"stateMutability": "view",
					"type": "function"
				},
				{
					"inputs": [],
					"name": "shareAccess",
					"outputs": [
						{
							"components": [
								{
									"internalType": "address",
									"name": "user",
									"type": "address"
								},
								{
									"internalType": "bool",
									"name": "access",
									"type": "bool"
								}
							],
							"internalType": "struct Upload.Access[]",
							"name": "",
							"type": "tuple[]"
						}
					],
					"stateMutability": "view",
					"type": "function"
				}
			],
			"devdoc": {
				"kind": "dev",
				"methods": {},
				"version": 1
			},
			"evm": {
				"assembly": "    /* \"contracts/Afyapp.sol\":74:1544  contract Upload {... */\n  mstore(0x40, 0x80)\n  callvalue\n  dup1\n  iszero\n  tag_1\n  jumpi\n  0x00\n  dup1\n  revert\ntag_1:\n  pop\n  dataSize(sub_0)\n  dup1\n  dataOffset(sub_0)\n  0x00\n  codecopy\n  0x00\n  return\nstop\n\nsub_0: assembly {\n        /* \"contracts/Afyapp.sol\":74:1544  contract Upload {... */\n      mstore(0x40, 0x80)\n      callvalue\n      dup1\n      iszero\n      tag_1\n      jumpi\n      0x00\n      dup1\n      revert\n    tag_1:\n      pop\n      jumpi(tag_2, lt(calldatasize, 0x04))\n      shr(0xe0, calldataload(0x00))\n      dup1\n      0x36d6da55\n      eq\n      tag_3\n      jumpi\n      dup1\n      0xa9ed9cb8\n      eq\n      tag_4\n      jumpi\n      dup1\n      0xbc8bef81\n      eq\n      tag_5\n      jumpi\n      dup1\n      0xeb39113f\n      eq\n      tag_6\n      jumpi\n      dup1\n      0xff9913e8\n      eq\n      tag_7\n      jumpi\n    tag_2:\n      0x00\n      dup1\n      revert\n        /* \"contracts/Afyapp.sol\":372:464  function add(address _user,string memory url) external {... */\n    tag_3:\n      tag_8\n      0x04\n      dup1\n      calldatasize\n      sub\n      dup2\n      add\n      swap1\n      tag_9\n      swap2\n      swap1\n      tag_10\n      jump\t// in\n    tag_9:\n      tag_11\n      jump\t// in\n    tag_8:\n      stop\n        /* \"contracts/Afyapp.sol\":954:1231  function disallow(address user) public{... */\n    tag_4:\n      tag_12\n      0x04\n      dup1\n      calldatasize\n      sub\n      dup2\n      add\n      swap1\n      tag_13\n      swap2\n      swap1\n      tag_14\n      jump\t// in\n    tag_13:\n      tag_15\n      jump\t// in\n    tag_12:\n      stop\n        /* \"contracts/Afyapp.sol\":1438:1541  function shareAccess() public view returns(Access[] memory){... */\n    tag_5:\n      tag_16\n      tag_17\n      jump\t// in\n    tag_16:\n      mload(0x40)\n      tag_18\n      swap2\n      swap1\n      tag_19\n      jump\t// in\n    tag_18:\n      mload(0x40)\n      dup1\n      swap2\n      sub\n      swap1\n      return\n        /* \"contracts/Afyapp.sol\":1237:1432  function display(address _user) external view returns(string[] memory){... */\n    tag_6:\n      tag_20\n      0x04\n      dup1\n      calldatasize\n      sub\n      dup2\n      add\n      swap1\n      tag_21\n      swap2\n      swap1\n      tag_14\n      jump\t// in\n    tag_21:\n      tag_22\n      jump\t// in\n    tag_20:\n      mload(0x40)\n      tag_23\n      swap2\n      swap1\n      tag_24\n      jump\t// in\n    tag_23:\n      mload(0x40)\n      dup1\n      swap2\n      sub\n      swap1\n      return\n        /* \"contracts/Afyapp.sol\":472:950  function allow(address user) external {//def... */\n    tag_7:\n      tag_25\n      0x04\n      dup1\n      calldatasize\n      sub\n      dup2\n      add\n      swap1\n      tag_26\n      swap2\n      swap1\n      tag_14\n      jump\t// in\n    tag_26:\n      tag_27\n      jump\t// in\n    tag_25:\n      stop\n        /* \"contracts/Afyapp.sol\":372:464  function add(address _user,string memory url) external {... */\n    tag_11:\n        /* \"contracts/Afyapp.sol\":436:441  value */\n      0x00\n        /* \"contracts/Afyapp.sol\":436:448  value[_user] */\n      dup1\n        /* \"contracts/Afyapp.sol\":442:447  _user */\n      dup4\n        /* \"contracts/Afyapp.sol\":436:448  value[_user] */\n      0xffffffffffffffffffffffffffffffffffffffff\n      and\n      0xffffffffffffffffffffffffffffffffffffffff\n      and\n      dup2\n      mstore\n      0x20\n      add\n      swap1\n      dup2\n      mstore\n      0x20\n      add\n      0x00\n      keccak256\n        /* \"contracts/Afyapp.sol\":454:457  url */\n      dup2\n        /* \"contracts/Afyapp.sol\":436:458  value[_user].push(url) */\n      swap1\n      dup1\n      0x01\n      dup2\n      sload\n      add\n      dup1\n      dup3\n      sstore\n      dup1\n      swap2\n      pop\n      pop\n      0x01\n      swap1\n      sub\n      swap1\n      0x00\n      mstore\n      keccak256(0x00, 0x20)\n      add\n      0x00\n      swap1\n      swap2\n      swap1\n      swap2\n      swap1\n      swap2\n      pop\n      swap1\n      dup2\n      tag_30\n      swap2\n      swap1\n      tag_31\n      jump\t// in\n    tag_30:\n      pop\n        /* \"contracts/Afyapp.sol\":372:464  function add(address _user,string memory url) external {... */\n      pop\n      pop\n      jump\t// out\n        /* \"contracts/Afyapp.sol\":954:1231  function disallow(address user) public{... */\n    tag_15:\n        /* \"contracts/Afyapp.sol\":1029:1034  false */\n      0x00\n        /* \"contracts/Afyapp.sol\":1001:1010  ownership */\n      0x01\n        /* \"contracts/Afyapp.sol\":1001:1022  ownership[msg.sender] */\n      0x00\n        /* \"contracts/Afyapp.sol\":1011:1021  msg.sender */\n      caller\n        /* \"contracts/Afyapp.sol\":1001:1022  ownership[msg.sender] */\n      0xffffffffffffffffffffffffffffffffffffffff\n      and\n      0xffffffffffffffffffffffffffffffffffffffff\n      and\n      dup2\n      mstore\n      0x20\n      add\n      swap1\n      dup2\n      mstore\n      0x20\n      add\n      0x00\n      keccak256\n        /* \"contracts/Afyapp.sol\":1001:1028  ownership[msg.sender][user] */\n      0x00\n        /* \"contracts/Afyapp.sol\":1023:1027  user */\n      dup4\n        /* \"contracts/Afyapp.sol\":1001:1028  ownership[msg.sender][user] */\n      0xffffffffffffffffffffffffffffffffffffffff\n      and\n      0xffffffffffffffffffffffffffffffffffffffff\n      and\n      dup2\n      mstore\n      0x20\n      add\n      swap1\n      dup2\n      mstore\n      0x20\n      add\n      0x00\n      keccak256\n      0x00\n        /* \"contracts/Afyapp.sol\":1001:1034  ownership[msg.sender][user]=false */\n      0x0100\n      exp\n      dup2\n      sload\n      dup2\n      0xff\n      mul\n      not\n      and\n      swap1\n      dup4\n      iszero\n      iszero\n      mul\n      or\n      swap1\n      sstore\n      pop\n        /* \"contracts/Afyapp.sol\":1047:1053  uint i */\n      0x00\n        /* \"contracts/Afyapp.sol\":1043:1226  for(uint i=0;i<accessList[msg.sender].length;i++){... */\n    tag_33:\n        /* \"contracts/Afyapp.sol\":1058:1068  accessList */\n      0x02\n        /* \"contracts/Afyapp.sol\":1058:1080  accessList[msg.sender] */\n      0x00\n        /* \"contracts/Afyapp.sol\":1069:1079  msg.sender */\n      caller\n        /* \"contracts/Afyapp.sol\":1058:1080  accessList[msg.sender] */\n      0xffffffffffffffffffffffffffffffffffffffff\n      and\n      0xffffffffffffffffffffffffffffffffffffffff\n      and\n      dup2\n      mstore\n      0x20\n      add\n      swap1\n      dup2\n      mstore\n      0x20\n      add\n      0x00\n      keccak256\n        /* \"contracts/Afyapp.sol\":1058:1087  accessList[msg.sender].length */\n      dup1\n      sload\n      swap1\n      pop\n        /* \"contracts/Afyapp.sol\":1056:1057  i */\n      dup2\n        /* \"contracts/Afyapp.sol\":1056:1087  i<accessList[msg.sender].length */\n      lt\n        /* \"contracts/Afyapp.sol\":1043:1226  for(uint i=0;i<accessList[msg.sender].length;i++){... */\n      iszero\n      tag_34\n      jumpi\n        /* \"contracts/Afyapp.sol\":1140:1144  user */\n      dup2\n        /* \"contracts/Afyapp.sol\":1108:1144  accessList[msg.sender][i].user==user */\n      0xffffffffffffffffffffffffffffffffffffffff\n      and\n        /* \"contracts/Afyapp.sol\":1108:1118  accessList */\n      0x02\n        /* \"contracts/Afyapp.sol\":1108:1130  accessList[msg.sender] */\n      0x00\n        /* \"contracts/Afyapp.sol\":1119:1129  msg.sender */\n      caller\n        /* \"contracts/Afyapp.sol\":1108:1130  accessList[msg.sender] */\n      0xffffffffffffffffffffffffffffffffffffffff\n      and\n      0xffffffffffffffffffffffffffffffffffffffff\n      and\n      dup2\n      mstore\n      0x20\n      add\n      swap1\n      dup2\n      mstore\n      0x20\n      add\n      0x00\n      keccak256\n        /* \"contracts/Afyapp.sol\":1131:1132  i */\n      dup3\n        /* \"contracts/Afyapp.sol\":1108:1133  accessList[msg.sender][i] */\n      dup2\n      sload\n      dup2\n      lt\n      tag_36\n      jumpi\n      tag_37\n      tag_38\n      jump\t// in\n    tag_37:\n    tag_36:\n      swap1\n      0x00\n      mstore\n      keccak256(0x00, 0x20)\n      add\n        /* \"contracts/Afyapp.sol\":1108:1138  accessList[msg.sender][i].user */\n      0x00\n      add\n      0x00\n      swap1\n      sload\n      swap1\n      0x0100\n      exp\n      swap1\n      div\n      0xffffffffffffffffffffffffffffffffffffffff\n      and\n        /* \"contracts/Afyapp.sol\":1108:1144  accessList[msg.sender][i].user==user */\n      0xffffffffffffffffffffffffffffffffffffffff\n      and\n      sub\n        /* \"contracts/Afyapp.sol\":1105:1217  if(accessList[msg.sender][i].user==user){ ... */\n      tag_40\n      jumpi\n        /* \"contracts/Afyapp.sol\":1196:1201  false */\n      0x00\n        /* \"contracts/Afyapp.sol\":1163:1173  accessList */\n      0x02\n        /* \"contracts/Afyapp.sol\":1163:1185  accessList[msg.sender] */\n      0x00\n        /* \"contracts/Afyapp.sol\":1174:1184  msg.sender */\n      caller\n        /* \"contracts/Afyapp.sol\":1163:1185  accessList[msg.sender] */\n      0xffffffffffffffffffffffffffffffffffffffff\n      and\n      0xffffffffffffffffffffffffffffffffffffffff\n      and\n      dup2\n      mstore\n      0x20\n      add\n      swap1\n      dup2\n      mstore\n      0x20\n      add\n      0x00\n      keccak256\n        /* \"contracts/Afyapp.sol\":1186:1187  i */\n      dup3\n        /* \"contracts/Afyapp.sol\":1163:1188  accessList[msg.sender][i] */\n      dup2\n      sload\n      dup2\n      lt\n      tag_41\n      jumpi\n      tag_42\n      tag_38\n      jump\t// in\n    tag_42:\n    tag_41:\n      swap1\n      0x00\n      mstore\n      keccak256(0x00, 0x20)\n      add\n        /* \"contracts/Afyapp.sol\":1163:1195  accessList[msg.sender][i].access */\n      0x00\n      add\n      0x14\n        /* \"contracts/Afyapp.sol\":1163:1201  accessList[msg.sender][i].access=false */\n      0x0100\n      exp\n      dup2\n      sload\n      dup2\n      0xff\n      mul\n      not\n      and\n      swap1\n      dup4\n      iszero\n      iszero\n      mul\n      or\n      swap1\n      sstore\n      pop\n        /* \"contracts/Afyapp.sol\":1105:1217  if(accessList[msg.sender][i].user==user){ ... */\n    tag_40:\n        /* \"contracts/Afyapp.sol\":1088:1091  i++ */\n      dup1\n      dup1\n      tag_44\n      swap1\n      tag_45\n      jump\t// in\n    tag_44:\n      swap2\n      pop\n      pop\n        /* \"contracts/Afyapp.sol\":1043:1226  for(uint i=0;i<accessList[msg.sender].length;i++){... */\n      jump(tag_33)\n    tag_34:\n      pop\n        /* \"contracts/Afyapp.sol\":954:1231  function disallow(address user) public{... */\n      pop\n      jump\t// out\n        /* \"contracts/Afyapp.sol\":1438:1541  function shareAccess() public view returns(Access[] memory){... */\n    tag_17:\n        /* \"contracts/Afyapp.sol\":1481:1496  Access[] memory */\n      0x60\n        /* \"contracts/Afyapp.sol\":1513:1523  accessList */\n      0x02\n        /* \"contracts/Afyapp.sol\":1513:1535  accessList[msg.sender] */\n      0x00\n        /* \"contracts/Afyapp.sol\":1524:1534  msg.sender */\n      caller\n        /* \"contracts/Afyapp.sol\":1513:1535  accessList[msg.sender] */\n      0xffffffffffffffffffffffffffffffffffffffff\n      and\n      0xffffffffffffffffffffffffffffffffffffffff\n      and\n      dup2\n      mstore\n      0x20\n      add\n      swap1\n      dup2\n      mstore\n      0x20\n      add\n      0x00\n      keccak256\n        /* \"contracts/Afyapp.sol\":1506:1535  return accessList[msg.sender] */\n      dup1\n      sload\n      dup1\n      0x20\n      mul\n      0x20\n      add\n      mload(0x40)\n      swap1\n      dup2\n      add\n      0x40\n      mstore\n      dup1\n      swap3\n      swap2\n      swap1\n      dup2\n      dup2\n      mstore\n      0x20\n      add\n      0x00\n      swap1\n    tag_47:\n      dup3\n      dup3\n      lt\n      iszero\n      tag_48\n      jumpi\n      dup4\n      dup3\n      swap1\n      0x00\n      mstore\n      keccak256(0x00, 0x20)\n      add\n      mload(0x40)\n      dup1\n      0x40\n      add\n      0x40\n      mstore\n      swap1\n      dup2\n      0x00\n      dup3\n      add\n      0x00\n      swap1\n      sload\n      swap1\n      0x0100\n      exp\n      swap1\n      div\n      0xffffffffffffffffffffffffffffffffffffffff\n      and\n      0xffffffffffffffffffffffffffffffffffffffff\n      and\n      0xffffffffffffffffffffffffffffffffffffffff\n      and\n      dup2\n      mstore\n      0x20\n      add\n      0x00\n      dup3\n      add\n      0x14\n      swap1\n      sload\n      swap1\n      0x0100\n      exp\n      swap1\n      div\n      0xff\n      and\n      iszero\n      iszero\n      iszero\n      iszero\n      dup2\n      mstore\n      pop\n      pop\n      dup2\n      mstore\n      0x20\n      add\n      swap1\n      0x01\n      add\n      swap1\n      jump(tag_47)\n    tag_48:\n      pop\n      pop\n      pop\n      pop\n      swap1\n      pop\n        /* \"contracts/Afyapp.sol\":1438:1541  function shareAccess() public view returns(Access[] memory){... */\n      swap1\n      jump\t// out\n        /* \"contracts/Afyapp.sol\":1237:1432  function display(address _user) external view returns(string[] memory){... */\n    tag_22:\n        /* \"contracts/Afyapp.sol\":1291:1306  string[] memory */\n      0x60\n        /* \"contracts/Afyapp.sol\":1331:1341  msg.sender */\n      caller\n        /* \"contracts/Afyapp.sol\":1324:1341  _user==msg.sender */\n      0xffffffffffffffffffffffffffffffffffffffff\n      and\n        /* \"contracts/Afyapp.sol\":1324:1329  _user */\n      dup3\n        /* \"contracts/Afyapp.sol\":1324:1341  _user==msg.sender */\n      0xffffffffffffffffffffffffffffffffffffffff\n      and\n      eq\n        /* \"contracts/Afyapp.sol\":1324:1373  _user==msg.sender || ownership[_user][msg.sender] */\n      dup1\n      tag_51\n      jumpi\n      pop\n        /* \"contracts/Afyapp.sol\":1345:1354  ownership */\n      0x01\n        /* \"contracts/Afyapp.sol\":1345:1361  ownership[_user] */\n      0x00\n        /* \"contracts/Afyapp.sol\":1355:1360  _user */\n      dup4\n        /* \"contracts/Afyapp.sol\":1345:1361  ownership[_user] */\n      0xffffffffffffffffffffffffffffffffffffffff\n      and\n      0xffffffffffffffffffffffffffffffffffffffff\n      and\n      dup2\n      mstore\n      0x20\n      add\n      swap1\n      dup2\n      mstore\n      0x20\n      add\n      0x00\n      keccak256\n        /* \"contracts/Afyapp.sol\":1345:1373  ownership[_user][msg.sender] */\n      0x00\n        /* \"contracts/Afyapp.sol\":1362:1372  msg.sender */\n      caller\n        /* \"contracts/Afyapp.sol\":1345:1373  ownership[_user][msg.sender] */\n      0xffffffffffffffffffffffffffffffffffffffff\n      and\n      0xffffffffffffffffffffffffffffffffffffffff\n      and\n      dup2\n      mstore\n      0x20\n      add\n      swap1\n      dup2\n      mstore\n      0x20\n      add\n      0x00\n      keccak256\n      0x00\n      swap1\n      sload\n      swap1\n      0x0100\n      exp\n      swap1\n      div\n      0xff\n      and\n        /* \"contracts/Afyapp.sol\":1324:1373  _user==msg.sender || ownership[_user][msg.sender] */\n    tag_51:\n        /* \"contracts/Afyapp.sol\":1316:1398  require(_user==msg.sender || ownership[_user][msg.sender],\"You don't have access\") */\n      tag_52\n      jumpi\n      mload(0x40)\n      0x08c379a000000000000000000000000000000000000000000000000000000000\n      dup2\n      mstore\n      0x04\n      add\n      tag_53\n      swap1\n      tag_54\n      jump\t// in\n    tag_53:\n      mload(0x40)\n      dup1\n      swap2\n      sub\n      swap1\n      revert\n    tag_52:\n        /* \"contracts/Afyapp.sol\":1414:1419  value */\n      0x00\n        /* \"contracts/Afyapp.sol\":1414:1426  value[_user] */\n      dup1\n        /* \"contracts/Afyapp.sol\":1420:1425  _user */\n      dup4\n        /* \"contracts/Afyapp.sol\":1414:1426  value[_user] */\n      0xffffffffffffffffffffffffffffffffffffffff\n      and\n      0xffffffffffffffffffffffffffffffffffffffff\n      and\n      dup2\n      mstore\n      0x20\n      add\n      swap1\n      dup2\n      mstore\n      0x20\n      add\n      0x00\n      keccak256\n        /* \"contracts/Afyapp.sol\":1407:1426  return value[_user] */\n      dup1\n      sload\n      dup1\n      0x20\n      mul\n      0x20\n      add\n      mload(0x40)\n      swap1\n      dup2\n      add\n      0x40\n      mstore\n      dup1\n      swap3\n      swap2\n      swap1\n      dup2\n      dup2\n      mstore\n      0x20\n      add\n      0x00\n      swap1\n    tag_55:\n      dup3\n      dup3\n      lt\n      iszero\n      tag_56\n      jumpi\n      dup4\n      dup3\n      swap1\n      0x00\n      mstore\n      keccak256(0x00, 0x20)\n      add\n      dup1\n      sload\n      tag_58\n      swap1\n      tag_59\n      jump\t// in\n    tag_58:\n      dup1\n      0x1f\n      add\n      0x20\n      dup1\n      swap2\n      div\n      mul\n      0x20\n      add\n      mload(0x40)\n      swap1\n      dup2\n      add\n      0x40\n      mstore\n      dup1\n      swap3\n      swap2\n      swap1\n      dup2\n      dup2\n      mstore\n      0x20\n      add\n      dup3\n      dup1\n      sload\n      tag_60\n      swap1\n      tag_59\n      jump\t// in\n    tag_60:\n      dup1\n      iszero\n      tag_61\n      jumpi\n      dup1\n      0x1f\n      lt\n      tag_62\n      jumpi\n      0x0100\n      dup1\n      dup4\n      sload\n      div\n      mul\n      dup4\n      mstore\n      swap2\n      0x20\n      add\n      swap2\n      jump(tag_61)\n    tag_62:\n      dup3\n      add\n      swap2\n      swap1\n      0x00\n      mstore\n      keccak256(0x00, 0x20)\n      swap1\n    tag_63:\n      dup2\n      sload\n      dup2\n      mstore\n      swap1\n      0x01\n      add\n      swap1\n      0x20\n      add\n      dup1\n      dup4\n      gt\n      tag_63\n      jumpi\n      dup3\n      swap1\n      sub\n      0x1f\n      and\n      dup3\n      add\n      swap2\n    tag_61:\n      pop\n      pop\n      pop\n      pop\n      pop\n      dup2\n      mstore\n      0x20\n      add\n      swap1\n      0x01\n      add\n      swap1\n      jump(tag_55)\n    tag_56:\n      pop\n      pop\n      pop\n      pop\n      swap1\n      pop\n        /* \"contracts/Afyapp.sol\":1237:1432  function display(address _user) external view returns(string[] memory){... */\n      swap2\n      swap1\n      pop\n      jump\t// out\n        /* \"contracts/Afyapp.sol\":472:950  function allow(address user) external {//def... */\n    tag_27:\n        /* \"contracts/Afyapp.sol\":552:556  true */\n      0x01\n        /* \"contracts/Afyapp.sol\":524:533  ownership */\n      dup1\n        /* \"contracts/Afyapp.sol\":524:545  ownership[msg.sender] */\n      0x00\n        /* \"contracts/Afyapp.sol\":534:544  msg.sender */\n      caller\n        /* \"contracts/Afyapp.sol\":524:545  ownership[msg.sender] */\n      0xffffffffffffffffffffffffffffffffffffffff\n      and\n      0xffffffffffffffffffffffffffffffffffffffff\n      and\n      dup2\n      mstore\n      0x20\n      add\n      swap1\n      dup2\n      mstore\n      0x20\n      add\n      0x00\n      keccak256\n        /* \"contracts/Afyapp.sol\":524:551  ownership[msg.sender][user] */\n      0x00\n        /* \"contracts/Afyapp.sol\":546:550  user */\n      dup4\n        /* \"contracts/Afyapp.sol\":524:551  ownership[msg.sender][user] */\n      0xffffffffffffffffffffffffffffffffffffffff\n      and\n      0xffffffffffffffffffffffffffffffffffffffff\n      and\n      dup2\n      mstore\n      0x20\n      add\n      swap1\n      dup2\n      mstore\n      0x20\n      add\n      0x00\n      keccak256\n      0x00\n        /* \"contracts/Afyapp.sol\":524:556  ownership[msg.sender][user]=true */\n      0x0100\n      exp\n      dup2\n      sload\n      dup2\n      0xff\n      mul\n      not\n      and\n      swap1\n      dup4\n      iszero\n      iszero\n      mul\n      or\n      swap1\n      sstore\n      pop\n        /* \"contracts/Afyapp.sol\":569:581  previousData */\n      0x03\n        /* \"contracts/Afyapp.sol\":569:593  previousData[msg.sender] */\n      0x00\n        /* \"contracts/Afyapp.sol\":582:592  msg.sender */\n      caller\n        /* \"contracts/Afyapp.sol\":569:593  previousData[msg.sender] */\n      0xffffffffffffffffffffffffffffffffffffffff\n      and\n      0xffffffffffffffffffffffffffffffffffffffff\n      and\n      dup2\n      mstore\n      0x20\n      add\n      swap1\n      dup2\n      mstore\n      0x20\n      add\n      0x00\n      keccak256\n        /* \"contracts/Afyapp.sol\":569:599  previousData[msg.sender][user] */\n      0x00\n        /* \"contracts/Afyapp.sol\":594:598  user */\n      dup3\n        /* \"contracts/Afyapp.sol\":569:599  previousData[msg.sender][user] */\n      0xffffffffffffffffffffffffffffffffffffffff\n      and\n      0xffffffffffffffffffffffffffffffffffffffff\n      and\n      dup2\n      mstore\n      0x20\n      add\n      swap1\n      dup2\n      mstore\n      0x20\n      add\n      0x00\n      keccak256\n      0x00\n      swap1\n      sload\n      swap1\n      0x0100\n      exp\n      swap1\n      div\n      0xff\n      and\n        /* \"contracts/Afyapp.sol\":566:939  if(previousData[msg.sender][user]){... */\n      iszero\n      tag_65\n      jumpi\n        /* \"contracts/Afyapp.sol\":616:622  uint i */\n      0x00\n        /* \"contracts/Afyapp.sol\":612:805  for(uint i=0;i<accessList[msg.sender].length;i++){... */\n    tag_66:\n        /* \"contracts/Afyapp.sol\":627:637  accessList */\n      0x02\n        /* \"contracts/Afyapp.sol\":627:649  accessList[msg.sender] */\n      0x00\n        /* \"contracts/Afyapp.sol\":638:648  msg.sender */\n      caller\n        /* \"contracts/Afyapp.sol\":627:649  accessList[msg.sender] */\n      0xffffffffffffffffffffffffffffffffffffffff\n      and\n      0xffffffffffffffffffffffffffffffffffffffff\n      and\n      dup2\n      mstore\n      0x20\n      add\n      swap1\n      dup2\n      mstore\n      0x20\n      add\n      0x00\n      keccak256\n        /* \"contracts/Afyapp.sol\":627:656  accessList[msg.sender].length */\n      dup1\n      sload\n      swap1\n      pop\n        /* \"contracts/Afyapp.sol\":625:626  i */\n      dup2\n        /* \"contracts/Afyapp.sol\":625:656  i<accessList[msg.sender].length */\n      lt\n        /* \"contracts/Afyapp.sol\":612:805  for(uint i=0;i<accessList[msg.sender].length;i++){... */\n      iszero\n      tag_67\n      jumpi\n        /* \"contracts/Afyapp.sol\":712:716  user */\n      dup2\n        /* \"contracts/Afyapp.sol\":680:716  accessList[msg.sender][i].user==user */\n      0xffffffffffffffffffffffffffffffffffffffff\n      and\n        /* \"contracts/Afyapp.sol\":680:690  accessList */\n      0x02\n        /* \"contracts/Afyapp.sol\":680:702  accessList[msg.sender] */\n      0x00\n        /* \"contracts/Afyapp.sol\":691:701  msg.sender */\n      caller\n        /* \"contracts/Afyapp.sol\":680:702  accessList[msg.sender] */\n      0xffffffffffffffffffffffffffffffffffffffff\n      and\n      0xffffffffffffffffffffffffffffffffffffffff\n      and\n      dup2\n      mstore\n      0x20\n      add\n      swap1\n      dup2\n      mstore\n      0x20\n      add\n      0x00\n      keccak256\n        /* \"contracts/Afyapp.sol\":703:704  i */\n      dup3\n        /* \"contracts/Afyapp.sol\":680:705  accessList[msg.sender][i] */\n      dup2\n      sload\n      dup2\n      lt\n      tag_69\n      jumpi\n      tag_70\n      tag_38\n      jump\t// in\n    tag_70:\n    tag_69:\n      swap1\n      0x00\n      mstore\n      keccak256(0x00, 0x20)\n      add\n        /* \"contracts/Afyapp.sol\":680:710  accessList[msg.sender][i].user */\n      0x00\n      add\n      0x00\n      swap1\n      sload\n      swap1\n      0x0100\n      exp\n      swap1\n      div\n      0xffffffffffffffffffffffffffffffffffffffff\n      and\n        /* \"contracts/Afyapp.sol\":680:716  accessList[msg.sender][i].user==user */\n      0xffffffffffffffffffffffffffffffffffffffff\n      and\n      sub\n        /* \"contracts/Afyapp.sol\":677:793  if(accessList[msg.sender][i].user==user){... */\n      tag_72\n      jumpi\n        /* \"contracts/Afyapp.sol\":771:775  true */\n      0x01\n        /* \"contracts/Afyapp.sol\":738:748  accessList */\n      0x02\n        /* \"contracts/Afyapp.sol\":738:760  accessList[msg.sender] */\n      0x00\n        /* \"contracts/Afyapp.sol\":749:759  msg.sender */\n      caller\n        /* \"contracts/Afyapp.sol\":738:760  accessList[msg.sender] */\n      0xffffffffffffffffffffffffffffffffffffffff\n      and\n      0xffffffffffffffffffffffffffffffffffffffff\n      and\n      dup2\n      mstore\n      0x20\n      add\n      swap1\n      dup2\n      mstore\n      0x20\n      add\n      0x00\n      keccak256\n        /* \"contracts/Afyapp.sol\":761:762  i */\n      dup3\n        /* \"contracts/Afyapp.sol\":738:763  accessList[msg.sender][i] */\n      dup2\n      sload\n      dup2\n      lt\n      tag_73\n      jumpi\n      tag_74\n      tag_38\n      jump\t// in\n    tag_74:\n    tag_73:\n      swap1\n      0x00\n      mstore\n      keccak256(0x00, 0x20)\n      add\n        /* \"contracts/Afyapp.sol\":738:770  accessList[msg.sender][i].access */\n      0x00\n      add\n      0x14\n        /* \"contracts/Afyapp.sol\":738:775  accessList[msg.sender][i].access=true */\n      0x0100\n      exp\n      dup2\n      sload\n      dup2\n      0xff\n      mul\n      not\n      and\n      swap1\n      dup4\n      iszero\n      iszero\n      mul\n      or\n      swap1\n      sstore\n      pop\n        /* \"contracts/Afyapp.sol\":677:793  if(accessList[msg.sender][i].user==user){... */\n    tag_72:\n        /* \"contracts/Afyapp.sol\":657:660  i++ */\n      dup1\n      dup1\n      tag_76\n      swap1\n      tag_45\n      jump\t// in\n    tag_76:\n      swap2\n      pop\n      pop\n        /* \"contracts/Afyapp.sol\":612:805  for(uint i=0;i<accessList[msg.sender].length;i++){... */\n      jump(tag_66)\n    tag_67:\n      pop\n        /* \"contracts/Afyapp.sol\":566:939  if(previousData[msg.sender][user]){... */\n      jump(tag_77)\n    tag_65:\n        /* \"contracts/Afyapp.sol\":831:841  accessList */\n      0x02\n        /* \"contracts/Afyapp.sol\":831:853  accessList[msg.sender] */\n      0x00\n        /* \"contracts/Afyapp.sol\":842:852  msg.sender */\n      caller\n        /* \"contracts/Afyapp.sol\":831:853  accessList[msg.sender] */\n      0xffffffffffffffffffffffffffffffffffffffff\n      and\n      0xffffffffffffffffffffffffffffffffffffffff\n      and\n      dup2\n      mstore\n      0x20\n      add\n      swap1\n      dup2\n      mstore\n      0x20\n      add\n      0x00\n      keccak256\n        /* \"contracts/Afyapp.sol\":859:876  Access(user,true) */\n      mload(0x40)\n      dup1\n      0x40\n      add\n      0x40\n      mstore\n      dup1\n        /* \"contracts/Afyapp.sol\":866:870  user */\n      dup4\n        /* \"contracts/Afyapp.sol\":859:876  Access(user,true) */\n      0xffffffffffffffffffffffffffffffffffffffff\n      and\n      dup2\n      mstore\n      0x20\n      add\n        /* \"contracts/Afyapp.sol\":871:875  true */\n      0x01\n        /* \"contracts/Afyapp.sol\":859:876  Access(user,true) */\n      iszero\n      iszero\n      dup2\n      mstore\n      pop\n        /* \"contracts/Afyapp.sol\":831:877  accessList[msg.sender].push(Access(user,true)) */\n      swap1\n      dup1\n      0x01\n      dup2\n      sload\n      add\n      dup1\n      dup3\n      sstore\n      dup1\n      swap2\n      pop\n      pop\n      0x01\n      swap1\n      sub\n      swap1\n      0x00\n      mstore\n      keccak256(0x00, 0x20)\n      add\n      0x00\n      swap1\n      swap2\n      swap1\n      swap2\n      swap1\n      swap2\n      pop\n      0x00\n      dup3\n      add\n      mload\n      dup2\n      0x00\n      add\n      exp(0x0100, 0x00)\n      dup2\n      sload\n      dup2\n      0xffffffffffffffffffffffffffffffffffffffff\n      mul\n      not\n      and\n      swap1\n      dup4\n      0xffffffffffffffffffffffffffffffffffffffff\n      and\n      mul\n      or\n      swap1\n      sstore\n      pop\n      0x20\n      dup3\n      add\n      mload\n      dup2\n      0x00\n      add\n      exp(0x0100, 0x14)\n      dup2\n      sload\n      dup2\n      0xff\n      mul\n      not\n      and\n      swap1\n      dup4\n      iszero\n      iszero\n      mul\n      or\n      swap1\n      sstore\n      pop\n      pop\n      pop\n        /* \"contracts/Afyapp.sol\":923:927  true */\n      0x01\n        /* \"contracts/Afyapp.sol\":892:904  previousData */\n      0x03\n        /* \"contracts/Afyapp.sol\":892:916  previousData[msg.sender] */\n      0x00\n        /* \"contracts/Afyapp.sol\":905:915  msg.sender */\n      caller\n        /* \"contracts/Afyapp.sol\":892:916  previousData[msg.sender] */\n      0xffffffffffffffffffffffffffffffffffffffff\n      and\n      0xffffffffffffffffffffffffffffffffffffffff\n      and\n      dup2\n      mstore\n      0x20\n      add\n      swap1\n      dup2\n      mstore\n      0x20\n      add\n      0x00\n      keccak256\n        /* \"contracts/Afyapp.sol\":892:922  previousData[msg.sender][user] */\n      0x00\n        /* \"contracts/Afyapp.sol\":917:921  user */\n      dup4\n        /* \"contracts/Afyapp.sol\":892:922  previousData[msg.sender][user] */\n      0xffffffffffffffffffffffffffffffffffffffff\n      and\n      0xffffffffffffffffffffffffffffffffffffffff\n      and\n      dup2\n      mstore\n      0x20\n      add\n      swap1\n      dup2\n      mstore\n      0x20\n      add\n      0x00\n      keccak256\n      0x00\n        /* \"contracts/Afyapp.sol\":892:927  previousData[msg.sender][user]=true */\n      0x0100\n      exp\n      dup2\n      sload\n      dup2\n      0xff\n      mul\n      not\n      and\n      swap1\n      dup4\n      iszero\n      iszero\n      mul\n      or\n      swap1\n      sstore\n      pop\n        /* \"contracts/Afyapp.sol\":566:939  if(previousData[msg.sender][user]){... */\n    tag_77:\n        /* \"contracts/Afyapp.sol\":472:950  function allow(address user) external {//def... */\n      pop\n      jump\t// out\n        /* \"#utility.yul\":7:82   */\n    tag_79:\n        /* \"#utility.yul\":40:46   */\n      0x00\n        /* \"#utility.yul\":73:75   */\n      0x40\n        /* \"#utility.yul\":67:76   */\n      mload\n        /* \"#utility.yul\":57:76   */\n      swap1\n      pop\n        /* \"#utility.yul\":7:82   */\n      swap1\n      jump\t// out\n        /* \"#utility.yul\":88:205   */\n    tag_80:\n        /* \"#utility.yul\":197:198   */\n      0x00\n        /* \"#utility.yul\":194:195   */\n      dup1\n        /* \"#utility.yul\":187:199   */\n      revert\n        /* \"#utility.yul\":211:328   */\n    tag_81:\n        /* \"#utility.yul\":320:321   */\n      0x00\n        /* \"#utility.yul\":317:318   */\n      dup1\n        /* \"#utility.yul\":310:322   */\n      revert\n        /* \"#utility.yul\":334:460   */\n    tag_82:\n        /* \"#utility.yul\":371:378   */\n      0x00\n        /* \"#utility.yul\":411:453   */\n      0xffffffffffffffffffffffffffffffffffffffff\n        /* \"#utility.yul\":404:409   */\n      dup3\n        /* \"#utility.yul\":400:454   */\n      and\n        /* \"#utility.yul\":389:454   */\n      swap1\n      pop\n        /* \"#utility.yul\":334:460   */\n      swap2\n      swap1\n      pop\n      jump\t// out\n        /* \"#utility.yul\":466:562   */\n    tag_83:\n        /* \"#utility.yul\":503:510   */\n      0x00\n        /* \"#utility.yul\":532:556   */\n      tag_143\n        /* \"#utility.yul\":550:555   */\n      dup3\n        /* \"#utility.yul\":532:556   */\n      tag_82\n      jump\t// in\n    tag_143:\n        /* \"#utility.yul\":521:556   */\n      swap1\n      pop\n        /* \"#utility.yul\":466:562   */\n      swap2\n      swap1\n      pop\n      jump\t// out\n        /* \"#utility.yul\":568:690   */\n    tag_84:\n        /* \"#utility.yul\":641:665   */\n      tag_145\n        /* \"#utility.yul\":659:664   */\n      dup2\n        /* \"#utility.yul\":641:665   */\n      tag_83\n      jump\t// in\n    tag_145:\n        /* \"#utility.yul\":634:639   */\n      dup2\n        /* \"#utility.yul\":631:666   */\n      eq\n        /* \"#utility.yul\":621:684   */\n      tag_146\n      jumpi\n        /* \"#utility.yul\":680:681   */\n      0x00\n        /* \"#utility.yul\":677:678   */\n      dup1\n        /* \"#utility.yul\":670:682   */\n      revert\n        /* \"#utility.yul\":621:684   */\n    tag_146:\n        /* \"#utility.yul\":568:690   */\n      pop\n      jump\t// out\n        /* \"#utility.yul\":696:835   */\n    tag_85:\n        /* \"#utility.yul\":742:747   */\n      0x00\n        /* \"#utility.yul\":780:786   */\n      dup2\n        /* \"#utility.yul\":767:787   */\n      calldataload\n        /* \"#utility.yul\":758:787   */\n      swap1\n      pop\n        /* \"#utility.yul\":796:829   */\n      tag_148\n        /* \"#utility.yul\":823:828   */\n      dup2\n        /* \"#utility.yul\":796:829   */\n      tag_84\n      jump\t// in\n    tag_148:\n        /* \"#utility.yul\":696:835   */\n      swap3\n      swap2\n      pop\n      pop\n      jump\t// out\n        /* \"#utility.yul\":841:958   */\n    tag_86:\n        /* \"#utility.yul\":950:951   */\n      0x00\n        /* \"#utility.yul\":947:948   */\n      dup1\n        /* \"#utility.yul\":940:952   */\n      revert\n        /* \"#utility.yul\":964:1081   */\n    tag_87:\n        /* \"#utility.yul\":1073:1074   */\n      0x00\n        /* \"#utility.yul\":1070:1071   */\n      dup1\n        /* \"#utility.yul\":1063:1075   */\n      revert\n        /* \"#utility.yul\":1087:1189   */\n    tag_88:\n        /* \"#utility.yul\":1128:1134   */\n      0x00\n        /* \"#utility.yul\":1179:1181   */\n      0x1f\n        /* \"#utility.yul\":1175:1182   */\n      not\n        /* \"#utility.yul\":1170:1172   */\n      0x1f\n        /* \"#utility.yul\":1163:1168   */\n      dup4\n        /* \"#utility.yul\":1159:1173   */\n      add\n        /* \"#utility.yul\":1155:1183   */\n      and\n        /* \"#utility.yul\":1145:1183   */\n      swap1\n      pop\n        /* \"#utility.yul\":1087:1189   */\n      swap2\n      swap1\n      pop\n      jump\t// out\n        /* \"#utility.yul\":1195:1375   */\n    tag_89:\n        /* \"#utility.yul\":1243:1320   */\n      0x4e487b7100000000000000000000000000000000000000000000000000000000\n        /* \"#utility.yul\":1240:1241   */\n      0x00\n        /* \"#utility.yul\":1233:1321   */\n      mstore\n        /* \"#utility.yul\":1340:1344   */\n      0x41\n        /* \"#utility.yul\":1337:1338   */\n      0x04\n        /* \"#utility.yul\":1330:1345   */\n      mstore\n        /* \"#utility.yul\":1364:1368   */\n      0x24\n        /* \"#utility.yul\":1361:1362   */\n      0x00\n        /* \"#utility.yul\":1354:1369   */\n      revert\n        /* \"#utility.yul\":1381:1662   */\n    tag_90:\n        /* \"#utility.yul\":1464:1491   */\n      tag_154\n        /* \"#utility.yul\":1486:1490   */\n      dup3\n        /* \"#utility.yul\":1464:1491   */\n      tag_88\n      jump\t// in\n    tag_154:\n        /* \"#utility.yul\":1456:1462   */\n      dup2\n        /* \"#utility.yul\":1452:1492   */\n      add\n        /* \"#utility.yul\":1594:1600   */\n      dup2\n        /* \"#utility.yul\":1582:1592   */\n      dup2\n        /* \"#utility.yul\":1579:1601   */\n      lt\n        /* \"#utility.yul\":1558:1576   */\n      0xffffffffffffffff\n        /* \"#utility.yul\":1546:1556   */\n      dup3\n        /* \"#utility.yul\":1543:1577   */\n      gt\n        /* \"#utility.yul\":1540:1602   */\n      or\n        /* \"#utility.yul\":1537:1625   */\n      iszero\n      tag_155\n      jumpi\n        /* \"#utility.yul\":1605:1623   */\n      tag_156\n      tag_89\n      jump\t// in\n    tag_156:\n        /* \"#utility.yul\":1537:1625   */\n    tag_155:\n        /* \"#utility.yul\":1645:1655   */\n      dup1\n        /* \"#utility.yul\":1641:1643   */\n      0x40\n        /* \"#utility.yul\":1634:1656   */\n      mstore\n        /* \"#utility.yul\":1424:1662   */\n      pop\n        /* \"#utility.yul\":1381:1662   */\n      pop\n      pop\n      jump\t// out\n        /* \"#utility.yul\":1668:1797   */\n    tag_91:\n        /* \"#utility.yul\":1702:1708   */\n      0x00\n        /* \"#utility.yul\":1729:1749   */\n      tag_158\n      tag_79\n      jump\t// in\n    tag_158:\n        /* \"#utility.yul\":1719:1749   */\n      swap1\n      pop\n        /* \"#utility.yul\":1758:1791   */\n      tag_159\n        /* \"#utility.yul\":1786:1790   */\n      dup3\n        /* \"#utility.yul\":1778:1784   */\n      dup3\n        /* \"#utility.yul\":1758:1791   */\n      tag_90\n      jump\t// in\n    tag_159:\n        /* \"#utility.yul\":1668:1797   */\n      swap2\n      swap1\n      pop\n      jump\t// out\n        /* \"#utility.yul\":1803:2111   */\n    tag_92:\n        /* \"#utility.yul\":1865:1869   */\n      0x00\n        /* \"#utility.yul\":1955:1973   */\n      0xffffffffffffffff\n        /* \"#utility.yul\":1947:1953   */\n      dup3\n        /* \"#utility.yul\":1944:1974   */\n      gt\n        /* \"#utility.yul\":1941:1997   */\n      iszero\n      tag_161\n      jumpi\n        /* \"#utility.yul\":1977:1995   */\n      tag_162\n      tag_89\n      jump\t// in\n    tag_162:\n        /* \"#utility.yul\":1941:1997   */\n    tag_161:\n        /* \"#utility.yul\":2015:2044   */\n      tag_163\n        /* \"#utility.yul\":2037:2043   */\n      dup3\n        /* \"#utility.yul\":2015:2044   */\n      tag_88\n      jump\t// in\n    tag_163:\n        /* \"#utility.yul\":2007:2044   */\n      swap1\n      pop\n        /* \"#utility.yul\":2099:2103   */\n      0x20\n        /* \"#utility.yul\":2093:2097   */\n      dup2\n        /* \"#utility.yul\":2089:2104   */\n      add\n        /* \"#utility.yul\":2081:2104   */\n      swap1\n      pop\n        /* \"#utility.yul\":1803:2111   */\n      swap2\n      swap1\n      pop\n      jump\t// out\n        /* \"#utility.yul\":2117:2263   */\n    tag_93:\n        /* \"#utility.yul\":2214:2220   */\n      dup3\n        /* \"#utility.yul\":2209:2212   */\n      dup2\n        /* \"#utility.yul\":2204:2207   */\n      dup4\n        /* \"#utility.yul\":2191:2221   */\n      calldatacopy\n        /* \"#utility.yul\":2255:2256   */\n      0x00\n        /* \"#utility.yul\":2246:2252   */\n      dup4\n        /* \"#utility.yul\":2241:2244   */\n      dup4\n        /* \"#utility.yul\":2237:2253   */\n      add\n        /* \"#utility.yul\":2230:2257   */\n      mstore\n        /* \"#utility.yul\":2117:2263   */\n      pop\n      pop\n      pop\n      jump\t// out\n        /* \"#utility.yul\":2269:2694   */\n    tag_94:\n        /* \"#utility.yul\":2347:2352   */\n      0x00\n        /* \"#utility.yul\":2372:2438   */\n      tag_166\n        /* \"#utility.yul\":2388:2437   */\n      tag_167\n        /* \"#utility.yul\":2430:2436   */\n      dup5\n        /* \"#utility.yul\":2388:2437   */\n      tag_92\n      jump\t// in\n    tag_167:\n        /* \"#utility.yul\":2372:2438   */\n      tag_91\n      jump\t// in\n    tag_166:\n        /* \"#utility.yul\":2363:2438   */\n      swap1\n      pop\n        /* \"#utility.yul\":2461:2467   */\n      dup3\n        /* \"#utility.yul\":2454:2459   */\n      dup2\n        /* \"#utility.yul\":2447:2468   */\n      mstore\n        /* \"#utility.yul\":2499:2503   */\n      0x20\n        /* \"#utility.yul\":2492:2497   */\n      dup2\n        /* \"#utility.yul\":2488:2504   */\n      add\n        /* \"#utility.yul\":2537:2540   */\n      dup5\n        /* \"#utility.yul\":2528:2534   */\n      dup5\n        /* \"#utility.yul\":2523:2526   */\n      dup5\n        /* \"#utility.yul\":2519:2535   */\n      add\n        /* \"#utility.yul\":2516:2541   */\n      gt\n        /* \"#utility.yul\":2513:2625   */\n      iszero\n      tag_168\n      jumpi\n        /* \"#utility.yul\":2544:2623   */\n      tag_169\n      tag_87\n      jump\t// in\n    tag_169:\n        /* \"#utility.yul\":2513:2625   */\n    tag_168:\n        /* \"#utility.yul\":2634:2688   */\n      tag_170\n        /* \"#utility.yul\":2681:2687   */\n      dup5\n        /* \"#utility.yul\":2676:2679   */\n      dup3\n        /* \"#utility.yul\":2671:2674   */\n      dup6\n        /* \"#utility.yul\":2634:2688   */\n      tag_93\n      jump\t// in\n    tag_170:\n        /* \"#utility.yul\":2353:2694   */\n      pop\n        /* \"#utility.yul\":2269:2694   */\n      swap4\n      swap3\n      pop\n      pop\n      pop\n      jump\t// out\n        /* \"#utility.yul\":2714:3054   */\n    tag_95:\n        /* \"#utility.yul\":2770:2775   */\n      0x00\n        /* \"#utility.yul\":2819:2822   */\n      dup3\n        /* \"#utility.yul\":2812:2816   */\n      0x1f\n        /* \"#utility.yul\":2804:2810   */\n      dup4\n        /* \"#utility.yul\":2800:2817   */\n      add\n        /* \"#utility.yul\":2796:2823   */\n      slt\n        /* \"#utility.yul\":2786:2908   */\n      tag_172\n      jumpi\n        /* \"#utility.yul\":2827:2906   */\n      tag_173\n      tag_86\n      jump\t// in\n    tag_173:\n        /* \"#utility.yul\":2786:2908   */\n    tag_172:\n        /* \"#utility.yul\":2944:2950   */\n      dup2\n        /* \"#utility.yul\":2931:2951   */\n      calldataload\n        /* \"#utility.yul\":2969:3048   */\n      tag_174\n        /* \"#utility.yul\":3044:3047   */\n      dup5\n        /* \"#utility.yul\":3036:3042   */\n      dup3\n        /* \"#utility.yul\":3029:3033   */\n      0x20\n        /* \"#utility.yul\":3021:3027   */\n      dup7\n        /* \"#utility.yul\":3017:3034   */\n      add\n        /* \"#utility.yul\":2969:3048   */\n      tag_94\n      jump\t// in\n    tag_174:\n        /* \"#utility.yul\":2960:3048   */\n      swap2\n      pop\n        /* \"#utility.yul\":2776:3054   */\n      pop\n        /* \"#utility.yul\":2714:3054   */\n      swap3\n      swap2\n      pop\n      pop\n      jump\t// out\n        /* \"#utility.yul\":3060:3714   */\n    tag_10:\n        /* \"#utility.yul\":3138:3144   */\n      0x00\n        /* \"#utility.yul\":3146:3152   */\n      dup1\n        /* \"#utility.yul\":3195:3197   */\n      0x40\n        /* \"#utility.yul\":3183:3192   */\n      dup4\n        /* \"#utility.yul\":3174:3181   */\n      dup6\n        /* \"#utility.yul\":3170:3193   */\n      sub\n        /* \"#utility.yul\":3166:3198   */\n      slt\n        /* \"#utility.yul\":3163:3282   */\n      iszero\n      tag_176\n      jumpi\n        /* \"#utility.yul\":3201:3280   */\n      tag_177\n      tag_80\n      jump\t// in\n    tag_177:\n        /* \"#utility.yul\":3163:3282   */\n    tag_176:\n        /* \"#utility.yul\":3321:3322   */\n      0x00\n        /* \"#utility.yul\":3346:3399   */\n      tag_178\n        /* \"#utility.yul\":3391:3398   */\n      dup6\n        /* \"#utility.yul\":3382:3388   */\n      dup3\n        /* \"#utility.yul\":3371:3380   */\n      dup7\n        /* \"#utility.yul\":3367:3389   */\n      add\n        /* \"#utility.yul\":3346:3399   */\n      tag_85\n      jump\t// in\n    tag_178:\n        /* \"#utility.yul\":3336:3399   */\n      swap3\n      pop\n        /* \"#utility.yul\":3292:3409   */\n      pop\n        /* \"#utility.yul\":3476:3478   */\n      0x20\n        /* \"#utility.yul\":3465:3474   */\n      dup4\n        /* \"#utility.yul\":3461:3479   */\n      add\n        /* \"#utility.yul\":3448:3480   */\n      calldataload\n        /* \"#utility.yul\":3507:3525   */\n      0xffffffffffffffff\n        /* \"#utility.yul\":3499:3505   */\n      dup2\n        /* \"#utility.yul\":3496:3526   */\n      gt\n        /* \"#utility.yul\":3493:3610   */\n      iszero\n      tag_179\n      jumpi\n        /* \"#utility.yul\":3529:3608   */\n      tag_180\n      tag_81\n      jump\t// in\n    tag_180:\n        /* \"#utility.yul\":3493:3610   */\n    tag_179:\n        /* \"#utility.yul\":3634:3697   */\n      tag_181\n        /* \"#utility.yul\":3689:3696   */\n      dup6\n        /* \"#utility.yul\":3680:3686   */\n      dup3\n        /* \"#utility.yul\":3669:3678   */\n      dup7\n        /* \"#utility.yul\":3665:3687   */\n      add\n        /* \"#utility.yul\":3634:3697   */\n      tag_95\n      jump\t// in\n    tag_181:\n        /* \"#utility.yul\":3624:3697   */\n      swap2\n      pop\n        /* \"#utility.yul\":3419:3707   */\n      pop\n        /* \"#utility.yul\":3060:3714   */\n      swap3\n      pop\n      swap3\n      swap1\n      pop\n      jump\t// out\n        /* \"#utility.yul\":3720:4049   */\n    tag_14:\n        /* \"#utility.yul\":3779:3785   */\n      0x00\n        /* \"#utility.yul\":3828:3830   */\n      0x20\n        /* \"#utility.yul\":3816:3825   */\n      dup3\n        /* \"#utility.yul\":3807:3814   */\n      dup5\n        /* \"#utility.yul\":3803:3826   */\n      sub\n        /* \"#utility.yul\":3799:3831   */\n      slt\n        /* \"#utility.yul\":3796:3915   */\n      iszero\n      tag_183\n      jumpi\n        /* \"#utility.yul\":3834:3913   */\n      tag_184\n      tag_80\n      jump\t// in\n    tag_184:\n        /* \"#utility.yul\":3796:3915   */\n    tag_183:\n        /* \"#utility.yul\":3954:3955   */\n      0x00\n        /* \"#utility.yul\":3979:4032   */\n      tag_185\n        /* \"#utility.yul\":4024:4031   */\n      dup5\n        /* \"#utility.yul\":4015:4021   */\n      dup3\n        /* \"#utility.yul\":4004:4013   */\n      dup6\n        /* \"#utility.yul\":4000:4022   */\n      add\n        /* \"#utility.yul\":3979:4032   */\n      tag_85\n      jump\t// in\n    tag_185:\n        /* \"#utility.yul\":3969:4032   */\n      swap2\n      pop\n        /* \"#utility.yul\":3925:4042   */\n      pop\n        /* \"#utility.yul\":3720:4049   */\n      swap3\n      swap2\n      pop\n      pop\n      jump\t// out\n        /* \"#utility.yul\":4055:4190   */\n    tag_96:\n        /* \"#utility.yul\":4143:4149   */\n      0x00\n        /* \"#utility.yul\":4177:4182   */\n      dup2\n        /* \"#utility.yul\":4171:4183   */\n      mload\n        /* \"#utility.yul\":4161:4183   */\n      swap1\n      pop\n        /* \"#utility.yul\":4055:4190   */\n      swap2\n      swap1\n      pop\n      jump\t// out\n        /* \"#utility.yul\":4196:4401   */\n    tag_97:\n        /* \"#utility.yul\":4316:4327   */\n      0x00\n        /* \"#utility.yul\":4350:4356   */\n      dup3\n        /* \"#utility.yul\":4345:4348   */\n      dup3\n        /* \"#utility.yul\":4338:4357   */\n      mstore\n        /* \"#utility.yul\":4390:4394   */\n      0x20\n        /* \"#utility.yul\":4385:4388   */\n      dup3\n        /* \"#utility.yul\":4381:4395   */\n      add\n        /* \"#utility.yul\":4366:4395   */\n      swap1\n      pop\n        /* \"#utility.yul\":4196:4401   */\n      swap3\n      swap2\n      pop\n      pop\n      jump\t// out\n        /* \"#utility.yul\":4407:4560   */\n    tag_98:\n        /* \"#utility.yul\":4495:4499   */\n      0x00\n        /* \"#utility.yul\":4518:4521   */\n      dup2\n        /* \"#utility.yul\":4510:4521   */\n      swap1\n      pop\n        /* \"#utility.yul\":4548:4552   */\n      0x20\n        /* \"#utility.yul\":4543:4546   */\n      dup3\n        /* \"#utility.yul\":4539:4553   */\n      add\n        /* \"#utility.yul\":4531:4553   */\n      swap1\n      pop\n        /* \"#utility.yul\":4407:4560   */\n      swap2\n      swap1\n      pop\n      jump\t// out\n        /* \"#utility.yul\":4566:4674   */\n    tag_99:\n        /* \"#utility.yul\":4643:4667   */\n      tag_190\n        /* \"#utility.yul\":4661:4666   */\n      dup2\n        /* \"#utility.yul\":4643:4667   */\n      tag_83\n      jump\t// in\n    tag_190:\n        /* \"#utility.yul\":4638:4641   */\n      dup3\n        /* \"#utility.yul\":4631:4668   */\n      mstore\n        /* \"#utility.yul\":4566:4674   */\n      pop\n      pop\n      jump\t// out\n        /* \"#utility.yul\":4680:4770   */\n    tag_100:\n        /* \"#utility.yul\":4714:4721   */\n      0x00\n        /* \"#utility.yul\":4757:4762   */\n      dup2\n        /* \"#utility.yul\":4750:4763   */\n      iszero\n        /* \"#utility.yul\":4743:4764   */\n      iszero\n        /* \"#utility.yul\":4732:4764   */\n      swap1\n      pop\n        /* \"#utility.yul\":4680:4770   */\n      swap2\n      swap1\n      pop\n      jump\t// out\n        /* \"#utility.yul\":4776:4875   */\n    tag_101:\n        /* \"#utility.yul\":4847:4868   */\n      tag_193\n        /* \"#utility.yul\":4862:4867   */\n      dup2\n        /* \"#utility.yul\":4847:4868   */\n      tag_100\n      jump\t// in\n    tag_193:\n        /* \"#utility.yul\":4842:4845   */\n      dup3\n        /* \"#utility.yul\":4835:4869   */\n      mstore\n        /* \"#utility.yul\":4776:4875   */\n      pop\n      pop\n      jump\t// out\n        /* \"#utility.yul\":4933:5418   */\n    tag_102:\n        /* \"#utility.yul\":5062:5066   */\n      0x40\n        /* \"#utility.yul\":5057:5060   */\n      dup3\n        /* \"#utility.yul\":5053:5067   */\n      add\n        /* \"#utility.yul\":5149:5153   */\n      0x00\n        /* \"#utility.yul\":5142:5147   */\n      dup3\n        /* \"#utility.yul\":5138:5154   */\n      add\n        /* \"#utility.yul\":5132:5155   */\n      mload\n        /* \"#utility.yul\":5168:5231   */\n      tag_195\n        /* \"#utility.yul\":5225:5229   */\n      0x00\n        /* \"#utility.yul\":5220:5223   */\n      dup6\n        /* \"#utility.yul\":5216:5230   */\n      add\n        /* \"#utility.yul\":5202:5214   */\n      dup3\n        /* \"#utility.yul\":5168:5231   */\n      tag_99\n      jump\t// in\n    tag_195:\n        /* \"#utility.yul\":5077:5241   */\n      pop\n        /* \"#utility.yul\":5325:5329   */\n      0x20\n        /* \"#utility.yul\":5318:5323   */\n      dup3\n        /* \"#utility.yul\":5314:5330   */\n      add\n        /* \"#utility.yul\":5308:5331   */\n      mload\n        /* \"#utility.yul\":5344:5401   */\n      tag_196\n        /* \"#utility.yul\":5395:5399   */\n      0x20\n        /* \"#utility.yul\":5390:5393   */\n      dup6\n        /* \"#utility.yul\":5386:5400   */\n      add\n        /* \"#utility.yul\":5372:5384   */\n      dup3\n        /* \"#utility.yul\":5344:5401   */\n      tag_101\n      jump\t// in\n    tag_196:\n        /* \"#utility.yul\":5251:5411   */\n      pop\n        /* \"#utility.yul\":5031:5418   */\n      pop\n        /* \"#utility.yul\":4933:5418   */\n      pop\n      pop\n      jump\t// out\n        /* \"#utility.yul\":5424:5687   */\n    tag_103:\n        /* \"#utility.yul\":5535:5545   */\n      0x00\n        /* \"#utility.yul\":5556:5644   */\n      tag_198\n        /* \"#utility.yul\":5640:5643   */\n      dup4\n        /* \"#utility.yul\":5632:5638   */\n      dup4\n        /* \"#utility.yul\":5556:5644   */\n      tag_102\n      jump\t// in\n    tag_198:\n        /* \"#utility.yul\":5676:5680   */\n      0x40\n        /* \"#utility.yul\":5671:5674   */\n      dup4\n        /* \"#utility.yul\":5667:5681   */\n      add\n        /* \"#utility.yul\":5653:5681   */\n      swap1\n      pop\n        /* \"#utility.yul\":5424:5687   */\n      swap3\n      swap2\n      pop\n      pop\n      jump\t// out\n        /* \"#utility.yul\":5693:5827   */\n    tag_104:\n        /* \"#utility.yul\":5784:5788   */\n      0x00\n        /* \"#utility.yul\":5816:5820   */\n      0x20\n        /* \"#utility.yul\":5811:5814   */\n      dup3\n        /* \"#utility.yul\":5807:5821   */\n      add\n        /* \"#utility.yul\":5799:5821   */\n      swap1\n      pop\n        /* \"#utility.yul\":5693:5827   */\n      swap2\n      swap1\n      pop\n      jump\t// out\n        /* \"#utility.yul\":5889:6789   */\n    tag_105:\n        /* \"#utility.yul\":6050:6053   */\n      0x00\n        /* \"#utility.yul\":6079:6154   */\n      tag_201\n        /* \"#utility.yul\":6148:6153   */\n      dup3\n        /* \"#utility.yul\":6079:6154   */\n      tag_96\n      jump\t// in\n    tag_201:\n        /* \"#utility.yul\":6170:6277   */\n      tag_202\n        /* \"#utility.yul\":6270:6276   */\n      dup2\n        /* \"#utility.yul\":6265:6268   */\n      dup6\n        /* \"#utility.yul\":6170:6277   */\n      tag_97\n      jump\t// in\n    tag_202:\n        /* \"#utility.yul\":6163:6277   */\n      swap4\n      pop\n        /* \"#utility.yul\":6301:6378   */\n      tag_203\n        /* \"#utility.yul\":6372:6377   */\n      dup4\n        /* \"#utility.yul\":6301:6378   */\n      tag_98\n      jump\t// in\n    tag_203:\n        /* \"#utility.yul\":6401:6408   */\n      dup1\n        /* \"#utility.yul\":6432:6433   */\n      0x00\n        /* \"#utility.yul\":6417:6764   */\n    tag_204:\n        /* \"#utility.yul\":6442:6448   */\n      dup4\n        /* \"#utility.yul\":6439:6440   */\n      dup2\n        /* \"#utility.yul\":6436:6449   */\n      lt\n        /* \"#utility.yul\":6417:6764   */\n      iszero\n      tag_206\n      jumpi\n        /* \"#utility.yul\":6518:6524   */\n      dup2\n        /* \"#utility.yul\":6512:6525   */\n      mload\n        /* \"#utility.yul\":6545:6650   */\n      tag_207\n        /* \"#utility.yul\":6646:6649   */\n      dup9\n        /* \"#utility.yul\":6631:6644   */\n      dup3\n        /* \"#utility.yul\":6545:6650   */\n      tag_103\n      jump\t// in\n    tag_207:\n        /* \"#utility.yul\":6538:6650   */\n      swap8\n      pop\n        /* \"#utility.yul\":6673:6754   */\n      tag_208\n        /* \"#utility.yul\":6747:6753   */\n      dup4\n        /* \"#utility.yul\":6673:6754   */\n      tag_104\n      jump\t// in\n    tag_208:\n        /* \"#utility.yul\":6663:6754   */\n      swap3\n      pop\n        /* \"#utility.yul\":6477:6764   */\n      pop\n        /* \"#utility.yul\":6464:6465   */\n      0x01\n        /* \"#utility.yul\":6461:6462   */\n      dup2\n        /* \"#utility.yul\":6457:6466   */\n      add\n        /* \"#utility.yul\":6452:6466   */\n      swap1\n      pop\n        /* \"#utility.yul\":6417:6764   */\n      jump(tag_204)\n    tag_206:\n        /* \"#utility.yul\":6421:6435   */\n      pop\n        /* \"#utility.yul\":6780:6783   */\n      dup6\n        /* \"#utility.yul\":6773:6783   */\n      swap4\n      pop\n        /* \"#utility.yul\":6055:6789   */\n      pop\n      pop\n      pop\n        /* \"#utility.yul\":5889:6789   */\n      swap3\n      swap2\n      pop\n      pop\n      jump\t// out\n        /* \"#utility.yul\":6795:7252   */\n    tag_19:\n        /* \"#utility.yul\":6980:6984   */\n      0x00\n        /* \"#utility.yul\":7018:7020   */\n      0x20\n        /* \"#utility.yul\":7007:7016   */\n      dup3\n        /* \"#utility.yul\":7003:7021   */\n      add\n        /* \"#utility.yul\":6995:7021   */\n      swap1\n      pop\n        /* \"#utility.yul\":7067:7076   */\n      dup2\n        /* \"#utility.yul\":7061:7065   */\n      dup2\n        /* \"#utility.yul\":7057:7077   */\n      sub\n        /* \"#utility.yul\":7053:7054   */\n      0x00\n        /* \"#utility.yul\":7042:7051   */\n      dup4\n        /* \"#utility.yul\":7038:7055   */\n      add\n        /* \"#utility.yul\":7031:7078   */\n      mstore\n        /* \"#utility.yul\":7095:7245   */\n      tag_210\n        /* \"#utility.yul\":7240:7244   */\n      dup2\n        /* \"#utility.yul\":7231:7237   */\n      dup5\n        /* \"#utility.yul\":7095:7245   */\n      tag_105\n      jump\t// in\n    tag_210:\n        /* \"#utility.yul\":7087:7245   */\n      swap1\n      pop\n        /* \"#utility.yul\":6795:7252   */\n      swap3\n      swap2\n      pop\n      pop\n      jump\t// out\n        /* \"#utility.yul\":7258:7382   */\n    tag_106:\n        /* \"#utility.yul\":7335:7341   */\n      0x00\n        /* \"#utility.yul\":7369:7374   */\n      dup2\n        /* \"#utility.yul\":7363:7375   */\n      mload\n        /* \"#utility.yul\":7353:7375   */\n      swap1\n      pop\n        /* \"#utility.yul\":7258:7382   */\n      swap2\n      swap1\n      pop\n      jump\t// out\n        /* \"#utility.yul\":7388:7582   */\n    tag_107:\n        /* \"#utility.yul\":7497:7508   */\n      0x00\n        /* \"#utility.yul\":7531:7537   */\n      dup3\n        /* \"#utility.yul\":7526:7529   */\n      dup3\n        /* \"#utility.yul\":7519:7538   */\n      mstore\n        /* \"#utility.yul\":7571:7575   */\n      0x20\n        /* \"#utility.yul\":7566:7569   */\n      dup3\n        /* \"#utility.yul\":7562:7576   */\n      add\n        /* \"#utility.yul\":7547:7576   */\n      swap1\n      pop\n        /* \"#utility.yul\":7388:7582   */\n      swap3\n      swap2\n      pop\n      pop\n      jump\t// out\n        /* \"#utility.yul\":7588:7730   */\n    tag_108:\n        /* \"#utility.yul\":7665:7669   */\n      0x00\n        /* \"#utility.yul\":7688:7691   */\n      dup2\n        /* \"#utility.yul\":7680:7691   */\n      swap1\n      pop\n        /* \"#utility.yul\":7718:7722   */\n      0x20\n        /* \"#utility.yul\":7713:7716   */\n      dup3\n        /* \"#utility.yul\":7709:7723   */\n      add\n        /* \"#utility.yul\":7701:7723   */\n      swap1\n      pop\n        /* \"#utility.yul\":7588:7730   */\n      swap2\n      swap1\n      pop\n      jump\t// out\n        /* \"#utility.yul\":7736:7835   */\n    tag_109:\n        /* \"#utility.yul\":7788:7794   */\n      0x00\n        /* \"#utility.yul\":7822:7827   */\n      dup2\n        /* \"#utility.yul\":7816:7828   */\n      mload\n        /* \"#utility.yul\":7806:7828   */\n      swap1\n      pop\n        /* \"#utility.yul\":7736:7835   */\n      swap2\n      swap1\n      pop\n      jump\t// out\n        /* \"#utility.yul\":7841:8000   */\n    tag_110:\n        /* \"#utility.yul\":7915:7926   */\n      0x00\n        /* \"#utility.yul\":7949:7955   */\n      dup3\n        /* \"#utility.yul\":7944:7947   */\n      dup3\n        /* \"#utility.yul\":7937:7956   */\n      mstore\n        /* \"#utility.yul\":7989:7993   */\n      0x20\n        /* \"#utility.yul\":7984:7987   */\n      dup3\n        /* \"#utility.yul\":7980:7994   */\n      add\n        /* \"#utility.yul\":7965:7994   */\n      swap1\n      pop\n        /* \"#utility.yul\":7841:8000   */\n      swap3\n      swap2\n      pop\n      pop\n      jump\t// out\n        /* \"#utility.yul\":8006:8252   */\n    tag_111:\n        /* \"#utility.yul\":8087:8088   */\n      0x00\n        /* \"#utility.yul\":8097:8210   */\n    tag_217:\n        /* \"#utility.yul\":8111:8117   */\n      dup4\n        /* \"#utility.yul\":8108:8109   */\n      dup2\n        /* \"#utility.yul\":8105:8118   */\n      lt\n        /* \"#utility.yul\":8097:8210   */\n      iszero\n      tag_219\n      jumpi\n        /* \"#utility.yul\":8196:8197   */\n      dup1\n        /* \"#utility.yul\":8191:8194   */\n      dup3\n        /* \"#utility.yul\":8187:8198   */\n      add\n        /* \"#utility.yul\":8181:8199   */\n      mload\n        /* \"#utility.yul\":8177:8178   */\n      dup2\n        /* \"#utility.yul\":8172:8175   */\n      dup5\n        /* \"#utility.yul\":8168:8179   */\n      add\n        /* \"#utility.yul\":8161:8200   */\n      mstore\n        /* \"#utility.yul\":8133:8135   */\n      0x20\n        /* \"#utility.yul\":8130:8131   */\n      dup2\n        /* \"#utility.yul\":8126:8136   */\n      add\n        /* \"#utility.yul\":8121:8136   */\n      swap1\n      pop\n        /* \"#utility.yul\":8097:8210   */\n      jump(tag_217)\n    tag_219:\n        /* \"#utility.yul\":8244:8245   */\n      0x00\n        /* \"#utility.yul\":8235:8241   */\n      dup5\n        /* \"#utility.yul\":8230:8233   */\n      dup5\n        /* \"#utility.yul\":8226:8242   */\n      add\n        /* \"#utility.yul\":8219:8246   */\n      mstore\n        /* \"#utility.yul\":8068:8252   */\n      pop\n        /* \"#utility.yul\":8006:8252   */\n      pop\n      pop\n      pop\n      jump\t// out\n        /* \"#utility.yul\":8258:8615   */\n    tag_112:\n        /* \"#utility.yul\":8336:8339   */\n      0x00\n        /* \"#utility.yul\":8364:8403   */\n      tag_221\n        /* \"#utility.yul\":8397:8402   */\n      dup3\n        /* \"#utility.yul\":8364:8403   */\n      tag_109\n      jump\t// in\n    tag_221:\n        /* \"#utility.yul\":8419:8480   */\n      tag_222\n        /* \"#utility.yul\":8473:8479   */\n      dup2\n        /* \"#utility.yul\":8468:8471   */\n      dup6\n        /* \"#utility.yul\":8419:8480   */\n      tag_110\n      jump\t// in\n    tag_222:\n        /* \"#utility.yul\":8412:8480   */\n      swap4\n      pop\n        /* \"#utility.yul\":8489:8554   */\n      tag_223\n        /* \"#utility.yul\":8547:8553   */\n      dup2\n        /* \"#utility.yul\":8542:8545   */\n      dup6\n        /* \"#utility.yul\":8535:8539   */\n      0x20\n        /* \"#utility.yul\":8528:8533   */\n      dup7\n        /* \"#utility.yul\":8524:8540   */\n      add\n        /* \"#utility.yul\":8489:8554   */\n      tag_111\n      jump\t// in\n    tag_223:\n        /* \"#utility.yul\":8579:8608   */\n      tag_224\n        /* \"#utility.yul\":8601:8607   */\n      dup2\n        /* \"#utility.yul\":8579:8608   */\n      tag_88\n      jump\t// in\n    tag_224:\n        /* \"#utility.yul\":8574:8577   */\n      dup5\n        /* \"#utility.yul\":8570:8609   */\n      add\n        /* \"#utility.yul\":8563:8609   */\n      swap2\n      pop\n        /* \"#utility.yul\":8340:8615   */\n      pop\n        /* \"#utility.yul\":8258:8615   */\n      swap3\n      swap2\n      pop\n      pop\n      jump\t// out\n        /* \"#utility.yul\":8621:8817   */\n    tag_113:\n        /* \"#utility.yul\":8710:8720   */\n      0x00\n        /* \"#utility.yul\":8745:8811   */\n      tag_226\n        /* \"#utility.yul\":8807:8810   */\n      dup4\n        /* \"#utility.yul\":8799:8805   */\n      dup4\n        /* \"#utility.yul\":8745:8811   */\n      tag_112\n      jump\t// in\n    tag_226:\n        /* \"#utility.yul\":8731:8811   */\n      swap1\n      pop\n        /* \"#utility.yul\":8621:8817   */\n      swap3\n      swap2\n      pop\n      pop\n      jump\t// out\n        /* \"#utility.yul\":8823:8946   */\n    tag_114:\n        /* \"#utility.yul\":8903:8907   */\n      0x00\n        /* \"#utility.yul\":8935:8939   */\n      0x20\n        /* \"#utility.yul\":8930:8933   */\n      dup3\n        /* \"#utility.yul\":8926:8940   */\n      add\n        /* \"#utility.yul\":8918:8940   */\n      swap1\n      pop\n        /* \"#utility.yul\":8823:8946   */\n      swap2\n      swap1\n      pop\n      jump\t// out\n        /* \"#utility.yul\":8980:9971   */\n    tag_115:\n        /* \"#utility.yul\":9119:9122   */\n      0x00\n        /* \"#utility.yul\":9148:9212   */\n      tag_229\n        /* \"#utility.yul\":9206:9211   */\n      dup3\n        /* \"#utility.yul\":9148:9212   */\n      tag_106\n      jump\t// in\n    tag_229:\n        /* \"#utility.yul\":9228:9324   */\n      tag_230\n        /* \"#utility.yul\":9317:9323   */\n      dup2\n        /* \"#utility.yul\":9312:9315   */\n      dup6\n        /* \"#utility.yul\":9228:9324   */\n      tag_107\n      jump\t// in\n    tag_230:\n        /* \"#utility.yul\":9221:9324   */\n      swap4\n      pop\n        /* \"#utility.yul\":9350:9353   */\n      dup4\n        /* \"#utility.yul\":9395:9399   */\n      0x20\n        /* \"#utility.yul\":9387:9393   */\n      dup3\n        /* \"#utility.yul\":9383:9400   */\n      mul\n        /* \"#utility.yul\":9378:9381   */\n      dup6\n        /* \"#utility.yul\":9374:9401   */\n      add\n        /* \"#utility.yul\":9425:9491   */\n      tag_231\n        /* \"#utility.yul\":9485:9490   */\n      dup6\n        /* \"#utility.yul\":9425:9491   */\n      tag_108\n      jump\t// in\n    tag_231:\n        /* \"#utility.yul\":9514:9521   */\n      dup1\n        /* \"#utility.yul\":9545:9546   */\n      0x00\n        /* \"#utility.yul\":9530:9926   */\n    tag_232:\n        /* \"#utility.yul\":9555:9561   */\n      dup6\n        /* \"#utility.yul\":9552:9553   */\n      dup2\n        /* \"#utility.yul\":9549:9562   */\n      lt\n        /* \"#utility.yul\":9530:9926   */\n      iszero\n      tag_234\n      jumpi\n        /* \"#utility.yul\":9626:9635   */\n      dup5\n        /* \"#utility.yul\":9620:9624   */\n      dup5\n        /* \"#utility.yul\":9616:9636   */\n      sub\n        /* \"#utility.yul\":9611:9614   */\n      dup10\n        /* \"#utility.yul\":9604:9637   */\n      mstore\n        /* \"#utility.yul\":9677:9683   */\n      dup2\n        /* \"#utility.yul\":9671:9684   */\n      mload\n        /* \"#utility.yul\":9705:9789   */\n      tag_235\n        /* \"#utility.yul\":9784:9788   */\n      dup6\n        /* \"#utility.yul\":9769:9782   */\n      dup3\n        /* \"#utility.yul\":9705:9789   */\n      tag_113\n      jump\t// in\n    tag_235:\n        /* \"#utility.yul\":9697:9789   */\n      swap5\n      pop\n        /* \"#utility.yul\":9812:9882   */\n      tag_236\n        /* \"#utility.yul\":9875:9881   */\n      dup4\n        /* \"#utility.yul\":9812:9882   */\n      tag_114\n      jump\t// in\n    tag_236:\n        /* \"#utility.yul\":9802:9882   */\n      swap3\n      pop\n        /* \"#utility.yul\":9911:9915   */\n      0x20\n        /* \"#utility.yul\":9906:9909   */\n      dup11\n        /* \"#utility.yul\":9902:9916   */\n      add\n        /* \"#utility.yul\":9895:9916   */\n      swap10\n      pop\n        /* \"#utility.yul\":9590:9926   */\n      pop\n        /* \"#utility.yul\":9577:9578   */\n      0x01\n        /* \"#utility.yul\":9574:9575   */\n      dup2\n        /* \"#utility.yul\":9570:9579   */\n      add\n        /* \"#utility.yul\":9565:9579   */\n      swap1\n      pop\n        /* \"#utility.yul\":9530:9926   */\n      jump(tag_232)\n    tag_234:\n        /* \"#utility.yul\":9534:9548   */\n      pop\n        /* \"#utility.yul\":9942:9946   */\n      dup3\n        /* \"#utility.yul\":9935:9946   */\n      swap8\n      pop\n        /* \"#utility.yul\":9962:9965   */\n      dup8\n        /* \"#utility.yul\":9955:9965   */\n      swap6\n      pop\n        /* \"#utility.yul\":9124:9971   */\n      pop\n      pop\n      pop\n      pop\n      pop\n        /* \"#utility.yul\":8980:9971   */\n      swap3\n      swap2\n      pop\n      pop\n      jump\t// out\n        /* \"#utility.yul\":9977:10390   */\n    tag_24:\n        /* \"#utility.yul\":10140:10144   */\n      0x00\n        /* \"#utility.yul\":10178:10180   */\n      0x20\n        /* \"#utility.yul\":10167:10176   */\n      dup3\n        /* \"#utility.yul\":10163:10181   */\n      add\n        /* \"#utility.yul\":10155:10181   */\n      swap1\n      pop\n        /* \"#utility.yul\":10227:10236   */\n      dup2\n        /* \"#utility.yul\":10221:10225   */\n      dup2\n        /* \"#utility.yul\":10217:10237   */\n      sub\n        /* \"#utility.yul\":10213:10214   */\n      0x00\n        /* \"#utility.yul\":10202:10211   */\n      dup4\n        /* \"#utility.yul\":10198:10215   */\n      add\n        /* \"#utility.yul\":10191:10238   */\n      mstore\n        /* \"#utility.yul\":10255:10383   */\n      tag_238\n        /* \"#utility.yul\":10378:10382   */\n      dup2\n        /* \"#utility.yul\":10369:10375   */\n      dup5\n        /* \"#utility.yul\":10255:10383   */\n      tag_115\n      jump\t// in\n    tag_238:\n        /* \"#utility.yul\":10247:10383   */\n      swap1\n      pop\n        /* \"#utility.yul\":9977:10390   */\n      swap3\n      swap2\n      pop\n      pop\n      jump\t// out\n        /* \"#utility.yul\":10396:10576   */\n    tag_116:\n        /* \"#utility.yul\":10444:10521   */\n      0x4e487b7100000000000000000000000000000000000000000000000000000000\n        /* \"#utility.yul\":10441:10442   */\n      0x00\n        /* \"#utility.yul\":10434:10522   */\n      mstore\n        /* \"#utility.yul\":10541:10545   */\n      0x22\n        /* \"#utility.yul\":10538:10539   */\n      0x04\n        /* \"#utility.yul\":10531:10546   */\n      mstore\n        /* \"#utility.yul\":10565:10569   */\n      0x24\n        /* \"#utility.yul\":10562:10563   */\n      0x00\n        /* \"#utility.yul\":10555:10570   */\n      revert\n        /* \"#utility.yul\":10582:10902   */\n    tag_59:\n        /* \"#utility.yul\":10626:10632   */\n      0x00\n        /* \"#utility.yul\":10663:10664   */\n      0x02\n        /* \"#utility.yul\":10657:10661   */\n      dup3\n        /* \"#utility.yul\":10653:10665   */\n      div\n        /* \"#utility.yul\":10643:10665   */\n      swap1\n      pop\n        /* \"#utility.yul\":10710:10711   */\n      0x01\n        /* \"#utility.yul\":10704:10708   */\n      dup3\n        /* \"#utility.yul\":10700:10712   */\n      and\n        /* \"#utility.yul\":10731:10749   */\n      dup1\n        /* \"#utility.yul\":10721:10802   */\n      tag_241\n      jumpi\n        /* \"#utility.yul\":10787:10791   */\n      0x7f\n        /* \"#utility.yul\":10779:10785   */\n      dup3\n        /* \"#utility.yul\":10775:10792   */\n      and\n        /* \"#utility.yul\":10765:10792   */\n      swap2\n      pop\n        /* \"#utility.yul\":10721:10802   */\n    tag_241:\n        /* \"#utility.yul\":10849:10851   */\n      0x20\n        /* \"#utility.yul\":10841:10847   */\n      dup3\n        /* \"#utility.yul\":10838:10852   */\n      lt\n        /* \"#utility.yul\":10818:10836   */\n      dup2\n        /* \"#utility.yul\":10815:10853   */\n      sub\n        /* \"#utility.yul\":10812:10896   */\n      tag_242\n      jumpi\n        /* \"#utility.yul\":10868:10886   */\n      tag_243\n      tag_116\n      jump\t// in\n    tag_243:\n        /* \"#utility.yul\":10812:10896   */\n    tag_242:\n        /* \"#utility.yul\":10633:10902   */\n      pop\n        /* \"#utility.yul\":10582:10902   */\n      swap2\n      swap1\n      pop\n      jump\t// out\n        /* \"#utility.yul\":10908:11049   */\n    tag_117:\n        /* \"#utility.yul\":10957:10961   */\n      0x00\n        /* \"#utility.yul\":10980:10983   */\n      dup2\n        /* \"#utility.yul\":10972:10983   */\n      swap1\n      pop\n        /* \"#utility.yul\":11003:11006   */\n      dup2\n        /* \"#utility.yul\":11000:11001   */\n      0x00\n        /* \"#utility.yul\":10993:11007   */\n      mstore\n        /* \"#utility.yul\":11037:11041   */\n      0x20\n        /* \"#utility.yul\":11034:11035   */\n      0x00\n        /* \"#utility.yul\":11024:11042   */\n      keccak256\n        /* \"#utility.yul\":11016:11042   */\n      swap1\n      pop\n        /* \"#utility.yul\":10908:11049   */\n      swap2\n      swap1\n      pop\n      jump\t// out\n        /* \"#utility.yul\":11055:11148   */\n    tag_118:\n        /* \"#utility.yul\":11092:11098   */\n      0x00\n        /* \"#utility.yul\":11139:11141   */\n      0x20\n        /* \"#utility.yul\":11134:11136   */\n      0x1f\n        /* \"#utility.yul\":11127:11132   */\n      dup4\n        /* \"#utility.yul\":11123:11137   */\n      add\n        /* \"#utility.yul\":11119:11142   */\n      div\n        /* \"#utility.yul\":11109:11142   */\n      swap1\n      pop\n        /* \"#utility.yul\":11055:11148   */\n      swap2\n      swap1\n      pop\n      jump\t// out\n        /* \"#utility.yul\":11154:11261   */\n    tag_119:\n        /* \"#utility.yul\":11198:11206   */\n      0x00\n        /* \"#utility.yul\":11248:11253   */\n      dup3\n        /* \"#utility.yul\":11242:11246   */\n      dup3\n        /* \"#utility.yul\":11238:11254   */\n      shl\n        /* \"#utility.yul\":11217:11254   */\n      swap1\n      pop\n        /* \"#utility.yul\":11154:11261   */\n      swap3\n      swap2\n      pop\n      pop\n      jump\t// out\n        /* \"#utility.yul\":11267:11660   */\n    tag_120:\n        /* \"#utility.yul\":11336:11342   */\n      0x00\n        /* \"#utility.yul\":11386:11387   */\n      0x08\n        /* \"#utility.yul\":11374:11384   */\n      dup4\n        /* \"#utility.yul\":11370:11388   */\n      mul\n        /* \"#utility.yul\":11409:11506   */\n      tag_248\n        /* \"#utility.yul\":11439:11505   */\n      0xffffffffffffffffffffffffffffffffffffffffffffffffffffffffffffffff\n        /* \"#utility.yul\":11428:11437   */\n      dup3\n        /* \"#utility.yul\":11409:11506   */\n      tag_119\n      jump\t// in\n    tag_248:\n        /* \"#utility.yul\":11527:11566   */\n      tag_249\n        /* \"#utility.yul\":11557:11565   */\n      dup7\n        /* \"#utility.yul\":11546:11555   */\n      dup4\n        /* \"#utility.yul\":11527:11566   */\n      tag_119\n      jump\t// in\n    tag_249:\n        /* \"#utility.yul\":11515:11566   */\n      swap6\n      pop\n        /* \"#utility.yul\":11599:11603   */\n      dup1\n        /* \"#utility.yul\":11595:11604   */\n      not\n        /* \"#utility.yul\":11588:11593   */\n      dup5\n        /* \"#utility.yul\":11584:11605   */\n      and\n        /* \"#utility.yul\":11575:11605   */\n      swap4\n      pop\n        /* \"#utility.yul\":11648:11652   */\n      dup1\n        /* \"#utility.yul\":11638:11646   */\n      dup7\n        /* \"#utility.yul\":11634:11653   */\n      and\n        /* \"#utility.yul\":11627:11632   */\n      dup5\n        /* \"#utility.yul\":11624:11654   */\n      or\n        /* \"#utility.yul\":11614:11654   */\n      swap3\n      pop\n        /* \"#utility.yul\":11343:11660   */\n      pop\n      pop\n        /* \"#utility.yul\":11267:11660   */\n      swap4\n      swap3\n      pop\n      pop\n      pop\n      jump\t// out\n        /* \"#utility.yul\":11666:11743   */\n    tag_121:\n        /* \"#utility.yul\":11703:11710   */\n      0x00\n        /* \"#utility.yul\":11732:11737   */\n      dup2\n        /* \"#utility.yul\":11721:11737   */\n      swap1\n      pop\n        /* \"#utility.yul\":11666:11743   */\n      swap2\n      swap1\n      pop\n      jump\t// out\n        /* \"#utility.yul\":11749:11809   */\n    tag_122:\n        /* \"#utility.yul\":11777:11780   */\n      0x00\n        /* \"#utility.yul\":11798:11803   */\n      dup2\n        /* \"#utility.yul\":11791:11803   */\n      swap1\n      pop\n        /* \"#utility.yul\":11749:11809   */\n      swap2\n      swap1\n      pop\n      jump\t// out\n        /* \"#utility.yul\":11815:11957   */\n    tag_123:\n        /* \"#utility.yul\":11865:11874   */\n      0x00\n        /* \"#utility.yul\":11898:11951   */\n      tag_253\n        /* \"#utility.yul\":11916:11950   */\n      tag_254\n        /* \"#utility.yul\":11925:11949   */\n      tag_255\n        /* \"#utility.yul\":11943:11948   */\n      dup5\n        /* \"#utility.yul\":11925:11949   */\n      tag_121\n      jump\t// in\n    tag_255:\n        /* \"#utility.yul\":11916:11950   */\n      tag_122\n      jump\t// in\n    tag_254:\n        /* \"#utility.yul\":11898:11951   */\n      tag_121\n      jump\t// in\n    tag_253:\n        /* \"#utility.yul\":11885:11951   */\n      swap1\n      pop\n        /* \"#utility.yul\":11815:11957   */\n      swap2\n      swap1\n      pop\n      jump\t// out\n        /* \"#utility.yul\":11963:12038   */\n    tag_124:\n        /* \"#utility.yul\":12006:12009   */\n      0x00\n        /* \"#utility.yul\":12027:12032   */\n      dup2\n        /* \"#utility.yul\":12020:12032   */\n      swap1\n      pop\n        /* \"#utility.yul\":11963:12038   */\n      swap2\n      swap1\n      pop\n      jump\t// out\n        /* \"#utility.yul\":12044:12313   */\n    tag_125:\n        /* \"#utility.yul\":12154:12193   */\n      tag_258\n        /* \"#utility.yul\":12185:12192   */\n      dup4\n        /* \"#utility.yul\":12154:12193   */\n      tag_123\n      jump\t// in\n    tag_258:\n        /* \"#utility.yul\":12215:12306   */\n      tag_259\n        /* \"#utility.yul\":12264:12305   */\n      tag_260\n        /* \"#utility.yul\":12288:12304   */\n      dup3\n        /* \"#utility.yul\":12264:12305   */\n      tag_124\n      jump\t// in\n    tag_260:\n        /* \"#utility.yul\":12256:12262   */\n      dup5\n        /* \"#utility.yul\":12249:12253   */\n      dup5\n        /* \"#utility.yul\":12243:12254   */\n      sload\n        /* \"#utility.yul\":12215:12306   */\n      tag_120\n      jump\t// in\n    tag_259:\n        /* \"#utility.yul\":12209:12213   */\n      dup3\n        /* \"#utility.yul\":12202:12307   */\n      sstore\n        /* \"#utility.yul\":12120:12313   */\n      pop\n        /* \"#utility.yul\":12044:12313   */\n      pop\n      pop\n      pop\n      jump\t// out\n        /* \"#utility.yul\":12319:12392   */\n    tag_126:\n        /* \"#utility.yul\":12364:12367   */\n      0x00\n        /* \"#utility.yul\":12319:12392   */\n      swap1\n      jump\t// out\n        /* \"#utility.yul\":12398:12587   */\n    tag_127:\n        /* \"#utility.yul\":12475:12507   */\n      tag_263\n      tag_126\n      jump\t// in\n    tag_263:\n        /* \"#utility.yul\":12516:12581   */\n      tag_264\n        /* \"#utility.yul\":12574:12580   */\n      dup2\n        /* \"#utility.yul\":12566:12572   */\n      dup5\n        /* \"#utility.yul\":12560:12564   */\n      dup5\n        /* \"#utility.yul\":12516:12581   */\n      tag_125\n      jump\t// in\n    tag_264:\n        /* \"#utility.yul\":12451:12587   */\n      pop\n        /* \"#utility.yul\":12398:12587   */\n      pop\n      pop\n      jump\t// out\n        /* \"#utility.yul\":12593:12779   */\n    tag_128:\n        /* \"#utility.yul\":12653:12773   */\n    tag_266:\n        /* \"#utility.yul\":12670:12673   */\n      dup2\n        /* \"#utility.yul\":12663:12668   */\n      dup2\n        /* \"#utility.yul\":12660:12674   */\n      lt\n        /* \"#utility.yul\":12653:12773   */\n      iszero\n      tag_268\n      jumpi\n        /* \"#utility.yul\":12724:12763   */\n      tag_269\n        /* \"#utility.yul\":12761:12762   */\n      0x00\n        /* \"#utility.yul\":12754:12759   */\n      dup3\n        /* \"#utility.yul\":12724:12763   */\n      tag_127\n      jump\t// in\n    tag_269:\n        /* \"#utility.yul\":12697:12698   */\n      0x01\n        /* \"#utility.yul\":12690:12695   */\n      dup2\n        /* \"#utility.yul\":12686:12699   */\n      add\n        /* \"#utility.yul\":12677:12699   */\n      swap1\n      pop\n        /* \"#utility.yul\":12653:12773   */\n      jump(tag_266)\n    tag_268:\n        /* \"#utility.yul\":12593:12779   */\n      pop\n      pop\n      jump\t// out\n        /* \"#utility.yul\":12785:13328   */\n    tag_129:\n        /* \"#utility.yul\":12886:12888   */\n      0x1f\n        /* \"#utility.yul\":12881:12884   */\n      dup3\n        /* \"#utility.yul\":12878:12889   */\n      gt\n        /* \"#utility.yul\":12875:13321   */\n      iszero\n      tag_271\n      jumpi\n        /* \"#utility.yul\":12920:12958   */\n      tag_272\n        /* \"#utility.yul\":12952:12957   */\n      dup2\n        /* \"#utility.yul\":12920:12958   */\n      tag_117\n      jump\t// in\n    tag_272:\n        /* \"#utility.yul\":13004:13033   */\n      tag_273\n        /* \"#utility.yul\":13022:13032   */\n      dup5\n        /* \"#utility.yul\":13004:13033   */\n      tag_118\n      jump\t// in\n    tag_273:\n        /* \"#utility.yul\":12994:13002   */\n      dup2\n        /* \"#utility.yul\":12990:13034   */\n      add\n        /* \"#utility.yul\":13187:13189   */\n      0x20\n        /* \"#utility.yul\":13175:13185   */\n      dup6\n        /* \"#utility.yul\":13172:13190   */\n      lt\n        /* \"#utility.yul\":13169:13218   */\n      iszero\n      tag_274\n      jumpi\n        /* \"#utility.yul\":13208:13216   */\n      dup2\n        /* \"#utility.yul\":13193:13216   */\n      swap1\n      pop\n        /* \"#utility.yul\":13169:13218   */\n    tag_274:\n        /* \"#utility.yul\":13231:13311   */\n      tag_275\n        /* \"#utility.yul\":13287:13309   */\n      tag_276\n        /* \"#utility.yul\":13305:13308   */\n      dup6\n        /* \"#utility.yul\":13287:13309   */\n      tag_118\n      jump\t// in\n    tag_276:\n        /* \"#utility.yul\":13277:13285   */\n      dup4\n        /* \"#utility.yul\":13273:13310   */\n      add\n        /* \"#utility.yul\":13260:13271   */\n      dup3\n        /* \"#utility.yul\":13231:13311   */\n      tag_128\n      jump\t// in\n    tag_275:\n        /* \"#utility.yul\":12890:13321   */\n      pop\n      pop\n        /* \"#utility.yul\":12875:13321   */\n    tag_271:\n        /* \"#utility.yul\":12785:13328   */\n      pop\n      pop\n      pop\n      jump\t// out\n        /* \"#utility.yul\":13334:13451   */\n    tag_130:\n        /* \"#utility.yul\":13388:13396   */\n      0x00\n        /* \"#utility.yul\":13438:13443   */\n      dup3\n        /* \"#utility.yul\":13432:13436   */\n      dup3\n        /* \"#utility.yul\":13428:13444   */\n      shr\n        /* \"#utility.yul\":13407:13444   */\n      swap1\n      pop\n        /* \"#utility.yul\":13334:13451   */\n      swap3\n      swap2\n      pop\n      pop\n      jump\t// out\n        /* \"#utility.yul\":13457:13626   */\n    tag_131:\n        /* \"#utility.yul\":13501:13507   */\n      0x00\n        /* \"#utility.yul\":13534:13585   */\n      tag_279\n        /* \"#utility.yul\":13582:13583   */\n      0x00\n        /* \"#utility.yul\":13578:13584   */\n      not\n        /* \"#utility.yul\":13570:13575   */\n      dup5\n        /* \"#utility.yul\":13567:13568   */\n      0x08\n        /* \"#utility.yul\":13563:13576   */\n      mul\n        /* \"#utility.yul\":13534:13585   */\n      tag_130\n      jump\t// in\n    tag_279:\n        /* \"#utility.yul\":13530:13586   */\n      not\n        /* \"#utility.yul\":13615:13619   */\n      dup1\n        /* \"#utility.yul\":13609:13613   */\n      dup4\n        /* \"#utility.yul\":13605:13620   */\n      and\n        /* \"#utility.yul\":13595:13620   */\n      swap2\n      pop\n        /* \"#utility.yul\":13508:13626   */\n      pop\n        /* \"#utility.yul\":13457:13626   */\n      swap3\n      swap2\n      pop\n      pop\n      jump\t// out\n        /* \"#utility.yul\":13631:13926   */\n    tag_132:\n        /* \"#utility.yul\":13707:13711   */\n      0x00\n        /* \"#utility.yul\":13853:13882   */\n      tag_281\n        /* \"#utility.yul\":13878:13881   */\n      dup4\n        /* \"#utility.yul\":13872:13876   */\n      dup4\n        /* \"#utility.yul\":13853:13882   */\n      tag_131\n      jump\t// in\n    tag_281:\n        /* \"#utility.yul\":13845:13882   */\n      swap2\n      pop\n        /* \"#utility.yul\":13915:13918   */\n      dup3\n        /* \"#utility.yul\":13912:13913   */\n      0x02\n        /* \"#utility.yul\":13908:13919   */\n      mul\n        /* \"#utility.yul\":13902:13906   */\n      dup3\n        /* \"#utility.yul\":13899:13920   */\n      or\n        /* \"#utility.yul\":13891:13920   */\n      swap1\n      pop\n        /* \"#utility.yul\":13631:13926   */\n      swap3\n      swap2\n      pop\n      pop\n      jump\t// out\n        /* \"#utility.yul\":13931:15326   */\n    tag_31:\n        /* \"#utility.yul\":14048:14085   */\n      tag_283\n        /* \"#utility.yul\":14081:14084   */\n      dup3\n        /* \"#utility.yul\":14048:14085   */\n      tag_109\n      jump\t// in\n    tag_283:\n        /* \"#utility.yul\":14150:14168   */\n      0xffffffffffffffff\n        /* \"#utility.yul\":14142:14148   */\n      dup2\n        /* \"#utility.yul\":14139:14169   */\n      gt\n        /* \"#utility.yul\":14136:14192   */\n      iszero\n      tag_284\n      jumpi\n        /* \"#utility.yul\":14172:14190   */\n      tag_285\n      tag_89\n      jump\t// in\n    tag_285:\n        /* \"#utility.yul\":14136:14192   */\n    tag_284:\n        /* \"#utility.yul\":14216:14254   */\n      tag_286\n        /* \"#utility.yul\":14248:14252   */\n      dup3\n        /* \"#utility.yul\":14242:14253   */\n      sload\n        /* \"#utility.yul\":14216:14254   */\n      tag_59\n      jump\t// in\n    tag_286:\n        /* \"#utility.yul\":14301:14368   */\n      tag_287\n        /* \"#utility.yul\":14361:14367   */\n      dup3\n        /* \"#utility.yul\":14353:14359   */\n      dup3\n        /* \"#utility.yul\":14347:14351   */\n      dup6\n        /* \"#utility.yul\":14301:14368   */\n      tag_129\n      jump\t// in\n    tag_287:\n        /* \"#utility.yul\":14395:14396   */\n      0x00\n        /* \"#utility.yul\":14419:14423   */\n      0x20\n        /* \"#utility.yul\":14406:14423   */\n      swap1\n      pop\n        /* \"#utility.yul\":14451:14453   */\n      0x1f\n        /* \"#utility.yul\":14443:14449   */\n      dup4\n        /* \"#utility.yul\":14440:14454   */\n      gt\n        /* \"#utility.yul\":14468:14469   */\n      0x01\n        /* \"#utility.yul\":14463:15081   */\n      dup2\n      eq\n      tag_289\n      jumpi\n        /* \"#utility.yul\":15125:15126   */\n      0x00\n        /* \"#utility.yul\":15142:15148   */\n      dup5\n        /* \"#utility.yul\":15139:15216   */\n      iszero\n      tag_290\n      jumpi\n        /* \"#utility.yul\":15191:15200   */\n      dup3\n        /* \"#utility.yul\":15186:15189   */\n      dup8\n        /* \"#utility.yul\":15182:15201   */\n      add\n        /* \"#utility.yul\":15176:15202   */\n      mload\n        /* \"#utility.yul\":15167:15202   */\n      swap1\n      pop\n        /* \"#utility.yul\":15139:15216   */\n    tag_290:\n        /* \"#utility.yul\":15242:15309   */\n      tag_291\n        /* \"#utility.yul\":15302:15308   */\n      dup6\n        /* \"#utility.yul\":15295:15300   */\n      dup3\n        /* \"#utility.yul\":15242:15309   */\n      tag_132\n      jump\t// in\n    tag_291:\n        /* \"#utility.yul\":15236:15240   */\n      dup7\n        /* \"#utility.yul\":15229:15310   */\n      sstore\n        /* \"#utility.yul\":15098:15320   */\n      pop\n        /* \"#utility.yul\":14433:15320   */\n      jump(tag_288)\n        /* \"#utility.yul\":14463:15081   */\n    tag_289:\n        /* \"#utility.yul\":14515:14519   */\n      0x1f\n        /* \"#utility.yul\":14511:14520   */\n      not\n        /* \"#utility.yul\":14503:14509   */\n      dup5\n        /* \"#utility.yul\":14499:14521   */\n      and\n        /* \"#utility.yul\":14549:14586   */\n      tag_292\n        /* \"#utility.yul\":14581:14585   */\n      dup7\n        /* \"#utility.yul\":14549:14586   */\n      tag_117\n      jump\t// in\n    tag_292:\n        /* \"#utility.yul\":14608:14609   */\n      0x00\n        /* \"#utility.yul\":14622:14830   */\n    tag_293:\n        /* \"#utility.yul\":14636:14643   */\n      dup3\n        /* \"#utility.yul\":14633:14634   */\n      dup2\n        /* \"#utility.yul\":14630:14644   */\n      lt\n        /* \"#utility.yul\":14622:14830   */\n      iszero\n      tag_295\n      jumpi\n        /* \"#utility.yul\":14715:14724   */\n      dup5\n        /* \"#utility.yul\":14710:14713   */\n      dup10\n        /* \"#utility.yul\":14706:14725   */\n      add\n        /* \"#utility.yul\":14700:14726   */\n      mload\n        /* \"#utility.yul\":14692:14698   */\n      dup3\n        /* \"#utility.yul\":14685:14727   */\n      sstore\n        /* \"#utility.yul\":14766:14767   */\n      0x01\n        /* \"#utility.yul\":14758:14764   */\n      dup3\n        /* \"#utility.yul\":14754:14768   */\n      add\n        /* \"#utility.yul\":14744:14768   */\n      swap2\n      pop\n        /* \"#utility.yul\":14813:14815   */\n      0x20\n        /* \"#utility.yul\":14802:14811   */\n      dup6\n        /* \"#utility.yul\":14798:14816   */\n      add\n        /* \"#utility.yul\":14785:14816   */\n      swap5\n      pop\n        /* \"#utility.yul\":14659:14663   */\n      0x20\n        /* \"#utility.yul\":14656:14657   */\n      dup2\n        /* \"#utility.yul\":14652:14664   */\n      add\n        /* \"#utility.yul\":14647:14664   */\n      swap1\n      pop\n        /* \"#utility.yul\":14622:14830   */\n      jump(tag_293)\n    tag_295:\n        /* \"#utility.yul\":14858:14864   */\n      dup7\n        /* \"#utility.yul\":14849:14856   */\n      dup4\n        /* \"#utility.yul\":14846:14865   */\n      lt\n        /* \"#utility.yul\":14843:15022   */\n      iszero\n      tag_296\n      jumpi\n        /* \"#utility.yul\":14916:14925   */\n      dup5\n        /* \"#utility.yul\":14911:14914   */\n      dup10\n        /* \"#utility.yul\":14907:14926   */\n      add\n        /* \"#utility.yul\":14901:14927   */\n      mload\n        /* \"#utility.yul\":14959:15007   */\n      tag_297\n        /* \"#utility.yul\":15001:15005   */\n      0x1f\n        /* \"#utility.yul\":14993:14999   */\n      dup10\n        /* \"#utility.yul\":14989:15006   */\n      and\n        /* \"#utility.yul\":14978:14987   */\n      dup3\n        /* \"#utility.yul\":14959:15007   */\n      tag_131\n      jump\t// in\n    tag_297:\n        /* \"#utility.yul\":14951:14957   */\n      dup4\n        /* \"#utility.yul\":14944:15008   */\n      sstore\n        /* \"#utility.yul\":14866:15022   */\n      pop\n        /* \"#utility.yul\":14843:15022   */\n    tag_296:\n        /* \"#utility.yul\":15068:15069   */\n      0x01\n        /* \"#utility.yul\":15064:15065   */\n      0x02\n        /* \"#utility.yul\":15056:15062   */\n      dup9\n        /* \"#utility.yul\":15052:15066   */\n      mul\n        /* \"#utility.yul\":15048:15070   */\n      add\n        /* \"#utility.yul\":15042:15046   */\n      dup9\n        /* \"#utility.yul\":15035:15071   */\n      sstore\n        /* \"#utility.yul\":14470:15081   */\n      pop\n      pop\n      pop\n        /* \"#utility.yul\":14433:15320   */\n    tag_288:\n      pop\n        /* \"#utility.yul\":14023:15326   */\n      pop\n      pop\n      pop\n        /* \"#utility.yul\":13931:15326   */\n      pop\n      pop\n      jump\t// out\n        /* \"#utility.yul\":15332:15512   */\n    tag_38:\n        /* \"#utility.yul\":15380:15457   */\n      0x4e487b7100000000000000000000000000000000000000000000000000000000\n        /* \"#utility.yul\":15377:15378   */\n      0x00\n        /* \"#utility.yul\":15370:15458   */\n      mstore\n        /* \"#utility.yul\":15477:15481   */\n      0x32\n        /* \"#utility.yul\":15474:15475   */\n      0x04\n        /* \"#utility.yul\":15467:15482   */\n      mstore\n        /* \"#utility.yul\":15501:15505   */\n      0x24\n        /* \"#utility.yul\":15498:15499   */\n      0x00\n        /* \"#utility.yul\":15491:15506   */\n      revert\n        /* \"#utility.yul\":15518:15698   */\n    tag_133:\n        /* \"#utility.yul\":15566:15643   */\n      0x4e487b7100000000000000000000000000000000000000000000000000000000\n        /* \"#utility.yul\":15563:15564   */\n      0x00\n        /* \"#utility.yul\":15556:15644   */\n      mstore\n        /* \"#utility.yul\":15663:15667   */\n      0x11\n        /* \"#utility.yul\":15660:15661   */\n      0x04\n        /* \"#utility.yul\":15653:15668   */\n      mstore\n        /* \"#utility.yul\":15687:15691   */\n      0x24\n        /* \"#utility.yul\":15684:15685   */\n      0x00\n        /* \"#utility.yul\":15677:15692   */\n      revert\n        /* \"#utility.yul\":15704:15937   */\n    tag_45:\n        /* \"#utility.yul\":15743:15746   */\n      0x00\n        /* \"#utility.yul\":15766:15790   */\n      tag_301\n        /* \"#utility.yul\":15784:15789   */\n      dup3\n        /* \"#utility.yul\":15766:15790   */\n      tag_121\n      jump\t// in\n    tag_301:\n        /* \"#utility.yul\":15757:15790   */\n      swap2\n      pop\n        /* \"#utility.yul\":15812:15878   */\n      0xffffffffffffffffffffffffffffffffffffffffffffffffffffffffffffffff\n        /* \"#utility.yul\":15805:15810   */\n      dup3\n        /* \"#utility.yul\":15802:15879   */\n      sub\n        /* \"#utility.yul\":15799:15902   */\n      tag_302\n      jumpi\n        /* \"#utility.yul\":15882:15900   */\n      tag_303\n      tag_133\n      jump\t// in\n    tag_303:\n        /* \"#utility.yul\":15799:15902   */\n    tag_302:\n        /* \"#utility.yul\":15929:15930   */\n      0x01\n        /* \"#utility.yul\":15922:15927   */\n      dup3\n        /* \"#utility.yul\":15918:15931   */\n      add\n        /* \"#utility.yul\":15911:15931   */\n      swap1\n      pop\n        /* \"#utility.yul\":15704:15937   */\n      swap2\n      swap1\n      pop\n      jump\t// out\n        /* \"#utility.yul\":15943:16112   */\n    tag_134:\n        /* \"#utility.yul\":16027:16038   */\n      0x00\n        /* \"#utility.yul\":16061:16067   */\n      dup3\n        /* \"#utility.yul\":16056:16059   */\n      dup3\n        /* \"#utility.yul\":16049:16068   */\n      mstore\n        /* \"#utility.yul\":16101:16105   */\n      0x20\n        /* \"#utility.yul\":16096:16099   */\n      dup3\n        /* \"#utility.yul\":16092:16106   */\n      add\n        /* \"#utility.yul\":16077:16106   */\n      swap1\n      pop\n        /* \"#utility.yul\":15943:16112   */\n      swap3\n      swap2\n      pop\n      pop\n      jump\t// out\n        /* \"#utility.yul\":16118:16289   */\n    tag_135:\n        /* \"#utility.yul\":16258:16281   */\n      0x596f7520646f6e27742068617665206163636573730000000000000000000000\n        /* \"#utility.yul\":16254:16255   */\n      0x00\n        /* \"#utility.yul\":16246:16252   */\n      dup3\n        /* \"#utility.yul\":16242:16256   */\n      add\n        /* \"#utility.yul\":16235:16282   */\n      mstore\n        /* \"#utility.yul\":16118:16289   */\n      pop\n      jump\t// out\n        /* \"#utility.yul\":16295:16661   */\n    tag_136:\n        /* \"#utility.yul\":16437:16440   */\n      0x00\n        /* \"#utility.yul\":16458:16525   */\n      tag_307\n        /* \"#utility.yul\":16522:16524   */\n      0x15\n        /* \"#utility.yul\":16517:16520   */\n      dup4\n        /* \"#utility.yul\":16458:16525   */\n      tag_134\n      jump\t// in\n    tag_307:\n        /* \"#utility.yul\":16451:16525   */\n      swap2\n      pop\n        /* \"#utility.yul\":16534:16627   */\n      tag_308\n        /* \"#utility.yul\":16623:16626   */\n      dup3\n        /* \"#utility.yul\":16534:16627   */\n      tag_135\n      jump\t// in\n    tag_308:\n        /* \"#utility.yul\":16652:16654   */\n      0x20\n        /* \"#utility.yul\":16647:16650   */\n      dup3\n        /* \"#utility.yul\":16643:16655   */\n      add\n        /* \"#utility.yul\":16636:16655   */\n      swap1\n      pop\n        /* \"#utility.yul\":16295:16661   */\n      swap2\n      swap1\n      pop\n      jump\t// out\n        /* \"#utility.yul\":16667:17086   */\n    tag_54:\n        /* \"#utility.yul\":16833:16837   */\n      0x00\n        /* \"#utility.yul\":16871:16873   */\n      0x20\n        /* \"#utility.yul\":16860:16869   */\n      dup3\n        /* \"#utility.yul\":16856:16874   */\n      add\n        /* \"#utility.yul\":16848:16874   */\n      swap1\n      pop\n        /* \"#utility.yul\":16920:16929   */\n      dup2\n        /* \"#utility.yul\":16914:16918   */\n      dup2\n        /* \"#utility.yul\":16910:16930   */\n      sub\n        /* \"#utility.yul\":16906:16907   */\n      0x00\n        /* \"#utility.yul\":16895:16904   */\n      dup4\n        /* \"#utility.yul\":16891:16908   */\n      add\n        /* \"#utility.yul\":16884:16931   */\n      mstore\n        /* \"#utility.yul\":16948:17079   */\n      tag_310\n        /* \"#utility.yul\":17074:17078   */\n      dup2\n        /* \"#utility.yul\":16948:17079   */\n      tag_136\n      jump\t// in\n    tag_310:\n        /* \"#utility.yul\":16940:17079   */\n      swap1\n      pop\n        /* \"#utility.yul\":16667:17086   */\n      swap2\n      swap1\n      pop\n      jump\t// out\n\n    auxdata: 0xa2646970667358221220c6d74e10be1362ab939ae96a9239841dd0481745d5d24ec63669183aed75bd0764736f6c63430008120033\n}\n",
				"bytecode": {
					"linkReferences": {},
					"object": "608060405234801561001057600080fd5b50611409806100206000396000f3fe608060405234801561001057600080fd5b50600436106100575760003560e01c806336d6da551461005c578063a9ed9cb814610078578063bc8bef8114610094578063eb39113f146100b2578063ff9913e8146100e2575b600080fd5b61007660048036038101906100719190610cb2565b6100fe565b005b610092600480360381019061008d9190610d0e565b610173565b005b61009c610395565b6040516100a99190610e43565b60405180910390f35b6100cc60048036038101906100c79190610d0e565b61049e565b6040516100d99190610fa6565b60405180910390f35b6100fc60048036038101906100f79190610d0e565b6106b4565b005b6000808373ffffffffffffffffffffffffffffffffffffffff1673ffffffffffffffffffffffffffffffffffffffff1681526020019081526020016000208190806001815401808255809150506001900390600052602060002001600090919091909150908161016e91906111de565b505050565b6000600160003373ffffffffffffffffffffffffffffffffffffffff1673ffffffffffffffffffffffffffffffffffffffff16815260200190815260200160002060008373ffffffffffffffffffffffffffffffffffffffff1673ffffffffffffffffffffffffffffffffffffffff16815260200190815260200160002060006101000a81548160ff02191690831515021790555060005b600260003373ffffffffffffffffffffffffffffffffffffffff1673ffffffffffffffffffffffffffffffffffffffff16815260200190815260200160002080549050811015610391578173ffffffffffffffffffffffffffffffffffffffff16600260003373ffffffffffffffffffffffffffffffffffffffff1673ffffffffffffffffffffffffffffffffffffffff16815260200190815260200160002082815481106102bd576102bc6112b0565b5b9060005260206000200160000160009054906101000a900473ffffffffffffffffffffffffffffffffffffffff1673ffffffffffffffffffffffffffffffffffffffff160361037e576000600260003373ffffffffffffffffffffffffffffffffffffffff1673ffffffffffffffffffffffffffffffffffffffff1681526020019081526020016000208281548110610359576103586112b0565b5b9060005260206000200160000160146101000a81548160ff0219169083151502179055505b80806103899061130e565b91505061020b565b5050565b6060600260003373ffffffffffffffffffffffffffffffffffffffff1673ffffffffffffffffffffffffffffffffffffffff168152602001908152602001600020805480602002602001604051908101604052809291908181526020016000905b82821015610495578382906000526020600020016040518060400160405290816000820160009054906101000a900473ffffffffffffffffffffffffffffffffffffffff1673ffffffffffffffffffffffffffffffffffffffff1673ffffffffffffffffffffffffffffffffffffffff1681526020016000820160149054906101000a900460ff161515151581525050815260200190600101906103f6565b50505050905090565b60603373ffffffffffffffffffffffffffffffffffffffff168273ffffffffffffffffffffffffffffffffffffffff1614806105605750600160008373ffffffffffffffffffffffffffffffffffffffff1673ffffffffffffffffffffffffffffffffffffffff16815260200190815260200160002060003373ffffffffffffffffffffffffffffffffffffffff1673ffffffffffffffffffffffffffffffffffffffff16815260200190815260200160002060009054906101000a900460ff165b61059f576040517f08c379a0000000000000000000000000000000000000000000000000000000008152600401610596906113b3565b60405180910390fd5b6000808373ffffffffffffffffffffffffffffffffffffffff1673ffffffffffffffffffffffffffffffffffffffff168152602001908152602001600020805480602002602001604051908101604052809291908181526020016000905b828210156106a957838290600052602060002001805461061c90610ff7565b80601f016020809104026020016040519081016040528092919081815260200182805461064890610ff7565b80156106955780601f1061066a57610100808354040283529160200191610695565b820191906000526020600020905b81548152906001019060200180831161067857829003601f168201915b5050505050815260200190600101906105fd565b505050509050919050565b60018060003373ffffffffffffffffffffffffffffffffffffffff1673ffffffffffffffffffffffffffffffffffffffff16815260200190815260200160002060008373ffffffffffffffffffffffffffffffffffffffff1673ffffffffffffffffffffffffffffffffffffffff16815260200190815260200160002060006101000a81548160ff021916908315150217905550600360003373ffffffffffffffffffffffffffffffffffffffff1673ffffffffffffffffffffffffffffffffffffffff16815260200190815260200160002060008273ffffffffffffffffffffffffffffffffffffffff1673ffffffffffffffffffffffffffffffffffffffff16815260200190815260200160002060009054906101000a900460ff16156109665760005b600260003373ffffffffffffffffffffffffffffffffffffffff1673ffffffffffffffffffffffffffffffffffffffff16815260200190815260200160002080549050811015610960578173ffffffffffffffffffffffffffffffffffffffff16600260003373ffffffffffffffffffffffffffffffffffffffff1673ffffffffffffffffffffffffffffffffffffffff168152602001908152602001600020828154811061088c5761088b6112b0565b5b9060005260206000200160000160009054906101000a900473ffffffffffffffffffffffffffffffffffffffff1673ffffffffffffffffffffffffffffffffffffffff160361094d576001600260003373ffffffffffffffffffffffffffffffffffffffff1673ffffffffffffffffffffffffffffffffffffffff1681526020019081526020016000208281548110610928576109276112b0565b5b9060005260206000200160000160146101000a81548160ff0219169083151502179055505b80806109589061130e565b9150506107da565b50610af7565b600260003373ffffffffffffffffffffffffffffffffffffffff1673ffffffffffffffffffffffffffffffffffffffff16815260200190815260200160002060405180604001604052808373ffffffffffffffffffffffffffffffffffffffff168152602001600115158152509080600181540180825580915050600190039060005260206000200160009091909190915060008201518160000160006101000a81548173ffffffffffffffffffffffffffffffffffffffff021916908373ffffffffffffffffffffffffffffffffffffffff16021790555060208201518160000160146101000a81548160ff02191690831515021790555050506001600360003373ffffffffffffffffffffffffffffffffffffffff1673ffffffffffffffffffffffffffffffffffffffff16815260200190815260200160002060008373ffffffffffffffffffffffffffffffffffffffff1673ffffffffffffffffffffffffffffffffffffffff16815260200190815260200160002060006101000a81548160ff0219169083151502179055505b50565b6000604051905090565b600080fd5b600080fd5b600073ffffffffffffffffffffffffffffffffffffffff82169050919050565b6000610b3982610b0e565b9050919050565b610b4981610b2e565b8114610b5457600080fd5b50565b600081359050610b6681610b40565b92915050565b600080fd5b600080fd5b6000601f19601f8301169050919050565b7f4e487b7100000000000000000000000000000000000000000000000000000000600052604160045260246000fd5b610bbf82610b76565b810181811067ffffffffffffffff82111715610bde57610bdd610b87565b5b80604052505050565b6000610bf1610afa565b9050610bfd8282610bb6565b919050565b600067ffffffffffffffff821115610c1d57610c1c610b87565b5b610c2682610b76565b9050602081019050919050565b82818337600083830152505050565b6000610c55610c5084610c02565b610be7565b905082815260208101848484011115610c7157610c70610b71565b5b610c7c848285610c33565b509392505050565b600082601f830112610c9957610c98610b6c565b5b8135610ca9848260208601610c42565b91505092915050565b60008060408385031215610cc957610cc8610b04565b5b6000610cd785828601610b57565b925050602083013567ffffffffffffffff811115610cf857610cf7610b09565b5b610d0485828601610c84565b9150509250929050565b600060208284031215610d2457610d23610b04565b5b6000610d3284828501610b57565b91505092915050565b600081519050919050565b600082825260208201905092915050565b6000819050602082019050919050565b610d7081610b2e565b82525050565b60008115159050919050565b610d8b81610d76565b82525050565b604082016000820151610da76000850182610d67565b506020820151610dba6020850182610d82565b50505050565b6000610dcc8383610d91565b60408301905092915050565b6000602082019050919050565b6000610df082610d3b565b610dfa8185610d46565b9350610e0583610d57565b8060005b83811015610e36578151610e1d8882610dc0565b9750610e2883610dd8565b925050600181019050610e09565b5085935050505092915050565b60006020820190508181036000830152610e5d8184610de5565b905092915050565b600081519050919050565b600082825260208201905092915050565b6000819050602082019050919050565b600081519050919050565b600082825260208201905092915050565b60005b83811015610ecb578082015181840152602081019050610eb0565b60008484015250505050565b6000610ee282610e91565b610eec8185610e9c565b9350610efc818560208601610ead565b610f0581610b76565b840191505092915050565b6000610f1c8383610ed7565b905092915050565b6000602082019050919050565b6000610f3c82610e65565b610f468185610e70565b935083602082028501610f5885610e81565b8060005b85811015610f945784840389528151610f758582610f10565b9450610f8083610f24565b925060208a01995050600181019050610f5c565b50829750879550505050505092915050565b60006020820190508181036000830152610fc08184610f31565b905092915050565b7f4e487b7100000000000000000000000000000000000000000000000000000000600052602260045260246000fd5b6000600282049050600182168061100f57607f821691505b60208210810361102257611021610fc8565b5b50919050565b60008190508160005260206000209050919050565b60006020601f8301049050919050565b600082821b905092915050565b60006008830261108a7fffffffffffffffffffffffffffffffffffffffffffffffffffffffffffffffff8261104d565b611094868361104d565b95508019841693508086168417925050509392505050565b6000819050919050565b6000819050919050565b60006110db6110d66110d1846110ac565b6110b6565b6110ac565b9050919050565b6000819050919050565b6110f5836110c0565b611109611101826110e2565b84845461105a565b825550505050565b600090565b61111e611111565b6111298184846110ec565b505050565b5b8181101561114d57611142600082611116565b60018101905061112f565b5050565b601f8211156111925761116381611028565b61116c8461103d565b8101602085101561117b578190505b61118f6111878561103d565b83018261112e565b50505b505050565b600082821c905092915050565b60006111b560001984600802611197565b1980831691505092915050565b60006111ce83836111a4565b9150826002028217905092915050565b6111e782610e91565b67ffffffffffffffff811115611200576111ff610b87565b5b61120a8254610ff7565b611215828285611151565b600060209050601f8311600181146112485760008415611236578287015190505b61124085826111c2565b8655506112a8565b601f19841661125686611028565b60005b8281101561127e57848901518255600182019150602085019450602081019050611259565b8683101561129b5784890151611297601f8916826111a4565b8355505b6001600288020188555050505b505050505050565b7f4e487b7100000000000000000000000000000000000000000000000000000000600052603260045260246000fd5b7f4e487b7100000000000000000000000000000000000000000000000000000000600052601160045260246000fd5b6000611319826110ac565b91507fffffffffffffffffffffffffffffffffffffffffffffffffffffffffffffffff820361134b5761134a6112df565b5b600182019050919050565b600082825260208201905092915050565b7f596f7520646f6e27742068617665206163636573730000000000000000000000600082015250565b600061139d601583611356565b91506113a882611367565b602082019050919050565b600060208201905081810360008301526113cc81611390565b905091905056fea2646970667358221220c6d74e10be1362ab939ae96a9239841dd0481745d5d24ec63669183aed75bd0764736f6c63430008120033",
					"opcodes": "PUSH1 0x80 PUSH1 0x40 MSTORE CALLVALUE DUP1 ISZERO PUSH2 0x10 JUMPI PUSH1 0x0 DUP1 REVERT JUMPDEST POP PUSH2 0x1409 DUP1 PUSH2 0x20 PUSH1 0x0 CODECOPY PUSH1 0x0 RETURN INVALID PUSH1 0x80 PUSH1 0x40 MSTORE CALLVALUE DUP1 ISZERO PUSH2 0x10 JUMPI PUSH1 0x0 DUP1 REVERT JUMPDEST POP PUSH1 0x4 CALLDATASIZE LT PUSH2 0x57 JUMPI PUSH1 0x0 CALLDATALOAD PUSH1 0xE0 SHR DUP1 PUSH4 0x36D6DA55 EQ PUSH2 0x5C JUMPI DUP1 PUSH4 0xA9ED9CB8 EQ PUSH2 0x78 JUMPI DUP1 PUSH4 0xBC8BEF81 EQ PUSH2 0x94 JUMPI DUP1 PUSH4 0xEB39113F EQ PUSH2 0xB2 JUMPI DUP1 PUSH4 0xFF9913E8 EQ PUSH2 0xE2 JUMPI JUMPDEST PUSH1 0x0 DUP1 REVERT JUMPDEST PUSH2 0x76 PUSH1 0x4 DUP1 CALLDATASIZE SUB DUP2 ADD SWAP1 PUSH2 0x71 SWAP2 SWAP1 PUSH2 0xCB2 JUMP JUMPDEST PUSH2 0xFE JUMP JUMPDEST STOP JUMPDEST PUSH2 0x92 PUSH1 0x4 DUP1 CALLDATASIZE SUB DUP2 ADD SWAP1 PUSH2 0x8D SWAP2 SWAP1 PUSH2 0xD0E JUMP JUMPDEST PUSH2 0x173 JUMP JUMPDEST STOP JUMPDEST PUSH2 0x9C PUSH2 0x395 JUMP JUMPDEST PUSH1 0x40 MLOAD PUSH2 0xA9 SWAP2 SWAP1 PUSH2 0xE43 JUMP JUMPDEST PUSH1 0x40 MLOAD DUP1 SWAP2 SUB SWAP1 RETURN JUMPDEST PUSH2 0xCC PUSH1 0x4 DUP1 CALLDATASIZE SUB DUP2 ADD SWAP1 PUSH2 0xC7 SWAP2 SWAP1 PUSH2 0xD0E JUMP JUMPDEST PUSH2 0x49E JUMP JUMPDEST PUSH1 0x40 MLOAD PUSH2 0xD9 SWAP2 SWAP1 PUSH2 0xFA6 JUMP JUMPDEST PUSH1 0x40 MLOAD DUP1 SWAP2 SUB SWAP1 RETURN JUMPDEST PUSH2 0xFC PUSH1 0x4 DUP1 CALLDATASIZE SUB DUP2 ADD SWAP1 PUSH2 0xF7 SWAP2 SWAP1 PUSH2 0xD0E JUMP JUMPDEST PUSH2 0x6B4 JUMP JUMPDEST STOP JUMPDEST PUSH1 0x0 DUP1 DUP4 PUSH20 0xFFFFFFFFFFFFFFFFFFFFFFFFFFFFFFFFFFFFFFFF AND PUSH20 0xFFFFFFFFFFFFFFFFFFFFFFFFFFFFFFFFFFFFFFFF AND DUP2 MSTORE PUSH1 0x20 ADD SWAP1 DUP2 MSTORE PUSH1 0x20 ADD PUSH1 0x0 KECCAK256 DUP2 SWAP1 DUP1 PUSH1 0x1 DUP2 SLOAD ADD DUP1 DUP3 SSTORE DUP1 SWAP2 POP POP PUSH1 0x1 SWAP1 SUB SWAP1 PUSH1 0x0 MSTORE PUSH1 0x20 PUSH1 0x0 KECCAK256 ADD PUSH1 0x0 SWAP1 SWAP2 SWAP1 SWAP2 SWAP1 SWAP2 POP SWAP1 DUP2 PUSH2 0x16E SWAP2 SWAP1 PUSH2 0x11DE JUMP JUMPDEST POP POP POP JUMP JUMPDEST PUSH1 0x0 PUSH1 0x1 PUSH1 0x0 CALLER PUSH20 0xFFFFFFFFFFFFFFFFFFFFFFFFFFFFFFFFFFFFFFFF AND PUSH20 0xFFFFFFFFFFFFFFFFFFFFFFFFFFFFFFFFFFFFFFFF AND DUP2 MSTORE PUSH1 0x20 ADD SWAP1 DUP2 MSTORE PUSH1 0x20 ADD PUSH1 0x0 KECCAK256 PUSH1 0x0 DUP4 PUSH20 0xFFFFFFFFFFFFFFFFFFFFFFFFFFFFFFFFFFFFFFFF AND PUSH20 0xFFFFFFFFFFFFFFFFFFFFFFFFFFFFFFFFFFFFFFFF AND DUP2 MSTORE PUSH1 0x20 ADD SWAP1 DUP2 MSTORE PUSH1 0x20 ADD PUSH1 0x0 KECCAK256 PUSH1 0x0 PUSH2 0x100 EXP DUP2 SLOAD DUP2 PUSH1 0xFF MUL NOT AND SWAP1 DUP4 ISZERO ISZERO MUL OR SWAP1 SSTORE POP PUSH1 0x0 JUMPDEST PUSH1 0x2 PUSH1 0x0 CALLER PUSH20 0xFFFFFFFFFFFFFFFFFFFFFFFFFFFFFFFFFFFFFFFF AND PUSH20 0xFFFFFFFFFFFFFFFFFFFFFFFFFFFFFFFFFFFFFFFF AND DUP2 MSTORE PUSH1 0x20 ADD SWAP1 DUP2 MSTORE PUSH1 0x20 ADD PUSH1 0x0 KECCAK256 DUP1 SLOAD SWAP1 POP DUP2 LT ISZERO PUSH2 0x391 JUMPI DUP2 PUSH20 0xFFFFFFFFFFFFFFFFFFFFFFFFFFFFFFFFFFFFFFFF AND PUSH1 0x2 PUSH1 0x0 CALLER PUSH20 0xFFFFFFFFFFFFFFFFFFFFFFFFFFFFFFFFFFFFFFFF AND PUSH20 0xFFFFFFFFFFFFFFFFFFFFFFFFFFFFFFFFFFFFFFFF AND DUP2 MSTORE PUSH1 0x20 ADD SWAP1 DUP2 MSTORE PUSH1 0x20 ADD PUSH1 0x0 KECCAK256 DUP3 DUP2 SLOAD DUP2 LT PUSH2 0x2BD JUMPI PUSH2 0x2BC PUSH2 0x12B0 JUMP JUMPDEST JUMPDEST SWAP1 PUSH1 0x0 MSTORE PUSH1 0x20 PUSH1 0x0 KECCAK256 ADD PUSH1 0x0 ADD PUSH1 0x0 SWAP1 SLOAD SWAP1 PUSH2 0x100 EXP SWAP1 DIV PUSH20 0xFFFFFFFFFFFFFFFFFFFFFFFFFFFFFFFFFFFFFFFF AND PUSH20 0xFFFFFFFFFFFFFFFFFFFFFFFFFFFFFFFFFFFFFFFF AND SUB PUSH2 0x37E JUMPI PUSH1 0x0 PUSH1 0x2 PUSH1 0x0 CALLER PUSH20 0xFFFFFFFFFFFFFFFFFFFFFFFFFFFFFFFFFFFFFFFF AND PUSH20 0xFFFFFFFFFFFFFFFFFFFFFFFFFFFFFFFFFFFFFFFF AND DUP2 MSTORE PUSH1 0x20 ADD SWAP1 DUP2 MSTORE PUSH1 0x20 ADD PUSH1 0x0 KECCAK256 DUP3 DUP2 SLOAD DUP2 LT PUSH2 0x359 JUMPI PUSH2 0x358 PUSH2 0x12B0 JUMP JUMPDEST JUMPDEST SWAP1 PUSH1 0x0 MSTORE PUSH1 0x20 PUSH1 0x0 KECCAK256 ADD PUSH1 0x0 ADD PUSH1 0x14 PUSH2 0x100 EXP DUP2 SLOAD DUP2 PUSH1 0xFF MUL NOT AND SWAP1 DUP4 ISZERO ISZERO MUL OR SWAP1 SSTORE POP JUMPDEST DUP1 DUP1 PUSH2 0x389 SWAP1 PUSH2 0x130E JUMP JUMPDEST SWAP2 POP POP PUSH2 0x20B JUMP JUMPDEST POP POP JUMP JUMPDEST PUSH1 0x60 PUSH1 0x2 PUSH1 0x0 CALLER PUSH20 0xFFFFFFFFFFFFFFFFFFFFFFFFFFFFFFFFFFFFFFFF AND PUSH20 0xFFFFFFFFFFFFFFFFFFFFFFFFFFFFFFFFFFFFFFFF AND DUP2 MSTORE PUSH1 0x20 ADD SWAP1 DUP2 MSTORE PUSH1 0x20 ADD PUSH1 0x0 KECCAK256 DUP1 SLOAD DUP1 PUSH1 0x20 MUL PUSH1 0x20 ADD PUSH1 0x40 MLOAD SWAP1 DUP2 ADD PUSH1 0x40 MSTORE DUP1 SWAP3 SWAP2 SWAP1 DUP2 DUP2 MSTORE PUSH1 0x20 ADD PUSH1 0x0 SWAP1 JUMPDEST DUP3 DUP3 LT ISZERO PUSH2 0x495 JUMPI DUP4 DUP3 SWAP1 PUSH1 0x0 MSTORE PUSH1 0x20 PUSH1 0x0 KECCAK256 ADD PUSH1 0x40 MLOAD DUP1 PUSH1 0x40 ADD PUSH1 0x40 MSTORE SWAP1 DUP2 PUSH1 0x0 DUP3 ADD PUSH1 0x0 SWAP1 SLOAD SWAP1 PUSH2 0x100 EXP SWAP1 DIV PUSH20 0xFFFFFFFFFFFFFFFFFFFFFFFFFFFFFFFFFFFFFFFF AND PUSH20 0xFFFFFFFFFFFFFFFFFFFFFFFFFFFFFFFFFFFFFFFF AND PUSH20 0xFFFFFFFFFFFFFFFFFFFFFFFFFFFFFFFFFFFFFFFF AND DUP2 MSTORE PUSH1 0x20 ADD PUSH1 0x0 DUP3 ADD PUSH1 0x14 SWAP1 SLOAD SWAP1 PUSH2 0x100 EXP SWAP1 DIV PUSH1 0xFF AND ISZERO ISZERO ISZERO ISZERO DUP2 MSTORE POP POP DUP2 MSTORE PUSH1 0x20 ADD SWAP1 PUSH1 0x1 ADD SWAP1 PUSH2 0x3F6 JUMP JUMPDEST POP POP POP POP SWAP1 POP SWAP1 JUMP JUMPDEST PUSH1 0x60 CALLER PUSH20 0xFFFFFFFFFFFFFFFFFFFFFFFFFFFFFFFFFFFFFFFF AND DUP3 PUSH20 0xFFFFFFFFFFFFFFFFFFFFFFFFFFFFFFFFFFFFFFFF AND EQ DUP1 PUSH2 0x560 JUMPI POP PUSH1 0x1 PUSH1 0x0 DUP4 PUSH20 0xFFFFFFFFFFFFFFFFFFFFFFFFFFFFFFFFFFFFFFFF AND PUSH20 0xFFFFFFFFFFFFFFFFFFFFFFFFFFFFFFFFFFFFFFFF AND DUP2 MSTORE PUSH1 0x20 ADD SWAP1 DUP2 MSTORE PUSH1 0x20 ADD PUSH1 0x0 KECCAK256 PUSH1 0x0 CALLER PUSH20 0xFFFFFFFFFFFFFFFFFFFFFFFFFFFFFFFFFFFFFFFF AND PUSH20 0xFFFFFFFFFFFFFFFFFFFFFFFFFFFFFFFFFFFFFFFF AND DUP2 MSTORE PUSH1 0x20 ADD SWAP1 DUP2 MSTORE PUSH1 0x20 ADD PUSH1 0x0 KECCAK256 PUSH1 0x0 SWAP1 SLOAD SWAP1 PUSH2 0x100 EXP SWAP1 DIV PUSH1 0xFF AND JUMPDEST PUSH2 0x59F JUMPI PUSH1 0x40 MLOAD PUSH32 0x8C379A000000000000000000000000000000000000000000000000000000000 DUP2 MSTORE PUSH1 0x4 ADD PUSH2 0x596 SWAP1 PUSH2 0x13B3 JUMP JUMPDEST PUSH1 0x40 MLOAD DUP1 SWAP2 SUB SWAP1 REVERT JUMPDEST PUSH1 0x0 DUP1 DUP4 PUSH20 0xFFFFFFFFFFFFFFFFFFFFFFFFFFFFFFFFFFFFFFFF AND PUSH20 0xFFFFFFFFFFFFFFFFFFFFFFFFFFFFFFFFFFFFFFFF AND DUP2 MSTORE PUSH1 0x20 ADD SWAP1 DUP2 MSTORE PUSH1 0x20 ADD PUSH1 0x0 KECCAK256 DUP1 SLOAD DUP1 PUSH1 0x20 MUL PUSH1 0x20 ADD PUSH1 0x40 MLOAD SWAP1 DUP2 ADD PUSH1 0x40 MSTORE DUP1 SWAP3 SWAP2 SWAP1 DUP2 DUP2 MSTORE PUSH1 0x20 ADD PUSH1 0x0 SWAP1 JUMPDEST DUP3 DUP3 LT ISZERO PUSH2 0x6A9 JUMPI DUP4 DUP3 SWAP1 PUSH1 0x0 MSTORE PUSH1 0x20 PUSH1 0x0 KECCAK256 ADD DUP1 SLOAD PUSH2 0x61C SWAP1 PUSH2 0xFF7 JUMP JUMPDEST DUP1 PUSH1 0x1F ADD PUSH1 0x20 DUP1 SWAP2 DIV MUL PUSH1 0x20 ADD PUSH1 0x40 MLOAD SWAP1 DUP2 ADD PUSH1 0x40 MSTORE DUP1 SWAP3 SWAP2 SWAP1 DUP2 DUP2 MSTORE PUSH1 0x20 ADD DUP3 DUP1 SLOAD PUSH2 0x648 SWAP1 PUSH2 0xFF7 JUMP JUMPDEST DUP1 ISZERO PUSH2 0x695 JUMPI DUP1 PUSH1 0x1F LT PUSH2 0x66A JUMPI PUSH2 0x100 DUP1 DUP4 SLOAD DIV MUL DUP4 MSTORE SWAP2 PUSH1 0x20 ADD SWAP2 PUSH2 0x695 JUMP JUMPDEST DUP3 ADD SWAP2 SWAP1 PUSH1 0x0 MSTORE PUSH1 0x20 PUSH1 0x0 KECCAK256 SWAP1 JUMPDEST DUP2 SLOAD DUP2 MSTORE SWAP1 PUSH1 0x1 ADD SWAP1 PUSH1 0x20 ADD DUP1 DUP4 GT PUSH2 0x678 JUMPI DUP3 SWAP1 SUB PUSH1 0x1F AND DUP3 ADD SWAP2 JUMPDEST POP POP POP POP POP DUP2 MSTORE PUSH1 0x20 ADD SWAP1 PUSH1 0x1 ADD SWAP1 PUSH2 0x5FD JUMP JUMPDEST POP POP POP POP SWAP1 POP SWAP2 SWAP1 POP JUMP JUMPDEST PUSH1 0x1 DUP1 PUSH1 0x0 CALLER PUSH20 0xFFFFFFFFFFFFFFFFFFFFFFFFFFFFFFFFFFFFFFFF AND PUSH20 0xFFFFFFFFFFFFFFFFFFFFFFFFFFFFFFFFFFFFFFFF AND DUP2 MSTORE PUSH1 0x20 ADD SWAP1 DUP2 MSTORE PUSH1 0x20 ADD PUSH1 0x0 KECCAK256 PUSH1 0x0 DUP4 PUSH20 0xFFFFFFFFFFFFFFFFFFFFFFFFFFFFFFFFFFFFFFFF AND PUSH20 0xFFFFFFFFFFFFFFFFFFFFFFFFFFFFFFFFFFFFFFFF AND DUP2 MSTORE PUSH1 0x20 ADD SWAP1 DUP2 MSTORE PUSH1 0x20 ADD PUSH1 0x0 KECCAK256 PUSH1 0x0 PUSH2 0x100 EXP DUP2 SLOAD DUP2 PUSH1 0xFF MUL NOT AND SWAP1 DUP4 ISZERO ISZERO MUL OR SWAP1 SSTORE POP PUSH1 0x3 PUSH1 0x0 CALLER PUSH20 0xFFFFFFFFFFFFFFFFFFFFFFFFFFFFFFFFFFFFFFFF AND PUSH20 0xFFFFFFFFFFFFFFFFFFFFFFFFFFFFFFFFFFFFFFFF AND DUP2 MSTORE PUSH1 0x20 ADD SWAP1 DUP2 MSTORE PUSH1 0x20 ADD PUSH1 0x0 KECCAK256 PUSH1 0x0 DUP3 PUSH20 0xFFFFFFFFFFFFFFFFFFFFFFFFFFFFFFFFFFFFFFFF AND PUSH20 0xFFFFFFFFFFFFFFFFFFFFFFFFFFFFFFFFFFFFFFFF AND DUP2 MSTORE PUSH1 0x20 ADD SWAP1 DUP2 MSTORE PUSH1 0x20 ADD PUSH1 0x0 KECCAK256 PUSH1 0x0 SWAP1 SLOAD SWAP1 PUSH2 0x100 EXP SWAP1 DIV PUSH1 0xFF AND ISZERO PUSH2 0x966 JUMPI PUSH1 0x0 JUMPDEST PUSH1 0x2 PUSH1 0x0 CALLER PUSH20 0xFFFFFFFFFFFFFFFFFFFFFFFFFFFFFFFFFFFFFFFF AND PUSH20 0xFFFFFFFFFFFFFFFFFFFFFFFFFFFFFFFFFFFFFFFF AND DUP2 MSTORE PUSH1 0x20 ADD SWAP1 DUP2 MSTORE PUSH1 0x20 ADD PUSH1 0x0 KECCAK256 DUP1 SLOAD SWAP1 POP DUP2 LT ISZERO PUSH2 0x960 JUMPI DUP2 PUSH20 0xFFFFFFFFFFFFFFFFFFFFFFFFFFFFFFFFFFFFFFFF AND PUSH1 0x2 PUSH1 0x0 CALLER PUSH20 0xFFFFFFFFFFFFFFFFFFFFFFFFFFFFFFFFFFFFFFFF AND PUSH20 0xFFFFFFFFFFFFFFFFFFFFFFFFFFFFFFFFFFFFFFFF AND DUP2 MSTORE PUSH1 0x20 ADD SWAP1 DUP2 MSTORE PUSH1 0x20 ADD PUSH1 0x0 KECCAK256 DUP3 DUP2 SLOAD DUP2 LT PUSH2 0x88C JUMPI PUSH2 0x88B PUSH2 0x12B0 JUMP JUMPDEST JUMPDEST SWAP1 PUSH1 0x0 MSTORE PUSH1 0x20 PUSH1 0x0 KECCAK256 ADD PUSH1 0x0 ADD PUSH1 0x0 SWAP1 SLOAD SWAP1 PUSH2 0x100 EXP SWAP1 DIV PUSH20 0xFFFFFFFFFFFFFFFFFFFFFFFFFFFFFFFFFFFFFFFF AND PUSH20 0xFFFFFFFFFFFFFFFFFFFFFFFFFFFFFFFFFFFFFFFF AND SUB PUSH2 0x94D JUMPI PUSH1 0x1 PUSH1 0x2 PUSH1 0x0 CALLER PUSH20 0xFFFFFFFFFFFFFFFFFFFFFFFFFFFFFFFFFFFFFFFF AND PUSH20 0xFFFFFFFFFFFFFFFFFFFFFFFFFFFFFFFFFFFFFFFF AND DUP2 MSTORE PUSH1 0x20 ADD SWAP1 DUP2 MSTORE PUSH1 0x20 ADD PUSH1 0x0 KECCAK256 DUP3 DUP2 SLOAD DUP2 LT PUSH2 0x928 JUMPI PUSH2 0x927 PUSH2 0x12B0 JUMP JUMPDEST JUMPDEST SWAP1 PUSH1 0x0 MSTORE PUSH1 0x20 PUSH1 0x0 KECCAK256 ADD PUSH1 0x0 ADD PUSH1 0x14 PUSH2 0x100 EXP DUP2 SLOAD DUP2 PUSH1 0xFF MUL NOT AND SWAP1 DUP4 ISZERO ISZERO MUL OR SWAP1 SSTORE POP JUMPDEST DUP1 DUP1 PUSH2 0x958 SWAP1 PUSH2 0x130E JUMP JUMPDEST SWAP2 POP POP PUSH2 0x7DA JUMP JUMPDEST POP PUSH2 0xAF7 JUMP JUMPDEST PUSH1 0x2 PUSH1 0x0 CALLER PUSH20 0xFFFFFFFFFFFFFFFFFFFFFFFFFFFFFFFFFFFFFFFF AND PUSH20 0xFFFFFFFFFFFFFFFFFFFFFFFFFFFFFFFFFFFFFFFF AND DUP2 MSTORE PUSH1 0x20 ADD SWAP1 DUP2 MSTORE PUSH1 0x20 ADD PUSH1 0x0 KECCAK256 PUSH1 0x40 MLOAD DUP1 PUSH1 0x40 ADD PUSH1 0x40 MSTORE DUP1 DUP4 PUSH20 0xFFFFFFFFFFFFFFFFFFFFFFFFFFFFFFFFFFFFFFFF AND DUP2 MSTORE PUSH1 0x20 ADD PUSH1 0x1 ISZERO ISZERO DUP2 MSTORE POP SWAP1 DUP1 PUSH1 0x1 DUP2 SLOAD ADD DUP1 DUP3 SSTORE DUP1 SWAP2 POP POP PUSH1 0x1 SWAP1 SUB SWAP1 PUSH1 0x0 MSTORE PUSH1 0x20 PUSH1 0x0 KECCAK256 ADD PUSH1 0x0 SWAP1 SWAP2 SWAP1 SWAP2 SWAP1 SWAP2 POP PUSH1 0x0 DUP3 ADD MLOAD DUP2 PUSH1 0x0 ADD PUSH1 0x0 PUSH2 0x100 EXP DUP2 SLOAD DUP2 PUSH20 0xFFFFFFFFFFFFFFFFFFFFFFFFFFFFFFFFFFFFFFFF MUL NOT AND SWAP1 DUP4 PUSH20 0xFFFFFFFFFFFFFFFFFFFFFFFFFFFFFFFFFFFFFFFF AND MUL OR SWAP1 SSTORE POP PUSH1 0x20 DUP3 ADD MLOAD DUP2 PUSH1 0x0 ADD PUSH1 0x14 PUSH2 0x100 EXP DUP2 SLOAD DUP2 PUSH1 0xFF MUL NOT AND SWAP1 DUP4 ISZERO ISZERO MUL OR SWAP1 SSTORE POP POP POP PUSH1 0x1 PUSH1 0x3 PUSH1 0x0 CALLER PUSH20 0xFFFFFFFFFFFFFFFFFFFFFFFFFFFFFFFFFFFFFFFF AND PUSH20 0xFFFFFFFFFFFFFFFFFFFFFFFFFFFFFFFFFFFFFFFF AND DUP2 MSTORE PUSH1 0x20 ADD SWAP1 DUP2 MSTORE PUSH1 0x20 ADD PUSH1 0x0 KECCAK256 PUSH1 0x0 DUP4 PUSH20 0xFFFFFFFFFFFFFFFFFFFFFFFFFFFFFFFFFFFFFFFF AND PUSH20 0xFFFFFFFFFFFFFFFFFFFFFFFFFFFFFFFFFFFFFFFF AND DUP2 MSTORE PUSH1 0x20 ADD SWAP1 DUP2 MSTORE PUSH1 0x20 ADD PUSH1 0x0 KECCAK256 PUSH1 0x0 PUSH2 0x100 EXP DUP2 SLOAD DUP2 PUSH1 0xFF MUL NOT AND SWAP1 DUP4 ISZERO ISZERO MUL OR SWAP1 SSTORE POP JUMPDEST POP JUMP JUMPDEST PUSH1 0x0 PUSH1 0x40 MLOAD SWAP1 POP SWAP1 JUMP JUMPDEST PUSH1 0x0 DUP1 REVERT JUMPDEST PUSH1 0x0 DUP1 REVERT JUMPDEST PUSH1 0x0 PUSH20 0xFFFFFFFFFFFFFFFFFFFFFFFFFFFFFFFFFFFFFFFF DUP3 AND SWAP1 POP SWAP2 SWAP1 POP JUMP JUMPDEST PUSH1 0x0 PUSH2 0xB39 DUP3 PUSH2 0xB0E JUMP JUMPDEST SWAP1 POP SWAP2 SWAP1 POP JUMP JUMPDEST PUSH2 0xB49 DUP2 PUSH2 0xB2E JUMP JUMPDEST DUP2 EQ PUSH2 0xB54 JUMPI PUSH1 0x0 DUP1 REVERT JUMPDEST POP JUMP JUMPDEST PUSH1 0x0 DUP2 CALLDATALOAD SWAP1 POP PUSH2 0xB66 DUP2 PUSH2 0xB40 JUMP JUMPDEST SWAP3 SWAP2 POP POP JUMP JUMPDEST PUSH1 0x0 DUP1 REVERT JUMPDEST PUSH1 0x0 DUP1 REVERT JUMPDEST PUSH1 0x0 PUSH1 0x1F NOT PUSH1 0x1F DUP4 ADD AND SWAP1 POP SWAP2 SWAP1 POP JUMP JUMPDEST PUSH32 0x4E487B7100000000000000000000000000000000000000000000000000000000 PUSH1 0x0 MSTORE PUSH1 0x41 PUSH1 0x4 MSTORE PUSH1 0x24 PUSH1 0x0 REVERT JUMPDEST PUSH2 0xBBF DUP3 PUSH2 0xB76 JUMP JUMPDEST DUP2 ADD DUP2 DUP2 LT PUSH8 0xFFFFFFFFFFFFFFFF DUP3 GT OR ISZERO PUSH2 0xBDE JUMPI PUSH2 0xBDD PUSH2 0xB87 JUMP JUMPDEST JUMPDEST DUP1 PUSH1 0x40 MSTORE POP POP POP JUMP JUMPDEST PUSH1 0x0 PUSH2 0xBF1 PUSH2 0xAFA JUMP JUMPDEST SWAP1 POP PUSH2 0xBFD DUP3 DUP3 PUSH2 0xBB6 JUMP JUMPDEST SWAP2 SWAP1 POP JUMP JUMPDEST PUSH1 0x0 PUSH8 0xFFFFFFFFFFFFFFFF DUP3 GT ISZERO PUSH2 0xC1D JUMPI PUSH2 0xC1C PUSH2 0xB87 JUMP JUMPDEST JUMPDEST PUSH2 0xC26 DUP3 PUSH2 0xB76 JUMP JUMPDEST SWAP1 POP PUSH1 0x20 DUP2 ADD SWAP1 POP SWAP2 SWAP1 POP JUMP JUMPDEST DUP3 DUP2 DUP4 CALLDATACOPY PUSH1 0x0 DUP4 DUP4 ADD MSTORE POP POP POP JUMP JUMPDEST PUSH1 0x0 PUSH2 0xC55 PUSH2 0xC50 DUP5 PUSH2 0xC02 JUMP JUMPDEST PUSH2 0xBE7 JUMP JUMPDEST SWAP1 POP DUP3 DUP2 MSTORE PUSH1 0x20 DUP2 ADD DUP5 DUP5 DUP5 ADD GT ISZERO PUSH2 0xC71 JUMPI PUSH2 0xC70 PUSH2 0xB71 JUMP JUMPDEST JUMPDEST PUSH2 0xC7C DUP5 DUP3 DUP6 PUSH2 0xC33 JUMP JUMPDEST POP SWAP4 SWAP3 POP POP POP JUMP JUMPDEST PUSH1 0x0 DUP3 PUSH1 0x1F DUP4 ADD SLT PUSH2 0xC99 JUMPI PUSH2 0xC98 PUSH2 0xB6C JUMP JUMPDEST JUMPDEST DUP2 CALLDATALOAD PUSH2 0xCA9 DUP5 DUP3 PUSH1 0x20 DUP7 ADD PUSH2 0xC42 JUMP JUMPDEST SWAP2 POP POP SWAP3 SWAP2 POP POP JUMP JUMPDEST PUSH1 0x0 DUP1 PUSH1 0x40 DUP4 DUP6 SUB SLT ISZERO PUSH2 0xCC9 JUMPI PUSH2 0xCC8 PUSH2 0xB04 JUMP JUMPDEST JUMPDEST PUSH1 0x0 PUSH2 0xCD7 DUP6 DUP3 DUP7 ADD PUSH2 0xB57 JUMP JUMPDEST SWAP3 POP POP PUSH1 0x20 DUP4 ADD CALLDATALOAD PUSH8 0xFFFFFFFFFFFFFFFF DUP2 GT ISZERO PUSH2 0xCF8 JUMPI PUSH2 0xCF7 PUSH2 0xB09 JUMP JUMPDEST JUMPDEST PUSH2 0xD04 DUP6 DUP3 DUP7 ADD PUSH2 0xC84 JUMP JUMPDEST SWAP2 POP POP SWAP3 POP SWAP3 SWAP1 POP JUMP JUMPDEST PUSH1 0x0 PUSH1 0x20 DUP3 DUP5 SUB SLT ISZERO PUSH2 0xD24 JUMPI PUSH2 0xD23 PUSH2 0xB04 JUMP JUMPDEST JUMPDEST PUSH1 0x0 PUSH2 0xD32 DUP5 DUP3 DUP6 ADD PUSH2 0xB57 JUMP JUMPDEST SWAP2 POP POP SWAP3 SWAP2 POP POP JUMP JUMPDEST PUSH1 0x0 DUP2 MLOAD SWAP1 POP SWAP2 SWAP1 POP JUMP JUMPDEST PUSH1 0x0 DUP3 DUP3 MSTORE PUSH1 0x20 DUP3 ADD SWAP1 POP SWAP3 SWAP2 POP POP JUMP JUMPDEST PUSH1 0x0 DUP2 SWAP1 POP PUSH1 0x20 DUP3 ADD SWAP1 POP SWAP2 SWAP1 POP JUMP JUMPDEST PUSH2 0xD70 DUP2 PUSH2 0xB2E JUMP JUMPDEST DUP3 MSTORE POP POP JUMP JUMPDEST PUSH1 0x0 DUP2 ISZERO ISZERO SWAP1 POP SWAP2 SWAP1 POP JUMP JUMPDEST PUSH2 0xD8B DUP2 PUSH2 0xD76 JUMP JUMPDEST DUP3 MSTORE POP POP JUMP JUMPDEST PUSH1 0x40 DUP3 ADD PUSH1 0x0 DUP3 ADD MLOAD PUSH2 0xDA7 PUSH1 0x0 DUP6 ADD DUP3 PUSH2 0xD67 JUMP JUMPDEST POP PUSH1 0x20 DUP3 ADD MLOAD PUSH2 0xDBA PUSH1 0x20 DUP6 ADD DUP3 PUSH2 0xD82 JUMP JUMPDEST POP POP POP POP JUMP JUMPDEST PUSH1 0x0 PUSH2 0xDCC DUP4 DUP4 PUSH2 0xD91 JUMP JUMPDEST PUSH1 0x40 DUP4 ADD SWAP1 POP SWAP3 SWAP2 POP POP JUMP JUMPDEST PUSH1 0x0 PUSH1 0x20 DUP3 ADD SWAP1 POP SWAP2 SWAP1 POP JUMP JUMPDEST PUSH1 0x0 PUSH2 0xDF0 DUP3 PUSH2 0xD3B JUMP JUMPDEST PUSH2 0xDFA DUP2 DUP6 PUSH2 0xD46 JUMP JUMPDEST SWAP4 POP PUSH2 0xE05 DUP4 PUSH2 0xD57 JUMP JUMPDEST DUP1 PUSH1 0x0 JUMPDEST DUP4 DUP2 LT ISZERO PUSH2 0xE36 JUMPI DUP2 MLOAD PUSH2 0xE1D DUP9 DUP3 PUSH2 0xDC0 JUMP JUMPDEST SWAP8 POP PUSH2 0xE28 DUP4 PUSH2 0xDD8 JUMP JUMPDEST SWAP3 POP POP PUSH1 0x1 DUP2 ADD SWAP1 POP PUSH2 0xE09 JUMP JUMPDEST POP DUP6 SWAP4 POP POP POP POP SWAP3 SWAP2 POP POP JUMP JUMPDEST PUSH1 0x0 PUSH1 0x20 DUP3 ADD SWAP1 POP DUP2 DUP2 SUB PUSH1 0x0 DUP4 ADD MSTORE PUSH2 0xE5D DUP2 DUP5 PUSH2 0xDE5 JUMP JUMPDEST SWAP1 POP SWAP3 SWAP2 POP POP JUMP JUMPDEST PUSH1 0x0 DUP2 MLOAD SWAP1 POP SWAP2 SWAP1 POP JUMP JUMPDEST PUSH1 0x0 DUP3 DUP3 MSTORE PUSH1 0x20 DUP3 ADD SWAP1 POP SWAP3 SWAP2 POP POP JUMP JUMPDEST PUSH1 0x0 DUP2 SWAP1 POP PUSH1 0x20 DUP3 ADD SWAP1 POP SWAP2 SWAP1 POP JUMP JUMPDEST PUSH1 0x0 DUP2 MLOAD SWAP1 POP SWAP2 SWAP1 POP JUMP JUMPDEST PUSH1 0x0 DUP3 DUP3 MSTORE PUSH1 0x20 DUP3 ADD SWAP1 POP SWAP3 SWAP2 POP POP JUMP JUMPDEST PUSH1 0x0 JUMPDEST DUP4 DUP2 LT ISZERO PUSH2 0xECB JUMPI DUP1 DUP3 ADD MLOAD DUP2 DUP5 ADD MSTORE PUSH1 0x20 DUP2 ADD SWAP1 POP PUSH2 0xEB0 JUMP JUMPDEST PUSH1 0x0 DUP5 DUP5 ADD MSTORE POP POP POP POP JUMP JUMPDEST PUSH1 0x0 PUSH2 0xEE2 DUP3 PUSH2 0xE91 JUMP JUMPDEST PUSH2 0xEEC DUP2 DUP6 PUSH2 0xE9C JUMP JUMPDEST SWAP4 POP PUSH2 0xEFC DUP2 DUP6 PUSH1 0x20 DUP7 ADD PUSH2 0xEAD JUMP JUMPDEST PUSH2 0xF05 DUP2 PUSH2 0xB76 JUMP JUMPDEST DUP5 ADD SWAP2 POP POP SWAP3 SWAP2 POP POP JUMP JUMPDEST PUSH1 0x0 PUSH2 0xF1C DUP4 DUP4 PUSH2 0xED7 JUMP JUMPDEST SWAP1 POP SWAP3 SWAP2 POP POP JUMP JUMPDEST PUSH1 0x0 PUSH1 0x20 DUP3 ADD SWAP1 POP SWAP2 SWAP1 POP JUMP JUMPDEST PUSH1 0x0 PUSH2 0xF3C DUP3 PUSH2 0xE65 JUMP JUMPDEST PUSH2 0xF46 DUP2 DUP6 PUSH2 0xE70 JUMP JUMPDEST SWAP4 POP DUP4 PUSH1 0x20 DUP3 MUL DUP6 ADD PUSH2 0xF58 DUP6 PUSH2 0xE81 JUMP JUMPDEST DUP1 PUSH1 0x0 JUMPDEST DUP6 DUP2 LT ISZERO PUSH2 0xF94 JUMPI DUP5 DUP5 SUB DUP10 MSTORE DUP2 MLOAD PUSH2 0xF75 DUP6 DUP3 PUSH2 0xF10 JUMP JUMPDEST SWAP5 POP PUSH2 0xF80 DUP4 PUSH2 0xF24 JUMP JUMPDEST SWAP3 POP PUSH1 0x20 DUP11 ADD SWAP10 POP POP PUSH1 0x1 DUP2 ADD SWAP1 POP PUSH2 0xF5C JUMP JUMPDEST POP DUP3 SWAP8 POP DUP8 SWAP6 POP POP POP POP POP POP SWAP3 SWAP2 POP POP JUMP JUMPDEST PUSH1 0x0 PUSH1 0x20 DUP3 ADD SWAP1 POP DUP2 DUP2 SUB PUSH1 0x0 DUP4 ADD MSTORE PUSH2 0xFC0 DUP2 DUP5 PUSH2 0xF31 JUMP JUMPDEST SWAP1 POP SWAP3 SWAP2 POP POP JUMP JUMPDEST PUSH32 0x4E487B7100000000000000000000000000000000000000000000000000000000 PUSH1 0x0 MSTORE PUSH1 0x22 PUSH1 0x4 MSTORE PUSH1 0x24 PUSH1 0x0 REVERT JUMPDEST PUSH1 0x0 PUSH1 0x2 DUP3 DIV SWAP1 POP PUSH1 0x1 DUP3 AND DUP1 PUSH2 0x100F JUMPI PUSH1 0x7F DUP3 AND SWAP2 POP JUMPDEST PUSH1 0x20 DUP3 LT DUP2 SUB PUSH2 0x1022 JUMPI PUSH2 0x1021 PUSH2 0xFC8 JUMP JUMPDEST JUMPDEST POP SWAP2 SWAP1 POP JUMP JUMPDEST PUSH1 0x0 DUP2 SWAP1 POP DUP2 PUSH1 0x0 MSTORE PUSH1 0x20 PUSH1 0x0 KECCAK256 SWAP1 POP SWAP2 SWAP1 POP JUMP JUMPDEST PUSH1 0x0 PUSH1 0x20 PUSH1 0x1F DUP4 ADD DIV SWAP1 POP SWAP2 SWAP1 POP JUMP JUMPDEST PUSH1 0x0 DUP3 DUP3 SHL SWAP1 POP SWAP3 SWAP2 POP POP JUMP JUMPDEST PUSH1 0x0 PUSH1 0x8 DUP4 MUL PUSH2 0x108A PUSH32 0xFFFFFFFFFFFFFFFFFFFFFFFFFFFFFFFFFFFFFFFFFFFFFFFFFFFFFFFFFFFFFFFF DUP3 PUSH2 0x104D JUMP JUMPDEST PUSH2 0x1094 DUP7 DUP4 PUSH2 0x104D JUMP JUMPDEST SWAP6 POP DUP1 NOT DUP5 AND SWAP4 POP DUP1 DUP7 AND DUP5 OR SWAP3 POP POP POP SWAP4 SWAP3 POP POP POP JUMP JUMPDEST PUSH1 0x0 DUP2 SWAP1 POP SWAP2 SWAP1 POP JUMP JUMPDEST PUSH1 0x0 DUP2 SWAP1 POP SWAP2 SWAP1 POP JUMP JUMPDEST PUSH1 0x0 PUSH2 0x10DB PUSH2 0x10D6 PUSH2 0x10D1 DUP5 PUSH2 0x10AC JUMP JUMPDEST PUSH2 0x10B6 JUMP JUMPDEST PUSH2 0x10AC JUMP JUMPDEST SWAP1 POP SWAP2 SWAP1 POP JUMP JUMPDEST PUSH1 0x0 DUP2 SWAP1 POP SWAP2 SWAP1 POP JUMP JUMPDEST PUSH2 0x10F5 DUP4 PUSH2 0x10C0 JUMP JUMPDEST PUSH2 0x1109 PUSH2 0x1101 DUP3 PUSH2 0x10E2 JUMP JUMPDEST DUP5 DUP5 SLOAD PUSH2 0x105A JUMP JUMPDEST DUP3 SSTORE POP POP POP POP JUMP JUMPDEST PUSH1 0x0 SWAP1 JUMP JUMPDEST PUSH2 0x111E PUSH2 0x1111 JUMP JUMPDEST PUSH2 0x1129 DUP2 DUP5 DUP5 PUSH2 0x10EC JUMP JUMPDEST POP POP POP JUMP JUMPDEST JUMPDEST DUP2 DUP2 LT ISZERO PUSH2 0x114D JUMPI PUSH2 0x1142 PUSH1 0x0 DUP3 PUSH2 0x1116 JUMP JUMPDEST PUSH1 0x1 DUP2 ADD SWAP1 POP PUSH2 0x112F JUMP JUMPDEST POP POP JUMP JUMPDEST PUSH1 0x1F DUP3 GT ISZERO PUSH2 0x1192 JUMPI PUSH2 0x1163 DUP2 PUSH2 0x1028 JUMP JUMPDEST PUSH2 0x116C DUP5 PUSH2 0x103D JUMP JUMPDEST DUP2 ADD PUSH1 0x20 DUP6 LT ISZERO PUSH2 0x117B JUMPI DUP2 SWAP1 POP JUMPDEST PUSH2 0x118F PUSH2 0x1187 DUP6 PUSH2 0x103D JUMP JUMPDEST DUP4 ADD DUP3 PUSH2 0x112E JUMP JUMPDEST POP POP JUMPDEST POP POP POP JUMP JUMPDEST PUSH1 0x0 DUP3 DUP3 SHR SWAP1 POP SWAP3 SWAP2 POP POP JUMP JUMPDEST PUSH1 0x0 PUSH2 0x11B5 PUSH1 0x0 NOT DUP5 PUSH1 0x8 MUL PUSH2 0x1197 JUMP JUMPDEST NOT DUP1 DUP4 AND SWAP2 POP POP SWAP3 SWAP2 POP POP JUMP JUMPDEST PUSH1 0x0 PUSH2 0x11CE DUP4 DUP4 PUSH2 0x11A4 JUMP JUMPDEST SWAP2 POP DUP3 PUSH1 0x2 MUL DUP3 OR SWAP1 POP SWAP3 SWAP2 POP POP JUMP JUMPDEST PUSH2 0x11E7 DUP3 PUSH2 0xE91 JUMP JUMPDEST PUSH8 0xFFFFFFFFFFFFFFFF DUP2 GT ISZERO PUSH2 0x1200 JUMPI PUSH2 0x11FF PUSH2 0xB87 JUMP JUMPDEST JUMPDEST PUSH2 0x120A DUP3 SLOAD PUSH2 0xFF7 JUMP JUMPDEST PUSH2 0x1215 DUP3 DUP3 DUP6 PUSH2 0x1151 JUMP JUMPDEST PUSH1 0x0 PUSH1 0x20 SWAP1 POP PUSH1 0x1F DUP4 GT PUSH1 0x1 DUP2 EQ PUSH2 0x1248 JUMPI PUSH1 0x0 DUP5 ISZERO PUSH2 0x1236 JUMPI DUP3 DUP8 ADD MLOAD SWAP1 POP JUMPDEST PUSH2 0x1240 DUP6 DUP3 PUSH2 0x11C2 JUMP JUMPDEST DUP7 SSTORE POP PUSH2 0x12A8 JUMP JUMPDEST PUSH1 0x1F NOT DUP5 AND PUSH2 0x1256 DUP7 PUSH2 0x1028 JUMP JUMPDEST PUSH1 0x0 JUMPDEST DUP3 DUP2 LT ISZERO PUSH2 0x127E JUMPI DUP5 DUP10 ADD MLOAD DUP3 SSTORE PUSH1 0x1 DUP3 ADD SWAP2 POP PUSH1 0x20 DUP6 ADD SWAP5 POP PUSH1 0x20 DUP2 ADD SWAP1 POP PUSH2 0x1259 JUMP JUMPDEST DUP7 DUP4 LT ISZERO PUSH2 0x129B JUMPI DUP5 DUP10 ADD MLOAD PUSH2 0x1297 PUSH1 0x1F DUP10 AND DUP3 PUSH2 0x11A4 JUMP JUMPDEST DUP4 SSTORE POP JUMPDEST PUSH1 0x1 PUSH1 0x2 DUP9 MUL ADD DUP9 SSTORE POP POP POP JUMPDEST POP POP POP POP POP POP JUMP JUMPDEST PUSH32 0x4E487B7100000000000000000000000000000000000000000000000000000000 PUSH1 0x0 MSTORE PUSH1 0x32 PUSH1 0x4 MSTORE PUSH1 0x24 PUSH1 0x0 REVERT JUMPDEST PUSH32 0x4E487B7100000000000000000000000000000000000000000000000000000000 PUSH1 0x0 MSTORE PUSH1 0x11 PUSH1 0x4 MSTORE PUSH1 0x24 PUSH1 0x0 REVERT JUMPDEST PUSH1 0x0 PUSH2 0x1319 DUP3 PUSH2 0x10AC JUMP JUMPDEST SWAP2 POP PUSH32 0xFFFFFFFFFFFFFFFFFFFFFFFFFFFFFFFFFFFFFFFFFFFFFFFFFFFFFFFFFFFFFFFF DUP3 SUB PUSH2 0x134B JUMPI PUSH2 0x134A PUSH2 0x12DF JUMP JUMPDEST JUMPDEST PUSH1 0x1 DUP3 ADD SWAP1 POP SWAP2 SWAP1 POP JUMP JUMPDEST PUSH1 0x0 DUP3 DUP3 MSTORE PUSH1 0x20 DUP3 ADD SWAP1 POP SWAP3 SWAP2 POP POP JUMP JUMPDEST PUSH32 0x596F7520646F6E27742068617665206163636573730000000000000000000000 PUSH1 0x0 DUP3 ADD MSTORE POP JUMP JUMPDEST PUSH1 0x0 PUSH2 0x139D PUSH1 0x15 DUP4 PUSH2 0x1356 JUMP JUMPDEST SWAP2 POP PUSH2 0x13A8 DUP3 PUSH2 0x1367 JUMP JUMPDEST PUSH1 0x20 DUP3 ADD SWAP1 POP SWAP2 SWAP1 POP JUMP JUMPDEST PUSH1 0x0 PUSH1 0x20 DUP3 ADD SWAP1 POP DUP2 DUP2 SUB PUSH1 0x0 DUP4 ADD MSTORE PUSH2 0x13CC DUP2 PUSH2 0x1390 JUMP JUMPDEST SWAP1 POP SWAP2 SWAP1 POP JUMP INVALID LOG2 PUSH5 0x6970667358 0x22 SLT KECCAK256 0xC6 0xD7 0x4E LT 0xBE SGT PUSH3 0xAB939A 0xE9 PUSH11 0x9239841DD0481745D5D24E 0xC6 CALLDATASIZE PUSH10 0x183AED75BD0764736F6C PUSH4 0x43000812 STOP CALLER "
				},
				"gasEstimates": {
					"creation": {
						"codeDepositCost": "1025800",
						"executionCost": "1067",
						"totalCost": "1026867"
					},
					"external": {
						"add(address,string)": "infinite",
						"allow(address)": "infinite",
						"disallow(address)": "infinite",
						"display(address)": "infinite",
						"shareAccess()": "infinite"
					}
				},
				"methodIdentifiers": {
					"add(address,string)": "36d6da55",
					"allow(address)": "ff9913e8",
					"disallow(address)": "a9ed9cb8",
					"display(address)": "eb39113f",
					"shareAccess()": "bc8bef81"
				}
			},
			"storageLayout": {
				"storage": [
					{
						"astId": 11,
						"contract": "contracts/Afyapp.sol:Upload",
						"label": "value",
						"offset": 0,
						"slot": "0",
						"type": "t_mapping(t_address,t_array(t_string_storage)dyn_storage)"
					},
					{
						"astId": 17,
						"contract": "contracts/Afyapp.sol:Upload",
						"label": "ownership",
						"offset": 0,
						"slot": "1",
						"type": "t_mapping(t_address,t_mapping(t_address,t_bool))"
					},
					{
						"astId": 23,
						"contract": "contracts/Afyapp.sol:Upload",
						"label": "accessList",
						"offset": 0,
						"slot": "2",
						"type": "t_mapping(t_address,t_array(t_struct(Access)6_storage)dyn_storage)"
					},
					{
						"astId": 29,
						"contract": "contracts/Afyapp.sol:Upload",
						"label": "previousData",
						"offset": 0,
						"slot": "3",
						"type": "t_mapping(t_address,t_mapping(t_address,t_bool))"
					}
				],
				"types": {
					"t_address": {
						"encoding": "inplace",
						"label": "address",
						"numberOfBytes": "20"
					},
					"t_array(t_string_storage)dyn_storage": {
						"base": "t_string_storage",
						"encoding": "dynamic_array",
						"label": "string[]",
						"numberOfBytes": "32"
					},
					"t_array(t_struct(Access)6_storage)dyn_storage": {
						"base": "t_struct(Access)6_storage",
						"encoding": "dynamic_array",
						"label": "struct Upload.Access[]",
						"numberOfBytes": "32"
					},
					"t_bool": {
						"encoding": "inplace",
						"label": "bool",
						"numberOfBytes": "1"
					},
					"t_mapping(t_address,t_array(t_string_storage)dyn_storage)": {
						"encoding": "mapping",
						"key": "t_address",
						"label": "mapping(address => string[])",
						"numberOfBytes": "32",
						"value": "t_array(t_string_storage)dyn_storage"
					},
					"t_mapping(t_address,t_array(t_struct(Access)6_storage)dyn_storage)": {
						"encoding": "mapping",
						"key": "t_address",
						"label": "mapping(address => struct Upload.Access[])",
						"numberOfBytes": "32",
						"value": "t_array(t_struct(Access)6_storage)dyn_storage"
					},
					"t_mapping(t_address,t_bool)": {
						"encoding": "mapping",
						"key": "t_address",
						"label": "mapping(address => bool)",
						"numberOfBytes": "32",
						"value": "t_bool"
					},
					"t_mapping(t_address,t_mapping(t_address,t_bool))": {
						"encoding": "mapping",
						"key": "t_address",
						"label": "mapping(address => mapping(address => bool))",
						"numberOfBytes": "32",
						"value": "t_mapping(t_address,t_bool)"
					},
					"t_string_storage": {
						"encoding": "bytes",
						"label": "string",
						"numberOfBytes": "32"
					},
					"t_struct(Access)6_storage": {
						"encoding": "inplace",
						"label": "struct Upload.Access",
						"members": [
							{
								"astId": 3,
								"contract": "contracts/Afyapp.sol:Upload",
								"label": "user",
								"offset": 0,
								"slot": "0",
								"type": "t_address"
							},
							{
								"astId": 5,
								"contract": "contracts/Afyapp.sol:Upload",
								"label": "access",
								"offset": 20,
								"slot": "0",
								"type": "t_bool"
							}
						],
						"numberOfBytes": "32"
					}
				}
			},
			"userdoc": {
				"kind": "user",
				"methods": {},
				"version": 1
			}
		}
	}
}