{
  "abi": [
    {
      "inputs": [],
      "stateMutability": "nonpayable",
      "type": "constructor"
    },
    {
      "anonymous": false,
      "inputs": [
        {
          "indexed": true,
          "internalType": "bytes32",
          "name": "role",
          "type": "bytes32"
        },
        {
          "indexed": true,
          "internalType": "bytes32",
          "name": "previousAdminRole",
          "type": "bytes32"
        },
        {
          "indexed": true,
          "internalType": "bytes32",
          "name": "newAdminRole",
          "type": "bytes32"
        }
      ],
      "name": "RoleAdminChanged",
      "type": "event"
    },
    {
      "anonymous": false,
      "inputs": [
        {
          "indexed": true,
          "internalType": "bytes32",
          "name": "role",
          "type": "bytes32"
        },
        {
          "indexed": true,
          "internalType": "address",
          "name": "account",
          "type": "address"
        },
        {
          "indexed": true,
          "internalType": "address",
          "name": "sender",
          "type": "address"
        }
      ],
      "name": "RoleGranted",
      "type": "event"
    },
    {
      "anonymous": false,
      "inputs": [
        {
          "indexed": true,
          "internalType": "bytes32",
          "name": "role",
          "type": "bytes32"
        },
        {
          "indexed": true,
          "internalType": "address",
          "name": "account",
          "type": "address"
        },
        {
          "indexed": true,
          "internalType": "address",
          "name": "sender",
          "type": "address"
        }
      ],
      "name": "RoleRevoked",
      "type": "event"
    },
    {
      "inputs": [],
      "name": "DEFAULT_ADMIN_ROLE",
      "outputs": [
        {
          "internalType": "bytes32",
          "name": "",
          "type": "bytes32"
        }
      ],
      "stateMutability": "view",
      "type": "function"
    },
    {
      "inputs": [],
      "name": "DOCTOR_ROLE",
      "outputs": [
        {
          "internalType": "bytes32",
          "name": "",
          "type": "bytes32"
        }
      ],
      "stateMutability": "view",
      "type": "function"
    },
    {
      "inputs": [
        {
          "internalType": "address",
          "name": "",
          "type": "address"
        }
      ],
      "name": "doctors",
      "outputs": [
        {
          "internalType": "string",
          "name": "doctorName",
          "type": "string"
        },
        {
          "internalType": "string",
          "name": "contactInfo",
          "type": "string"
        }
      ],
      "stateMutability": "view",
      "type": "function"
    },
    {
      "inputs": [
        {
          "internalType": "bytes32",
          "name": "role",
          "type": "bytes32"
        }
      ],
      "name": "getRoleAdmin",
      "outputs": [
        {
          "internalType": "bytes32",
          "name": "",
          "type": "bytes32"
        }
      ],
      "stateMutability": "view",
      "type": "function"
    },
    {
      "inputs": [
        {
          "internalType": "bytes32",
          "name": "role",
          "type": "bytes32"
        },
        {
          "internalType": "address",
          "name": "account",
          "type": "address"
        }
      ],
      "name": "grantRole",
      "outputs": [],
      "stateMutability": "nonpayable",
      "type": "function"
    },
    {
      "inputs": [
        {
          "internalType": "bytes32",
          "name": "role",
          "type": "bytes32"
        },
        {
          "internalType": "address",
          "name": "account",
          "type": "address"
        }
      ],
      "name": "hasRole",
      "outputs": [
        {
          "internalType": "bool",
          "name": "",
          "type": "bool"
        }
      ],
      "stateMutability": "view",
      "type": "function"
    },
    {
      "inputs": [
        {
          "internalType": "string",
          "name": "_doctorName",
          "type": "string"
        },
        {
          "internalType": "string",
          "name": "_contactInfo",
          "type": "string"
        }
      ],
      "name": "registerDoctor",
      "outputs": [],
      "stateMutability": "nonpayable",
      "type": "function"
    },
    {
      "inputs": [
        {
          "internalType": "bytes32",
          "name": "role",
          "type": "bytes32"
        },
        {
          "internalType": "address",
          "name": "account",
          "type": "address"
        }
      ],
      "name": "renounceRole",
      "outputs": [],
      "stateMutability": "nonpayable",
      "type": "function"
    },
    {
      "inputs": [
        {
          "internalType": "bytes32",
          "name": "role",
          "type": "bytes32"
        },
        {
          "internalType": "address",
          "name": "account",
          "type": "address"
        }
      ],
      "name": "revokeRole",
      "outputs": [],
      "stateMutability": "nonpayable",
      "type": "function"
    },
    {
      "inputs": [
        {
          "internalType": "bytes4",
          "name": "interfaceId",
          "type": "bytes4"
        }
      ],
      "name": "supportsInterface",
      "outputs": [
        {
          "internalType": "bool",
          "name": "",
          "type": "bool"
        }
      ],
      "stateMutability": "view",
      "type": "function"
    }
  ],
  "bytecode": {
    "object": "0x608060405234801561001057600080fd5b5061001c600033610021565b6100cd565b61002b828261002f565b5050565b6000828152602081815260408083206001600160a01b038516845290915290205460ff1661002b576000828152602081815260408083206001600160a01b03851684529091529020805460ff191660011790556100893390565b6001600160a01b0316816001600160a01b0316837f2f8788117e7eff1d82e926ec794901d17c78024a50270940304540a733656f0d60405160405180910390a45050565b610bfa806100dc6000396000f3fe608060405234801561001057600080fd5b506004361061009e5760003560e01c806391d148541161006657806391d1485414610137578063a217fddf1461014a578063a9583c2214610152578063d547741f14610173578063fec331f21461018657600080fd5b806301ffc9a7146100a3578063248a9ca3146100cb5780632f2ff15d146100fc57806336568abe14610111578063833b46bb14610124575b600080fd5b6100b66100b136600461075c565b6101ad565b60405190151581526020015b60405180910390f35b6100ee6100d9366004610786565b60009081526020819052604090206001015490565b6040519081526020016100c2565b61010f61010a3660046107bb565b6101e4565b005b61010f61011f3660046107bb565b61020e565b61010f61013236600461088a565b610291565b6100b66101453660046107bb565b6102de565b6100ee600081565b6101656101603660046108ee565b610307565b6040516100c2929190610959565b61010f6101813660046107bb565b610433565b6100ee7f0af1dac7dea2fd7f7738119cec7df099dfad49aa9d2e7d17ba6b60f63ae7411f81565b60006001600160e01b03198216637965db0b60e01b14806101de57506301ffc9a760e01b6001600160e01b03198316145b92915050565b6000828152602081905260409020600101546101ff81610458565b6102098383610465565b505050565b6001600160a01b03811633146102835760405162461bcd60e51b815260206004820152602f60248201527f416363657373436f6e74726f6c3a2063616e206f6e6c792072656e6f756e636560448201526e103937b632b9903337b91039b2b63360891b60648201526084015b60405180910390fd5b61028d82826104e9565b5050565b6040805180820182528381526020808201849052336000908152600190915291909120815181906102c29082610a0f565b50602082015160018201906102d79082610a0f565b5050505050565b6000918252602082815260408084206001600160a01b0393909316845291905290205460ff1690565b60016020526000908152604090208054819061032290610987565b80601f016020809104026020016040519081016040528092919081815260200182805461034e90610987565b801561039b5780601f106103705761010080835404028352916020019161039b565b820191906000526020600020905b81548152906001019060200180831161037e57829003601f168201915b5050505050908060010180546103b090610987565b80601f01602080910402602001604051908101604052809291908181526020018280546103dc90610987565b80156104295780601f106103fe57610100808354040283529160200191610429565b820191906000526020600020905b81548152906001019060200180831161040c57829003601f168201915b5050505050905082565b60008281526020819052604090206001015461044e81610458565b61020983836104e9565b610462813361054e565b50565b61046f82826102de565b61028d576000828152602081815260408083206001600160a01b03851684529091529020805460ff191660011790556104a53390565b6001600160a01b0316816001600160a01b0316837f2f8788117e7eff1d82e926ec794901d17c78024a50270940304540a733656f0d60405160405180910390a45050565b6104f382826102de565b1561028d576000828152602081815260408083206001600160a01b0385168085529252808320805460ff1916905551339285917ff6391f5c32d9c69d2a47ea670b442974b53935d1edc7fd64eb21e047a839171b9190a45050565b61055882826102de565b61028d57610565816105a7565b6105708360206105b9565b604051602001610581929190610acf565b60408051601f198184030181529082905262461bcd60e51b825261027a91600401610b44565b60606101de6001600160a01b03831660145b606060006105c8836002610b6d565b6105d3906002610b84565b67ffffffffffffffff8111156105eb576105eb6107e7565b6040519080825280601f01601f191660200182016040528015610615576020820181803683370190505b509050600360fc1b8160008151811061063057610630610b97565b60200101906001600160f81b031916908160001a905350600f60fb1b8160018151811061065f5761065f610b97565b60200101906001600160f81b031916908160001a9053506000610683846002610b6d565b61068e906001610b84565b90505b6001811115610706576f181899199a1a9b1b9c1cb0b131b232b360811b85600f16601081106106c2576106c2610b97565b1a60f81b8282815181106106d8576106d8610b97565b60200101906001600160f81b031916908160001a90535060049490941c936106ff81610bad565b9050610691565b5083156107555760405162461bcd60e51b815260206004820181905260248201527f537472696e67733a20686578206c656e67746820696e73756666696369656e74604482015260640161027a565b9392505050565b60006020828403121561076e57600080fd5b81356001600160e01b03198116811461075557600080fd5b60006020828403121561079857600080fd5b5035919050565b80356001600160a01b03811681146107b657600080fd5b919050565b600080604083850312156107ce57600080fd5b823591506107de6020840161079f565b90509250929050565b634e487b7160e01b600052604160045260246000fd5b600082601f83011261080e57600080fd5b813567ffffffffffffffff80821115610829576108296107e7565b604051601f8301601f19908116603f01168101908282118183101715610851576108516107e7565b8160405283815286602085880101111561086a57600080fd5b836020870160208301376000602085830101528094505050505092915050565b6000806040838503121561089d57600080fd5b823567ffffffffffffffff808211156108b557600080fd5b6108c1868387016107fd565b935060208501359150808211156108d757600080fd5b506108e4858286016107fd565b9150509250929050565b60006020828403121561090057600080fd5b6107558261079f565b60005b8381101561092457818101518382015260200161090c565b50506000910152565b60008151808452610945816020860160208601610909565b601f01601f19169290920160200192915050565b60408152600061096c604083018561092d565b828103602084015261097e818561092d565b95945050505050565b600181811c9082168061099b57607f821691505b6020821081036109bb57634e487b7160e01b600052602260045260246000fd5b50919050565b601f82111561020957600081815260208120601f850160051c810160208610156109e85750805b601f850160051c820191505b81811015610a07578281556001016109f4565b505050505050565b815167ffffffffffffffff811115610a2957610a296107e7565b610a3d81610a378454610987565b846109c1565b602080601f831160018114610a725760008415610a5a5750858301515b600019600386901b1c1916600185901b178555610a07565b600085815260208120601f198616915b82811015610aa157888601518255948401946001909101908401610a82565b5085821015610abf5787850151600019600388901b60f8161c191681555b5050505050600190811b01905550565b7f416363657373436f6e74726f6c3a206163636f756e7420000000000000000000815260008351610b07816017850160208801610909565b7001034b99036b4b9b9b4b733903937b6329607d1b6017918401918201528351610b38816028840160208801610909565b01602801949350505050565b602081526000610755602083018461092d565b634e487b7160e01b600052601160045260246000fd5b80820281158282048414176101de576101de610b57565b808201808211156101de576101de610b57565b634e487b7160e01b600052603260045260246000fd5b600081610bbc57610bbc610b57565b50600019019056fea2646970667358221220ba1796728aba118fbb270e8c1eff274f9503c1eeff338b12ce78f243db0fd88664736f6c63430008130033",
    "linkReferences": {}
  },
  "methodIdentifiers": {
    "DEFAULT_ADMIN_ROLE()": "a217fddf",
    "DOCTOR_ROLE()": "fec331f2",
    "doctors(address)": "a9583c22",
    "getRoleAdmin(bytes32)": "248a9ca3",
    "grantRole(bytes32,address)": "2f2ff15d",
    "hasRole(bytes32,address)": "91d14854",
    "registerDoctor(string,string)": "833b46bb",
    "renounceRole(bytes32,address)": "36568abe",
    "revokeRole(bytes32,address)": "d547741f",
    "supportsInterface(bytes4)": "01ffc9a7"
  },
  "id": 0
}