{
  "_format": "hh-sol-artifact-1",
  "contractName": "MedicalExperts",
  "sourceName": "src/contracts/MedicalExperts.sol",
  "abi": [
    {
      "inputs": [],
      "stateMutability": "nonpayable",
      "type": "constructor"
    },
    {
      "anonymous": false,
      "inputs": [
        {
          "indexed": true,
          "internalType": "bytes32",
          "name": "role",
          "type": "bytes32"
        },
        {
          "indexed": true,
          "internalType": "bytes32",
          "name": "previousAdminRole",
          "type": "bytes32"
        },
        {
          "indexed": true,
          "internalType": "bytes32",
          "name": "newAdminRole",
          "type": "bytes32"
        }
      ],
      "name": "RoleAdminChanged",
      "type": "event"
    },
    {
      "anonymous": false,
      "inputs": [
        {
          "indexed": true,
          "internalType": "bytes32",
          "name": "role",
          "type": "bytes32"
        },
        {
          "indexed": true,
          "internalType": "address",
          "name": "account",
          "type": "address"
        },
        {
          "indexed": true,
          "internalType": "address",
          "name": "sender",
          "type": "address"
        }
      ],
      "name": "RoleGranted",
      "type": "event"
    },
    {
      "anonymous": false,
      "inputs": [
        {
          "indexed": true,
          "internalType": "bytes32",
          "name": "role",
          "type": "bytes32"
        },
        {
          "indexed": true,
          "internalType": "address",
          "name": "account",
          "type": "address"
        },
        {
          "indexed": true,
          "internalType": "address",
          "name": "sender",
          "type": "address"
        }
      ],
      "name": "RoleRevoked",
      "type": "event"
    },
    {
      "inputs": [],
      "name": "DEFAULT_ADMIN_ROLE",
      "outputs": [
        {
          "internalType": "bytes32",
          "name": "",
          "type": "bytes32"
        }
      ],
      "stateMutability": "view",
      "type": "function"
    },
    {
      "inputs": [],
      "name": "DOCTOR_ROLE",
      "outputs": [
        {
          "internalType": "bytes32",
          "name": "",
          "type": "bytes32"
        }
      ],
      "stateMutability": "view",
      "type": "function"
    },
    {
      "inputs": [
        {
          "internalType": "address",
          "name": "",
          "type": "address"
        }
      ],
      "name": "doctors",
      "outputs": [
        {
          "internalType": "string",
          "name": "doctorName",
          "type": "string"
        },
        {
          "internalType": "string",
          "name": "contactInfo",
          "type": "string"
        }
      ],
      "stateMutability": "view",
      "type": "function"
    },
    {
      "inputs": [],
      "name": "getDoctor",
      "outputs": [
        {
          "components": [
            {
              "internalType": "string",
              "name": "doctorName",
              "type": "string"
            },
            {
              "internalType": "string",
              "name": "contactInfo",
              "type": "string"
            }
          ],
          "internalType": "struct MedicalExperts.Doctor[]",
          "name": "",
          "type": "tuple[]"
        }
      ],
      "stateMutability": "view",
      "type": "function"
    },
    {
      "inputs": [
        {
          "internalType": "bytes32",
          "name": "role",
          "type": "bytes32"
        }
      ],
      "name": "getRoleAdmin",
      "outputs": [
        {
          "internalType": "bytes32",
          "name": "",
          "type": "bytes32"
        }
      ],
      "stateMutability": "view",
      "type": "function"
    },
    {
      "inputs": [
        {
          "internalType": "bytes32",
          "name": "role",
          "type": "bytes32"
        },
        {
          "internalType": "address",
          "name": "account",
          "type": "address"
        }
      ],
      "name": "grantRole",
      "outputs": [],
      "stateMutability": "nonpayable",
      "type": "function"
    },
    {
      "inputs": [
        {
          "internalType": "bytes32",
          "name": "role",
          "type": "bytes32"
        },
        {
          "internalType": "address",
          "name": "account",
          "type": "address"
        }
      ],
      "name": "hasRole",
      "outputs": [
        {
          "internalType": "bool",
          "name": "",
          "type": "bool"
        }
      ],
      "stateMutability": "view",
      "type": "function"
    },
    {
      "inputs": [
        {
          "internalType": "string",
          "name": "_doctorName",
          "type": "string"
        },
        {
          "internalType": "string",
          "name": "_contactInfo",
          "type": "string"
        }
      ],
      "name": "registerDoctor",
      "outputs": [],
      "stateMutability": "nonpayable",
      "type": "function"
    },
    {
      "inputs": [
        {
          "internalType": "bytes32",
          "name": "role",
          "type": "bytes32"
        },
        {
          "internalType": "address",
          "name": "account",
          "type": "address"
        }
      ],
      "name": "renounceRole",
      "outputs": [],
      "stateMutability": "nonpayable",
      "type": "function"
    },
    {
      "inputs": [
        {
          "internalType": "bytes32",
          "name": "role",
          "type": "bytes32"
        },
        {
          "internalType": "address",
          "name": "account",
          "type": "address"
        }
      ],
      "name": "revokeRole",
      "outputs": [],
      "stateMutability": "nonpayable",
      "type": "function"
    },
    {
      "inputs": [
        {
          "internalType": "bytes4",
          "name": "interfaceId",
          "type": "bytes4"
        }
      ],
      "name": "supportsInterface",
      "outputs": [
        {
          "internalType": "bool",
          "name": "",
          "type": "bool"
        }
      ],
      "stateMutability": "view",
      "type": "function"
    }
  ],
  "bytecode": "0x608060405234801561001057600080fd5b5061001c600033610033565b600180546001600160a01b031916331790556100df565b61003d8282610041565b5050565b6000828152602081815260408083206001600160a01b038516845290915290205460ff1661003d576000828152602081815260408083206001600160a01b03851684529091529020805460ff1916600117905561009b3390565b6001600160a01b0316816001600160a01b0316837f2f8788117e7eff1d82e926ec794901d17c78024a50270940304540a733656f0d60405160405180910390a45050565b610eba806100ee6000396000f3fe608060405234801561001057600080fd5b50600436106100a95760003560e01c8063833b46bb11610071578063833b46bb1461014457806391d1485414610157578063a217fddf1461016a578063a9583c2214610172578063d547741f14610193578063fec331f2146101a657600080fd5b806301ffc9a7146100ae578063248a9ca3146100d65780632f2ff15d1461010757806336568abe1461011c5780633aaa59201461012f575b600080fd5b6100c16100bc366004610997565b6101cd565b60405190151581526020015b60405180910390f35b6100f96100e43660046109c1565b60009081526020819052604090206001015490565b6040519081526020016100cd565b61011a6101153660046109f6565b610204565b005b61011a61012a3660046109f6565b61022e565b6101376102b1565b6040516100cd9190610a72565b61011a610152366004610b9a565b610434565b6100c16101653660046109f6565b610519565b6100f9600081565b610185610180366004610bfe565b610542565b6040516100cd929190610c19565b61011a6101a13660046109f6565b61066e565b6100f97f0af1dac7dea2fd7f7738119cec7df099dfad49aa9d2e7d17ba6b60f63ae7411f81565b60006001600160e01b03198216637965db0b60e01b14806101fe57506301ffc9a760e01b6001600160e01b03198316145b92915050565b60008281526020819052604090206001015461021f81610693565b61022983836106a0565b505050565b6001600160a01b03811633146102a35760405162461bcd60e51b815260206004820152602f60248201527f416363657373436f6e74726f6c3a2063616e206f6e6c792072656e6f756e636560448201526e103937b632b9903337b91039b2b63360891b60648201526084015b60405180910390fd5b6102ad8282610724565b5050565b60606003805480602002602001604051908101604052809291908181526020016000905b8282101561042b578382906000526020600020906002020160405180604001604052908160008201805461030890610c47565b80601f016020809104026020016040519081016040528092919081815260200182805461033490610c47565b80156103815780601f1061035657610100808354040283529160200191610381565b820191906000526020600020905b81548152906001019060200180831161036457829003601f168201915b5050505050815260200160018201805461039a90610c47565b80601f01602080910402602001604051908101604052809291908181526020018280546103c690610c47565b80156104135780601f106103e857610100808354040283529160200191610413565b820191906000526020600020905b8154815290600101906020018083116103f657829003601f168201915b505050505081525050815260200190600101906102d5565b50505050905090565b6040805180820182528381526020808201849052336000908152600290915291909120815181906104659082610ccf565b506020820151600182019061047a9082610ccf565b505060408051808201909152838152602081018390526003805460018101825560009190915281519192506002027fc2575a0e9e593c00f959f8c92f12db2869c3395a3b0502d05e2516446f71f85b019081906104d79082610ccf565b50602082015160018201906104ec9082610ccf565b5050506102ad7f0af1dac7dea2fd7f7738119cec7df099dfad49aa9d2e7d17ba6b60f63ae7411f33610204565b6000918252602082815260408084206001600160a01b0393909316845291905290205460ff1690565b60026020526000908152604090208054819061055d90610c47565b80601f016020809104026020016040519081016040528092919081815260200182805461058990610c47565b80156105d65780601f106105ab576101008083540402835291602001916105d6565b820191906000526020600020905b8154815290600101906020018083116105b957829003601f168201915b5050505050908060010180546105eb90610c47565b80601f016020809104026020016040519081016040528092919081815260200182805461061790610c47565b80156106645780601f1061063957610100808354040283529160200191610664565b820191906000526020600020905b81548152906001019060200180831161064757829003601f168201915b5050505050905082565b60008281526020819052604090206001015461068981610693565b6102298383610724565b61069d8133610789565b50565b6106aa8282610519565b6102ad576000828152602081815260408083206001600160a01b03851684529091529020805460ff191660011790556106e03390565b6001600160a01b0316816001600160a01b0316837f2f8788117e7eff1d82e926ec794901d17c78024a50270940304540a733656f0d60405160405180910390a45050565b61072e8282610519565b156102ad576000828152602081815260408083206001600160a01b0385168085529252808320805460ff1916905551339285917ff6391f5c32d9c69d2a47ea670b442974b53935d1edc7fd64eb21e047a839171b9190a45050565b6107938282610519565b6102ad576107a0816107e2565b6107ab8360206107f4565b6040516020016107bc929190610d8f565b60408051601f198184030181529082905262461bcd60e51b825261029a91600401610e04565b60606101fe6001600160a01b03831660145b60606000610803836002610e2d565b61080e906002610e44565b67ffffffffffffffff81111561082657610826610af7565b6040519080825280601f01601f191660200182016040528015610850576020820181803683370190505b509050600360fc1b8160008151811061086b5761086b610e57565b60200101906001600160f81b031916908160001a905350600f60fb1b8160018151811061089a5761089a610e57565b60200101906001600160f81b031916908160001a90535060006108be846002610e2d565b6108c9906001610e44565b90505b6001811115610941576f181899199a1a9b1b9c1cb0b131b232b360811b85600f16601081106108fd576108fd610e57565b1a60f81b82828151811061091357610913610e57565b60200101906001600160f81b031916908160001a90535060049490941c9361093a81610e6d565b90506108cc565b5083156109905760405162461bcd60e51b815260206004820181905260248201527f537472696e67733a20686578206c656e67746820696e73756666696369656e74604482015260640161029a565b9392505050565b6000602082840312156109a957600080fd5b81356001600160e01b03198116811461099057600080fd5b6000602082840312156109d357600080fd5b5035919050565b80356001600160a01b03811681146109f157600080fd5b919050565b60008060408385031215610a0957600080fd5b82359150610a19602084016109da565b90509250929050565b60005b83811015610a3d578181015183820152602001610a25565b50506000910152565b60008151808452610a5e816020860160208601610a22565b601f01601f19169290920160200192915050565b60006020808301818452808551808352604092508286019150828160051b87010184880160005b83811015610ae957888303603f1901855281518051878552610abd88860182610a46565b91890151858303868b0152919050610ad58183610a46565b968901969450505090860190600101610a99565b509098975050505050505050565b634e487b7160e01b600052604160045260246000fd5b600082601f830112610b1e57600080fd5b813567ffffffffffffffff80821115610b3957610b39610af7565b604051601f8301601f19908116603f01168101908282118183101715610b6157610b61610af7565b81604052838152866020858801011115610b7a57600080fd5b836020870160208301376000602085830101528094505050505092915050565b60008060408385031215610bad57600080fd5b823567ffffffffffffffff80821115610bc557600080fd5b610bd186838701610b0d565b93506020850135915080821115610be757600080fd5b50610bf485828601610b0d565b9150509250929050565b600060208284031215610c1057600080fd5b610990826109da565b604081526000610c2c6040830185610a46565b8281036020840152610c3e8185610a46565b95945050505050565b600181811c90821680610c5b57607f821691505b602082108103610c7b57634e487b7160e01b600052602260045260246000fd5b50919050565b601f82111561022957600081815260208120601f850160051c81016020861015610ca85750805b601f850160051c820191505b81811015610cc757828155600101610cb4565b505050505050565b815167ffffffffffffffff811115610ce957610ce9610af7565b610cfd81610cf78454610c47565b84610c81565b602080601f831160018114610d325760008415610d1a5750858301515b600019600386901b1c1916600185901b178555610cc7565b600085815260208120601f198616915b82811015610d6157888601518255948401946001909101908401610d42565b5085821015610d7f5787850151600019600388901b60f8161c191681555b5050505050600190811b01905550565b7f416363657373436f6e74726f6c3a206163636f756e7420000000000000000000815260008351610dc7816017850160208801610a22565b7001034b99036b4b9b9b4b733903937b6329607d1b6017918401918201528351610df8816028840160208801610a22565b01602801949350505050565b6020815260006109906020830184610a46565b634e487b7160e01b600052601160045260246000fd5b80820281158282048414176101fe576101fe610e17565b808201808211156101fe576101fe610e17565b634e487b7160e01b600052603260045260246000fd5b600081610e7c57610e7c610e17565b50600019019056fea2646970667358221220cd0139b45ed519efd5873b0de50c4e007d4b1c7b299331adf35ace7c5e0822ce64736f6c63430008110033",
  "linkReferences": {},
  "deployedLinkReferences": {}
}